{
  "contractName": "EcommerceToken",
  "abi": [
    {
      "constant": true,
      "inputs": [
        {
          "name": "interfaceId",
          "type": "bytes4"
        }
      ],
      "name": "supportsInterface",
      "outputs": [
        {
          "name": "",
          "type": "bool"
        }
      ],
      "payable": false,
      "stateMutability": "view",
      "type": "function"
    },
    {
      "constant": true,
      "inputs": [
        {
          "name": "tokenId",
          "type": "uint256"
        }
      ],
      "name": "getApproved",
      "outputs": [
        {
          "name": "",
          "type": "address"
        }
      ],
      "payable": false,
      "stateMutability": "view",
      "type": "function"
    },
    {
      "constant": false,
      "inputs": [
        {
          "name": "to",
          "type": "address"
        },
        {
          "name": "tokenId",
          "type": "uint256"
        }
      ],
      "name": "approve",
      "outputs": [],
      "payable": false,
      "stateMutability": "nonpayable",
      "type": "function"
    },
    {
      "constant": false,
      "inputs": [
        {
          "name": "from",
          "type": "address"
        },
        {
          "name": "to",
          "type": "address"
        },
        {
          "name": "tokenId",
          "type": "uint256"
        }
      ],
      "name": "transferFrom",
      "outputs": [],
      "payable": false,
      "stateMutability": "nonpayable",
      "type": "function"
    },
    {
      "constant": false,
      "inputs": [
        {
          "name": "from",
          "type": "address"
        },
        {
          "name": "to",
          "type": "address"
        },
        {
          "name": "tokenId",
          "type": "uint256"
        }
      ],
      "name": "safeTransferFrom",
      "outputs": [],
      "payable": false,
      "stateMutability": "nonpayable",
      "type": "function"
    },
    {
      "constant": true,
      "inputs": [
        {
          "name": "tokenId",
          "type": "uint256"
        }
      ],
      "name": "ownerOf",
      "outputs": [
        {
          "name": "",
          "type": "address"
        }
      ],
      "payable": false,
      "stateMutability": "view",
      "type": "function"
    },
    {
      "constant": true,
      "inputs": [
        {
          "name": "owner",
          "type": "address"
        }
      ],
      "name": "balanceOf",
      "outputs": [
        {
          "name": "",
          "type": "uint256"
        }
      ],
      "payable": false,
      "stateMutability": "view",
      "type": "function"
    },
    {
      "constant": false,
      "inputs": [
        {
          "name": "to",
          "type": "address"
        },
        {
          "name": "approved",
          "type": "bool"
        }
      ],
      "name": "setApprovalForAll",
      "outputs": [],
      "payable": false,
      "stateMutability": "nonpayable",
      "type": "function"
    },
    {
      "constant": false,
      "inputs": [
        {
          "name": "from",
          "type": "address"
        },
        {
          "name": "to",
          "type": "address"
        },
        {
          "name": "tokenId",
          "type": "uint256"
        },
        {
          "name": "_data",
          "type": "bytes"
        }
      ],
      "name": "safeTransferFrom",
      "outputs": [],
      "payable": false,
      "stateMutability": "nonpayable",
      "type": "function"
    },
    {
      "constant": true,
      "inputs": [],
      "name": "isEcommerceSet",
      "outputs": [
        {
          "name": "",
          "type": "bool"
        }
      ],
      "payable": false,
      "stateMutability": "view",
      "type": "function"
    },
    {
      "constant": true,
      "inputs": [
        {
          "name": "owner",
          "type": "address"
        },
        {
          "name": "operator",
          "type": "address"
        }
      ],
      "name": "isApprovedForAll",
      "outputs": [
        {
          "name": "",
          "type": "bool"
        }
      ],
      "payable": false,
      "stateMutability": "view",
      "type": "function"
    },
    {
      "constant": true,
      "inputs": [],
      "name": "ecommerce",
      "outputs": [
        {
          "name": "",
          "type": "address"
        }
      ],
      "payable": false,
      "stateMutability": "view",
      "type": "function"
    },
    {
      "anonymous": false,
      "inputs": [
        {
          "indexed": true,
          "name": "from",
          "type": "address"
        },
        {
          "indexed": true,
          "name": "to",
          "type": "address"
        },
        {
          "indexed": true,
          "name": "tokenId",
          "type": "uint256"
        }
      ],
      "name": "Transfer",
      "type": "event"
    },
    {
      "anonymous": false,
      "inputs": [
        {
          "indexed": true,
          "name": "owner",
          "type": "address"
        },
        {
          "indexed": true,
          "name": "approved",
          "type": "address"
        },
        {
          "indexed": true,
          "name": "tokenId",
          "type": "uint256"
        }
      ],
      "name": "Approval",
      "type": "event"
    },
    {
      "anonymous": false,
      "inputs": [
        {
          "indexed": true,
          "name": "owner",
          "type": "address"
        },
        {
          "indexed": true,
          "name": "operator",
          "type": "address"
        },
        {
          "indexed": false,
          "name": "approved",
          "type": "bool"
        }
      ],
      "name": "ApprovalForAll",
      "type": "event"
    },
    {
      "constant": false,
      "inputs": [
        {
          "name": "_to",
          "type": "address"
        },
        {
          "name": "_tokenId",
          "type": "uint256"
        }
      ],
      "name": "mint",
      "outputs": [],
      "payable": false,
      "stateMutability": "nonpayable",
      "type": "function"
    },
    {
      "constant": false,
      "inputs": [
        {
          "name": "_ecommerce",
          "type": "address"
        }
      ],
      "name": "setEcommerce",
      "outputs": [],
      "payable": false,
      "stateMutability": "nonpayable",
      "type": "function"
    }
  ],
  "bytecode": "0x60806040526000600560146101000a81548160ff0219169083151502179055506100356301ffc9a760e01b61005060201b60201c565b61004b6380ac58cd60e01b61005060201b60201c565b6100ef565b63ffffffff60e01b817bffffffffffffffffffffffffffffffffffffffffffffffffffffffff1916141561008357600080fd5b6001600080837bffffffffffffffffffffffffffffffffffffffffffffffffffffffff19167bffffffffffffffffffffffffffffffffffffffffffffffffffffffff1916815260200190815260200160002060006101000a81548160ff02191690831515021790555050565b6115c7806100fe6000396000f3fe608060405234801561001057600080fd5b50600436106100ea5760003560e01c806370a082311161008c578063b88d4fde11610066578063b88d4fde14610494578063dbbb58a414610599578063e985e9c5146105bb578063f2b87c0d14610637576100ea565b806370a08231146103a8578063a22cb46514610400578063b58aeed414610450576100ea565b806323b872dd116100c857806323b872dd1461021057806340c10f191461027e57806342842e0e146102cc5780636352211e1461033a576100ea565b806301ffc9a7146100ef578063081812fc14610154578063095ea7b3146101c2575b600080fd5b61013a6004803603602081101561010557600080fd5b8101908080357bffffffffffffffffffffffffffffffffffffffffffffffffffffffff19169060200190929190505050610681565b604051808215151515815260200191505060405180910390f35b6101806004803603602081101561016a57600080fd5b81019080803590602001909291905050506106e8565b604051808273ffffffffffffffffffffffffffffffffffffffff1673ffffffffffffffffffffffffffffffffffffffff16815260200191505060405180910390f35b61020e600480360360408110156101d857600080fd5b81019080803573ffffffffffffffffffffffffffffffffffffffff16906020019092919080359060200190929190505050610737565b005b61027c6004803603606081101561022657600080fd5b81019080803573ffffffffffffffffffffffffffffffffffffffff169060200190929190803573ffffffffffffffffffffffffffffffffffffffff16906020019092919080359060200190929190505050610878565b005b6102ca6004803603604081101561029457600080fd5b81019080803573ffffffffffffffffffffffffffffffffffffffff1690602001909291908035906020019092919050505061089b565b005b610338600480360360608110156102e257600080fd5b81019080803573ffffffffffffffffffffffffffffffffffffffff169060200190929190803573ffffffffffffffffffffffffffffffffffffffff1690602001909291908035906020019092919050505061094f565b005b6103666004803603602081101561035057600080fd5b810190808035906020019092919050505061096f565b604051808273ffffffffffffffffffffffffffffffffffffffff1673ffffffffffffffffffffffffffffffffffffffff16815260200191505060405180910390f35b6103ea600480360360208110156103be57600080fd5b81019080803573ffffffffffffffffffffffffffffffffffffffff1690602001909291905050506109eb565b6040518082815260200191505060405180910390f35b61044e6004803603604081101561041657600080fd5b81019080803573ffffffffffffffffffffffffffffffffffffffff169060200190929190803515159060200190929190505050610a74565b005b6104926004803603602081101561046657600080fd5b81019080803573ffffffffffffffffffffffffffffffffffffffff169060200190929190505050610bae565b005b610597600480360360808110156104aa57600080fd5b81019080803573ffffffffffffffffffffffffffffffffffffffff169060200190929190803573ffffffffffffffffffffffffffffffffffffffff169060200190929190803590602001909291908035906020019064010000000081111561051157600080fd5b82018360208201111561052357600080fd5b8035906020019184600183028401116401000000008311171561054557600080fd5b91908080601f016020809104026020016040519081016040528093929190818152602001838380828437600081840152601f19601f820116905080830192505050505050509192919290505050610cf9565b005b6105a1610d1f565b604051808215151515815260200191505060405180910390f35b61061d600480360360408110156105d157600080fd5b81019080803573ffffffffffffffffffffffffffffffffffffffff169060200190929190803573ffffffffffffffffffffffffffffffffffffffff169060200190929190505050610d32565b604051808215151515815260200191505060405180910390f35b61063f610dc6565b604051808273ffffffffffffffffffffffffffffffffffffffff1673ffffffffffffffffffffffffffffffffffffffff16815260200191505060405180910390f35b6000806000837bffffffffffffffffffffffffffffffffffffffffffffffffffffffff19167bffffffffffffffffffffffffffffffffffffffffffffffffffffffff1916815260200190815260200160002060009054906101000a900460ff169050919050565b60006106f382610dec565b6106fc57600080fd5b6002600083815260200190815260200160002060009054906101000a900473ffffffffffffffffffffffffffffffffffffffff169050919050565b60006107428261096f565b90508073ffffffffffffffffffffffffffffffffffffffff168373ffffffffffffffffffffffffffffffffffffffff16141561077d57600080fd5b8073ffffffffffffffffffffffffffffffffffffffff163373ffffffffffffffffffffffffffffffffffffffff1614806107bd57506107bc8133610d32565b5b6107c657600080fd5b826002600084815260200190815260200160002060006101000a81548173ffffffffffffffffffffffffffffffffffffffff021916908373ffffffffffffffffffffffffffffffffffffffff160217905550818373ffffffffffffffffffffffffffffffffffffffff168273ffffffffffffffffffffffffffffffffffffffff167f8c5be1e5ebec7d5bd14f71427d1e84f3dd0314c0f7b2291e5b200ac8c7c3b92560405160405180910390a4505050565b6108823382610e5e565b61088b57600080fd5b610896838383610ef3565b505050565b600560009054906101000a900473ffffffffffffffffffffffffffffffffffffffff1673ffffffffffffffffffffffffffffffffffffffff163373ffffffffffffffffffffffffffffffffffffffff1614610941576040517f08c379a000000000000000000000000000000000000000000000000000000000815260040180806020018281038252602f81526020018061156d602f913960400191505060405180910390fd5b61094b82826110b6565b5050565b61096a83838360405180602001604052806000815250610cf9565b505050565b6000806001600084815260200190815260200160002060009054906101000a900473ffffffffffffffffffffffffffffffffffffffff169050600073ffffffffffffffffffffffffffffffffffffffff168173ffffffffffffffffffffffffffffffffffffffff1614156109e257600080fd5b80915050919050565b60008073ffffffffffffffffffffffffffffffffffffffff168273ffffffffffffffffffffffffffffffffffffffff161415610a2657600080fd5b610a6d600360008473ffffffffffffffffffffffffffffffffffffffff1673ffffffffffffffffffffffffffffffffffffffff1681526020019081526020016000206111fc565b9050919050565b3373ffffffffffffffffffffffffffffffffffffffff168273ffffffffffffffffffffffffffffffffffffffff161415610aad57600080fd5b80600460003373ffffffffffffffffffffffffffffffffffffffff1673ffffffffffffffffffffffffffffffffffffffff16815260200190815260200160002060008473ffffffffffffffffffffffffffffffffffffffff1673ffffffffffffffffffffffffffffffffffffffff16815260200190815260200160002060006101000a81548160ff0219169083151502179055508173ffffffffffffffffffffffffffffffffffffffff163373ffffffffffffffffffffffffffffffffffffffff167f17307eab39ab6107e8899845ad3d59bd9653f200f220920489ca2b5937696c3183604051808215151515815260200191505060405180910390a35050565b600560149054906101000a900460ff1615610c14576040517f08c379a000000000000000000000000000000000000000000000000000000000815260040180806020018281038252602a815260200180611543602a913960400191505060405180910390fd5b600073ffffffffffffffffffffffffffffffffffffffff168173ffffffffffffffffffffffffffffffffffffffff161415610c9a576040517f08c379a000000000000000000000000000000000000000000000000000000000815260040180806020018281038252602581526020018061151e6025913960400191505060405180910390fd5b6001600560146101000a81548160ff02191690831515021790555080600560006101000a81548173ffffffffffffffffffffffffffffffffffffffff021916908373ffffffffffffffffffffffffffffffffffffffff16021790555050565b610d04848484610878565b610d108484848461120a565b610d1957600080fd5b50505050565b600560149054906101000a900460ff1681565b6000600460008473ffffffffffffffffffffffffffffffffffffffff1673ffffffffffffffffffffffffffffffffffffffff16815260200190815260200160002060008373ffffffffffffffffffffffffffffffffffffffff1673ffffffffffffffffffffffffffffffffffffffff16815260200190815260200160002060009054906101000a900460ff16905092915050565b600560009054906101000a900473ffffffffffffffffffffffffffffffffffffffff1681565b6000806001600084815260200190815260200160002060009054906101000a900473ffffffffffffffffffffffffffffffffffffffff169050600073ffffffffffffffffffffffffffffffffffffffff168173ffffffffffffffffffffffffffffffffffffffff161415915050919050565b600080610e6a8361096f565b90508073ffffffffffffffffffffffffffffffffffffffff168473ffffffffffffffffffffffffffffffffffffffff161480610ed957508373ffffffffffffffffffffffffffffffffffffffff16610ec1846106e8565b73ffffffffffffffffffffffffffffffffffffffff16145b80610eea5750610ee98185610d32565b5b91505092915050565b8273ffffffffffffffffffffffffffffffffffffffff16610f138261096f565b73ffffffffffffffffffffffffffffffffffffffff1614610f3357600080fd5b600073ffffffffffffffffffffffffffffffffffffffff168273ffffffffffffffffffffffffffffffffffffffff161415610f6d57600080fd5b610f76816113f3565b610fbd600360008573ffffffffffffffffffffffffffffffffffffffff1673ffffffffffffffffffffffffffffffffffffffff1681526020019081526020016000206114b1565b611004600360008473ffffffffffffffffffffffffffffffffffffffff1673ffffffffffffffffffffffffffffffffffffffff1681526020019081526020016000206114d4565b816001600083815260200190815260200160002060006101000a81548173ffffffffffffffffffffffffffffffffffffffff021916908373ffffffffffffffffffffffffffffffffffffffff160217905550808273ffffffffffffffffffffffffffffffffffffffff168473ffffffffffffffffffffffffffffffffffffffff167fddf252ad1be2c89b69c2b068fc378daa952ba7f163c4a11628f55a4df523b3ef60405160405180910390a4505050565b600073ffffffffffffffffffffffffffffffffffffffff168273ffffffffffffffffffffffffffffffffffffffff1614156110f057600080fd5b6110f981610dec565b1561110357600080fd5b816001600083815260200190815260200160002060006101000a81548173ffffffffffffffffffffffffffffffffffffffff021916908373ffffffffffffffffffffffffffffffffffffffff16021790555061119c600360008473ffffffffffffffffffffffffffffffffffffffff1673ffffffffffffffffffffffffffffffffffffffff1681526020019081526020016000206114d4565b808273ffffffffffffffffffffffffffffffffffffffff16600073ffffffffffffffffffffffffffffffffffffffff167fddf252ad1be2c89b69c2b068fc378daa952ba7f163c4a11628f55a4df523b3ef60405160405180910390a45050565b600081600001549050919050565b600061122b8473ffffffffffffffffffffffffffffffffffffffff166114ea565b61123857600190506113eb565b60008473ffffffffffffffffffffffffffffffffffffffff1663150b7a02338887876040518563ffffffff1660e01b8152600401808573ffffffffffffffffffffffffffffffffffffffff1673ffffffffffffffffffffffffffffffffffffffff1681526020018473ffffffffffffffffffffffffffffffffffffffff1673ffffffffffffffffffffffffffffffffffffffff16815260200183815260200180602001828103825283818151815260200191508051906020019080838360005b838110156113135780820151818401526020810190506112f8565b50505050905090810190601f1680156113405780820380516001836020036101000a031916815260200191505b5095505050505050602060405180830381600087803b15801561136257600080fd5b505af1158015611376573d6000803e3d6000fd5b505050506040513d602081101561138c57600080fd5b8101908080519060200190929190505050905063150b7a0260e01b7bffffffffffffffffffffffffffffffffffffffffffffffffffffffff1916817bffffffffffffffffffffffffffffffffffffffffffffffffffffffff1916149150505b949350505050565b600073ffffffffffffffffffffffffffffffffffffffff166002600083815260200190815260200160002060009054906101000a900473ffffffffffffffffffffffffffffffffffffffff1673ffffffffffffffffffffffffffffffffffffffff16146114ae5760006002600083815260200190815260200160002060006101000a81548173ffffffffffffffffffffffffffffffffffffffff021916908373ffffffffffffffffffffffffffffffffffffffff1602179055505b50565b6114c9600182600001546114fd90919063ffffffff16565b816000018190555050565b6001816000016000828254019250508190555050565b600080823b905060008111915050919050565b60008282111561150c57600080fd5b60008284039050809150509291505056fe5468652065636f6d6d6572636520616464726573732063616e6e6f7420626520656d7074795468652065636f6d6d6572636520616464726573732063616e206f6e6c7920626520736574206f6e63654f6e6c79207468652065636f6d6d6572636520636f6e74726163742063616e206d696e74206e657720746f6b656e73a165627a7a7230582081f4e65fd25afbcd75e77f499b85a9e6a991f2b1dfa53e65bdb57b55ccfd2d350029",
  "source": "pragma solidity ^0.5.0;\r\n\r\nimport './ERC721.sol';\r\n\r\n/// @notice The Ecommerce Token that implements the ERC721 token with mint function\r\n/// @author Merunas Grincalaitis <merunasgrincalaitis@gmail.com>\r\ncontract EcommerceToken is ERC721 {\r\n    address public ecommerce;\r\n    bool public isEcommerceSet = false;\r\n    /// @notice To generate a new token for the specified address\r\n    /// @param _to The receiver of this new token\r\n    /// @param _tokenId The new token id, must be unique\r\n    function mint(address _to, uint256 _tokenId) public {\r\n        require(msg.sender == ecommerce, 'Only the ecommerce contract can mint new tokens');\r\n        _mint(_to, _tokenId);\r\n    }\r\n\r\n    /// @notice To set the ecommerce smart contract address\r\n    function setEcommerce(address _ecommerce) public {\r\n        require(!isEcommerceSet, 'The ecommerce address can only be set once');\r\n        require(_ecommerce != address(0), 'The ecommerce address cannot be empty');\r\n        isEcommerceSet = true;\r\n        ecommerce = _ecommerce;\r\n    }\r\n}\r\n\r\n/// @notice The main ecommerce contract to buy and sell ERC-721 tokens representing physical or digital products because we are dealing with non-fungible tokens, there will be only 1 stock per product\r\n/// @author Merunas Grincalaitis <merunasgrincalaitis@gmail.com>\r\ncontract Ecommerce {\r\n    struct Product {\r\n        uint256 id;\r\n        string title;\r\n        string description;\r\n        uint256 date;\r\n        address payable owner;\r\n        uint256 price;\r\n        string image;\r\n    }\r\n    struct Order {\r\n        uint256 id;\r\n        address buyer;\r\n        string nameSurname;\r\n        string lineOneDirection;\r\n        string lineTwoDirection;\r\n        bytes32 city;\r\n        bytes32 stateRegion;\r\n        uint256 postalCode;\r\n        bytes32 country;\r\n        uint256 phone;\r\n        string state; // Either 'pending', 'completed'\r\n    }\r\n    // Seller address => products\r\n    mapping(address => Order[]) public pendingSellerOrders; // The products waiting to be fulfilled by the seller, used by sellers to check which orders have to be filled\r\n    // Buyer address => products\r\n    mapping(address => Order[]) public pendingBuyerOrders; // The products that the buyer purchased waiting to be sent\r\n    mapping(address => Order[]) public completedOrders;\r\n    // Product id => product\r\n    mapping(uint256 => Product) public productById;\r\n    // Product id => order\r\n    mapping(uint256 => Order) public orderById;\r\n    Product[] public products;\r\n    uint256 public lastId;\r\n    address public token;\r\n\r\n    /// @notice To setup the address of the ERC-721 token to use for this contract\r\n    /// @param _token The token address\r\n    constructor(address _token) public {\r\n        token = _token;\r\n    }\r\n\r\n    /// @notice To publish a product as a seller\r\n    /// @param _title The title of the product\r\n    /// @param _description The description of the product\r\n    /// @param _price The price of the product in ETH\r\n    /// @param _image The image URL of the product\r\n    function publishProduct(string memory _title, string memory _description, uint256 _price, string memory _image) public {\r\n        require(bytes(_title).length > 0, 'The title cannot be empty');\r\n        require(bytes(_description).length > 0, 'The description cannot be empty');\r\n        require(_price > 0, 'The price cannot be empty');\r\n        require(bytes(_image).length > 0, 'The image cannot be empty');\r\n\r\n        Product memory p = Product(lastId, _title, _description, now, msg.sender, _price, _image);\r\n        products.push(p);\r\n        productById[lastId] = p;\r\n        EcommerceToken(token).mint(address(this), lastId); // Create a new token for this product which will be owned by this contract until sold\r\n        lastId++;\r\n    }\r\n\r\n    /// @notice To buy a new product, note that the seller must authorize this contract to manage the token\r\n    /// @param _id The id of the product to buy\r\n    /// @param _nameSurname The name and surname of the buyer\r\n    /// @param _lineOneDirection The first line for the user address\r\n    /// @param _lineTwoDirection The second, optional user address line\r\n    /// @param _city Buyer's city\r\n    /// @param _stateRegion The state or region where the buyer lives\r\n    /// @param _postalCode The postal code of his location\r\n    /// @param _country Buyer's country\r\n    /// @param _phone The optional phone number for the shipping company\r\n    function buyProduct(uint256 _id, string memory _nameSurname, string memory _lineOneDirection, string memory _lineTwoDirection, bytes32 _city, bytes32 _stateRegion, uint256 _postalCode, bytes32 _country, uint256 _phone) public payable {\r\n        // The line 2 address and phone are optional, the rest are mandatory\r\n        require(bytes(_nameSurname).length > 0, 'The name and surname must be set');\r\n        require(bytes(_lineOneDirection).length > 0, 'The line one direction must be set');\r\n        require(_city.length > 0, 'The city must be set');\r\n        require(_stateRegion.length > 0, 'The state or region must be set');\r\n        require(_postalCode > 0, 'The postal code must be set');\r\n        require(_country > 0, 'The country must be set');\r\n\r\n        Product memory p = productById[_id];\r\n        require(bytes(p.title).length > 0, 'The product must exist to be purchased');\r\n        Order memory newOrder = Order(_id, msg.sender, _nameSurname, _lineOneDirection, _lineTwoDirection, _city, _stateRegion, _postalCode, _country, _phone, 'pending');\r\n        require(msg.value >= p.price, \"The payment must be larger or equal than the products price\");\r\n\r\n        // Delete the product from the array of products\r\n        for(uint256 i = 0; i < products.length; i++) {\r\n            if(products[i].id == _id) {\r\n                Product memory lastElement = products[products.length - 1];\r\n                products[i] = lastElement;\r\n                products.length--;\r\n            }\r\n        }\r\n\r\n        // Return the excess ETH sent by the buyer\r\n        if(msg.value > p.price) msg.sender.transfer(msg.value - p.price);\r\n        pendingSellerOrders[p.owner].push(newOrder);\r\n        pendingBuyerOrders[msg.sender].push(newOrder);\r\n        orderById[_id] = newOrder;\r\n        EcommerceToken(token).transferFrom(address(this), msg.sender, _id); // Transfer the product token to the new owner\r\n        p.owner.transfer(p.price);\r\n    }\r\n\r\n    /// @notice To mark an order as completed\r\n    /// @param _id The id of the order which is the same for the product id\r\n    function markOrderCompleted(uint256 _id) public {\r\n        Order memory order = orderById[_id];\r\n        Product memory product = productById[_id];\r\n        require(product.owner == msg.sender, 'Only the seller can mark the order as completed');\r\n        order.state = 'completed';\r\n\r\n        // Delete the seller order from the array of pending orders\r\n        for(uint256 i = 0; i < pendingSellerOrders[product.owner].length; i++) {\r\n            if(pendingSellerOrders[product.owner][i].id == _id) {\r\n                Order memory lastElement = orderById[pendingSellerOrders[product.owner].length - 1];\r\n                pendingSellerOrders[product.owner][i] = lastElement;\r\n                pendingSellerOrders[product.owner].length--;\r\n            }\r\n        }\r\n        // Delete the seller order from the array of pending orders\r\n        for(uint256 i = 0; i < pendingBuyerOrders[order.buyer].length; i++) {\r\n            if(pendingBuyerOrders[order.buyer][i].id == order.id) {\r\n                Order memory lastElement = orderById[pendingBuyerOrders[order.buyer].length - 1];\r\n                pendingBuyerOrders[order.buyer][i] = lastElement;\r\n                pendingBuyerOrders[order.buyer].length--;\r\n            }\r\n        }\r\n        completedOrders[order.buyer].push(order);\r\n        orderById[_id] = order;\r\n    }\r\n\r\n    /// @notice Returns the product length\r\n    /// @return uint256 The number of products\r\n    function getProductsLength() public view returns(uint256) {\r\n        return products.length;\r\n    }\r\n\r\n    /// @notice To get the pending seller or buyer orders\r\n    /// @param _type If you want to get the pending seller, buyer or completed orders\r\n    /// @param _owner The owner of those orders\r\n    /// @return uint256 The number of orders to get\r\n    function getOrdersLength(bytes32 _type, address _owner) public view returns(uint256) {\r\n        if(_type == 'seller') return pendingSellerOrders[_owner].length;\r\n        else if(_type == 'buyer') return pendingBuyerOrders[_owner].length;\r\n        else if(_type == 'completed') return completedOrders[_owner].length;\r\n    }\r\n}\r\n",
  "sourcePath": "C:/Users/merun/Desktop/projects/ecommerce-dapp/contracts/Ecommerce.sol",
  "compiler": {
    "name": "solc",
    "version": "0.5.8+commit.23d335f2.Emscripten.clang"
  },
  "schemaVersion": "3.0.11",
  "updatedAt": "2019-09-01T13:44:15.986Z",
  "devdoc": {
    "author": "Merunas Grincalaitis <merunasgrincalaitis@gmail.com>",
    "methods": {
      "mint(address,uint256)": {
        "params": {
          "_tokenId": "The new token id, must be unique"
        }
      }
    }
  },
  "userdoc": {
    "methods": {
      "setEcommerce(address)": {
        "notice": "To set the ecommerce smart contract address"
      }
    }
  }
}