{
  "contractName": "Ecommerce",
  "abi": [
    {
      "constant": true,
      "inputs": [],
      "name": "lastPendingBuyerOrder",
      "outputs": [
        {
          "name": "",
          "type": "uint256"
        }
      ],
      "payable": false,
      "stateMutability": "view",
      "type": "function",
      "signature": "0x02949a0a"
    },
    {
      "constant": true,
      "inputs": [],
      "name": "lastPendingSellerOrder",
      "outputs": [
        {
          "name": "",
          "type": "uint256"
        }
      ],
      "payable": false,
      "stateMutability": "view",
      "type": "function",
      "signature": "0x68756f73"
    },
    {
      "constant": true,
      "inputs": [
        {
          "name": "",
          "type": "uint256"
        }
      ],
      "name": "products",
      "outputs": [
        {
          "name": "id",
          "type": "uint256"
        },
        {
          "name": "title",
          "type": "string"
        },
        {
          "name": "description",
          "type": "string"
        },
        {
          "name": "date",
          "type": "uint256"
        },
        {
          "name": "owner",
          "type": "address"
        },
        {
          "name": "price",
          "type": "uint256"
        },
        {
          "name": "image",
          "type": "string"
        }
      ],
      "payable": false,
      "stateMutability": "view",
      "type": "function",
      "signature": "0x7acc0b20"
    },
    {
      "constant": true,
      "inputs": [
        {
          "name": "",
          "type": "uint256"
        }
      ],
      "name": "orderById",
      "outputs": [
        {
          "name": "id",
          "type": "uint256"
        },
        {
          "name": "nameSurname",
          "type": "string"
        },
        {
          "name": "lineOneDirection",
          "type": "string"
        },
        {
          "name": "lineTwoDirection",
          "type": "string"
        },
        {
          "name": "city",
          "type": "bytes32"
        },
        {
          "name": "stateRegion",
          "type": "bytes32"
        },
        {
          "name": "postalCode",
          "type": "uint256"
        },
        {
          "name": "country",
          "type": "bytes32"
        },
        {
          "name": "phone",
          "type": "uint256"
        },
        {
          "name": "state",
          "type": "string"
        }
      ],
      "payable": false,
      "stateMutability": "view",
      "type": "function",
      "signature": "0x8d77eba5"
    },
    {
      "constant": true,
      "inputs": [
        {
          "name": "",
          "type": "uint256"
        }
      ],
      "name": "productById",
      "outputs": [
        {
          "name": "id",
          "type": "uint256"
        },
        {
          "name": "title",
          "type": "string"
        },
        {
          "name": "description",
          "type": "string"
        },
        {
          "name": "date",
          "type": "uint256"
        },
        {
          "name": "owner",
          "type": "address"
        },
        {
          "name": "price",
          "type": "uint256"
        },
        {
          "name": "image",
          "type": "string"
        }
      ],
      "payable": false,
      "stateMutability": "view",
      "type": "function",
      "signature": "0xa30b475f"
    },
    {
      "constant": true,
      "inputs": [
        {
          "name": "",
          "type": "uint256"
        }
      ],
      "name": "orders",
      "outputs": [
        {
          "name": "id",
          "type": "uint256"
        },
        {
          "name": "nameSurname",
          "type": "string"
        },
        {
          "name": "lineOneDirection",
          "type": "string"
        },
        {
          "name": "lineTwoDirection",
          "type": "string"
        },
        {
          "name": "city",
          "type": "bytes32"
        },
        {
          "name": "stateRegion",
          "type": "bytes32"
        },
        {
          "name": "postalCode",
          "type": "uint256"
        },
        {
          "name": "country",
          "type": "bytes32"
        },
        {
          "name": "phone",
          "type": "uint256"
        },
        {
          "name": "state",
          "type": "string"
        }
      ],
      "payable": false,
      "stateMutability": "view",
      "type": "function",
      "signature": "0xa85c38ef"
    },
    {
      "constant": true,
      "inputs": [],
      "name": "productsLength",
      "outputs": [
        {
          "name": "",
          "type": "uint256"
        }
      ],
      "payable": false,
      "stateMutability": "view",
      "type": "function",
      "signature": "0xa8ab24bb"
    },
    {
      "constant": true,
      "inputs": [],
      "name": "ordersLength",
      "outputs": [
        {
          "name": "",
          "type": "uint256"
        }
      ],
      "payable": false,
      "stateMutability": "view",
      "type": "function",
      "signature": "0xbe8acd3f"
    },
    {
      "constant": true,
      "inputs": [],
      "name": "lastId",
      "outputs": [
        {
          "name": "",
          "type": "uint256"
        }
      ],
      "payable": false,
      "stateMutability": "view",
      "type": "function",
      "signature": "0xc1292cc3"
    },
    {
      "constant": true,
      "inputs": [
        {
          "name": "",
          "type": "address"
        },
        {
          "name": "",
          "type": "uint256"
        }
      ],
      "name": "sellerProducts",
      "outputs": [
        {
          "name": "id",
          "type": "uint256"
        },
        {
          "name": "title",
          "type": "string"
        },
        {
          "name": "description",
          "type": "string"
        },
        {
          "name": "date",
          "type": "uint256"
        },
        {
          "name": "owner",
          "type": "address"
        },
        {
          "name": "price",
          "type": "uint256"
        },
        {
          "name": "image",
          "type": "string"
        }
      ],
      "payable": false,
      "stateMutability": "view",
      "type": "function",
      "signature": "0xc1302b34"
    },
    {
      "constant": true,
      "inputs": [
        {
          "name": "",
          "type": "address"
        },
        {
          "name": "",
          "type": "uint256"
        }
      ],
      "name": "pendingBuyerOrders",
      "outputs": [
        {
          "name": "id",
          "type": "uint256"
        },
        {
          "name": "nameSurname",
          "type": "string"
        },
        {
          "name": "lineOneDirection",
          "type": "string"
        },
        {
          "name": "lineTwoDirection",
          "type": "string"
        },
        {
          "name": "city",
          "type": "bytes32"
        },
        {
          "name": "stateRegion",
          "type": "bytes32"
        },
        {
          "name": "postalCode",
          "type": "uint256"
        },
        {
          "name": "country",
          "type": "bytes32"
        },
        {
          "name": "phone",
          "type": "uint256"
        },
        {
          "name": "state",
          "type": "string"
        }
      ],
      "payable": false,
      "stateMutability": "view",
      "type": "function",
      "signature": "0xd72b29f6"
    },
    {
      "constant": true,
      "inputs": [
        {
          "name": "",
          "type": "address"
        },
        {
          "name": "",
          "type": "uint256"
        }
      ],
      "name": "pendingSellerOrders",
      "outputs": [
        {
          "name": "id",
          "type": "uint256"
        },
        {
          "name": "nameSurname",
          "type": "string"
        },
        {
          "name": "lineOneDirection",
          "type": "string"
        },
        {
          "name": "lineTwoDirection",
          "type": "string"
        },
        {
          "name": "city",
          "type": "bytes32"
        },
        {
          "name": "stateRegion",
          "type": "bytes32"
        },
        {
          "name": "postalCode",
          "type": "uint256"
        },
        {
          "name": "country",
          "type": "bytes32"
        },
        {
          "name": "phone",
          "type": "uint256"
        },
        {
          "name": "state",
          "type": "string"
        }
      ],
      "payable": false,
      "stateMutability": "view",
      "type": "function",
      "signature": "0xf7a5a493"
    },
    {
      "constant": true,
      "inputs": [],
      "name": "token",
      "outputs": [
        {
          "name": "",
          "type": "address"
        }
      ],
      "payable": false,
      "stateMutability": "view",
      "type": "function",
      "signature": "0xfc0c546a"
    },
    {
      "inputs": [
        {
          "name": "_token",
          "type": "address"
        }
      ],
      "payable": false,
      "stateMutability": "nonpayable",
      "type": "constructor",
      "signature": "constructor"
    },
    {
      "constant": false,
      "inputs": [
        {
          "name": "_title",
          "type": "string"
        },
        {
          "name": "_description",
          "type": "string"
        },
        {
          "name": "_price",
          "type": "uint256"
        },
        {
          "name": "_image",
          "type": "string"
        }
      ],
      "name": "publishProduct",
      "outputs": [],
      "payable": false,
      "stateMutability": "nonpayable",
      "type": "function",
      "signature": "0x5a56740f"
    },
    {
      "constant": false,
      "inputs": [
        {
          "name": "_id",
          "type": "uint256"
        },
        {
          "name": "_nameSurname",
          "type": "string"
        },
        {
          "name": "_lineOneDirection",
          "type": "string"
        },
        {
          "name": "_lineTwoDirection",
          "type": "string"
        },
        {
          "name": "_city",
          "type": "bytes32"
        },
        {
          "name": "_stateRegion",
          "type": "bytes32"
        },
        {
          "name": "_postalCode",
          "type": "uint256"
        },
        {
          "name": "_country",
          "type": "bytes32"
        },
        {
          "name": "_phone",
          "type": "uint256"
        }
      ],
      "name": "buyProduct",
      "outputs": [],
      "payable": true,
      "stateMutability": "payable",
      "type": "function",
      "signature": "0xf4baa9e2"
    },
    {
      "constant": false,
      "inputs": [
        {
          "name": "_id",
          "type": "uint256"
        }
      ],
      "name": "markOrderCompleted",
      "outputs": [],
      "payable": false,
      "stateMutability": "nonpayable",
      "type": "function",
      "signature": "0xdf6711b0"
    },
    {
      "constant": true,
      "inputs": [
        {
          "name": "_id",
          "type": "uint256"
        }
      ],
      "name": "getProduct",
      "outputs": [
        {
          "name": "id",
          "type": "uint256"
        },
        {
          "name": "title",
          "type": "string"
        },
        {
          "name": "description",
          "type": "string"
        },
        {
          "name": "date",
          "type": "uint256"
        },
        {
          "name": "owner",
          "type": "address"
        },
        {
          "name": "price",
          "type": "uint256"
        },
        {
          "name": "image",
          "type": "string"
        }
      ],
      "payable": false,
      "stateMutability": "view",
      "type": "function",
      "signature": "0xb9db15b4"
    }
  ],
  "bytecode": "0x608060405234801561001057600080fd5b50604051602080620054c28339810180604052602081101561003157600080fd5b810190808051906020019092919050505080600860006101000a81548173ffffffffffffffffffffffffffffffffffffffff021916908373ffffffffffffffffffffffffffffffffffffffff1602179055505061542e80620000946000396000f3fe60806040526004361061011b576000357c010000000000000000000000000000000000000000000000000000000090048063b9db15b4116100b2578063d72b29f611610081578063d72b29f614610fab578063df6711b0146111ed578063f4baa9e214611228578063f7a5a4931461144e578063fc0c546a146116905761011b565b8063b9db15b414610b8d578063be8acd3f14610d61578063c1292cc314610d8c578063c1302b3414610db75761011b565b80638d77eba5116100ee5780638d77eba51461054a578063a30b475f1461076c578063a85c38ef14610940578063a8ab24bb14610b625761011b565b806302949a0a146101205780635a56740f1461014b57806368756f731461034b5780637acc0b2014610376575b600080fd5b34801561012c57600080fd5b506101356116e7565b6040518082815260200191505060405180910390f35b34801561015757600080fd5b506103496004803603608081101561016e57600080fd5b810190808035906020019064010000000081111561018b57600080fd5b82018360208201111561019d57600080fd5b803590602001918460018302840111640100000000831117156101bf57600080fd5b91908080601f016020809104026020016040519081016040528093929190818152602001838380828437600081840152601f19601f8201169050808301925050505050505091929192908035906020019064010000000081111561022257600080fd5b82018360208201111561023457600080fd5b8035906020019184600183028401116401000000008311171561025657600080fd5b91908080601f016020809104026020016040519081016040528093929190818152602001838380828437600081840152601f19601f82011690508083019250505050505050919291929080359060200190929190803590602001906401000000008111156102c357600080fd5b8201836020820111156102d557600080fd5b803590602001918460018302840111640100000000831117156102f757600080fd5b91908080601f016020809104026020016040519081016040528093929190818152602001838380828437600081840152601f19601f8201169050808301925050505050505091929192905050506116ed565b005b34801561035757600080fd5b50610360611d1f565b6040518082815260200191505060405180910390f35b34801561038257600080fd5b506103af6004803603602081101561039957600080fd5b8101908080359060200190929190505050611d25565b6040518088815260200180602001806020018781526020018673ffffffffffffffffffffffffffffffffffffffff1673ffffffffffffffffffffffffffffffffffffffff1681526020018581526020018060200184810384528a818151815260200191508051906020019080838360005b8381101561043b578082015181840152602081019050610420565b50505050905090810190601f1680156104685780820380516001836020036101000a031916815260200191505b50848103835289818151815260200191508051906020019080838360005b838110156104a1578082015181840152602081019050610486565b50505050905090810190601f1680156104ce5780820380516001836020036101000a031916815260200191505b50848103825285818151815260200191508051906020019080838360005b838110156105075780820151818401526020810190506104ec565b50505050905090810190601f1680156105345780820380516001836020036101000a031916815260200191505b509a505050505050505050505060405180910390f35b34801561055657600080fd5b506105836004803603602081101561056d57600080fd5b8101908080359060200190929190505050611f5e565b604051808b81526020018060200180602001806020018a81526020018981526020018881526020018781526020018681526020018060200185810385528e818151815260200191508051906020019080838360005b838110156105f35780820151818401526020810190506105d8565b50505050905090810190601f1680156106205780820380516001836020036101000a031916815260200191505b5085810384528d818151815260200191508051906020019080838360005b8381101561065957808201518184015260208101905061063e565b50505050905090810190601f1680156106865780820380516001836020036101000a031916815260200191505b5085810383528c818151815260200191508051906020019080838360005b838110156106bf5780820151818401526020810190506106a4565b50505050905090810190601f1680156106ec5780820380516001836020036101000a031916815260200191505b50858103825286818151815260200191508051906020019080838360005b8381101561072557808201518184015260208101905061070a565b50505050905090810190601f1680156107525780820380516001836020036101000a031916815260200191505b509e50505050505050505050505050505060405180910390f35b34801561077857600080fd5b506107a56004803603602081101561078f57600080fd5b8101908080359060200190929190505050612212565b6040518088815260200180602001806020018781526020018673ffffffffffffffffffffffffffffffffffffffff1673ffffffffffffffffffffffffffffffffffffffff1681526020018581526020018060200184810384528a818151815260200191508051906020019080838360005b83811015610831578082015181840152602081019050610816565b50505050905090810190601f16801561085e5780820380516001836020036101000a031916815260200191505b50848103835289818151815260200191508051906020019080838360005b8381101561089757808201518184015260208101905061087c565b50505050905090810190601f1680156108c45780820380516001836020036101000a031916815260200191505b50848103825285818151815260200191508051906020019080838360005b838110156108fd5780820151818401526020810190506108e2565b50505050905090810190601f16801561092a5780820380516001836020036101000a031916815260200191505b509a505050505050505050505060405180910390f35b34801561094c57600080fd5b506109796004803603602081101561096357600080fd5b810190808035906020019092919050505061243c565b604051808b81526020018060200180602001806020018a81526020018981526020018881526020018781526020018681526020018060200185810385528e818151815260200191508051906020019080838360005b838110156109e95780820151818401526020810190506109ce565b50505050905090810190601f168015610a165780820380516001836020036101000a031916815260200191505b5085810384528d818151815260200191508051906020019080838360005b83811015610a4f578082015181840152602081019050610a34565b50505050905090810190601f168015610a7c5780820380516001836020036101000a031916815260200191505b5085810383528c818151815260200191508051906020019080838360005b83811015610ab5578082015181840152602081019050610a9a565b50505050905090810190601f168015610ae25780820380516001836020036101000a031916815260200191505b50858103825286818151815260200191508051906020019080838360005b83811015610b1b578082015181840152602081019050610b00565b50505050905090810190601f168015610b485780820380516001836020036101000a031916815260200191505b509e50505050505050505050505050505060405180910390f35b348015610b6e57600080fd5b50610b776126ff565b6040518082815260200191505060405180910390f35b348015610b9957600080fd5b50610bc660048036036020811015610bb057600080fd5b8101908080359060200190929190505050612705565b6040518088815260200180602001806020018781526020018673ffffffffffffffffffffffffffffffffffffffff1673ffffffffffffffffffffffffffffffffffffffff1681526020018581526020018060200184810384528a818151815260200191508051906020019080838360005b83811015610c52578082015181840152602081019050610c37565b50505050905090810190601f168015610c7f5780820380516001836020036101000a031916815260200191505b50848103835289818151815260200191508051906020019080838360005b83811015610cb8578082015181840152602081019050610c9d565b50505050905090810190601f168015610ce55780820380516001836020036101000a031916815260200191505b50848103825285818151815260200191508051906020019080838360005b83811015610d1e578082015181840152602081019050610d03565b50505050905090810190601f168015610d4b5780820380516001836020036101000a031916815260200191505b509a505050505050505050505060405180910390f35b348015610d6d57600080fd5b50610d766129d1565b6040518082815260200191505060405180910390f35b348015610d9857600080fd5b50610da16129d7565b6040518082815260200191505060405180910390f35b348015610dc357600080fd5b50610e1060048036036040811015610dda57600080fd5b81019080803573ffffffffffffffffffffffffffffffffffffffff169060200190929190803590602001909291905050506129dd565b6040518088815260200180602001806020018781526020018673ffffffffffffffffffffffffffffffffffffffff1673ffffffffffffffffffffffffffffffffffffffff1681526020018581526020018060200184810384528a818151815260200191508051906020019080838360005b83811015610e9c578082015181840152602081019050610e81565b50505050905090810190601f168015610ec95780820380516001836020036101000a031916815260200191505b50848103835289818151815260200191508051906020019080838360005b83811015610f02578082015181840152602081019050610ee7565b50505050905090810190601f168015610f2f5780820380516001836020036101000a031916815260200191505b50848103825285818151815260200191508051906020019080838360005b83811015610f68578082015181840152602081019050610f4d565b50505050905090810190601f168015610f955780820380516001836020036101000a031916815260200191505b509a505050505050505050505060405180910390f35b348015610fb757600080fd5b5061100460048036036040811015610fce57600080fd5b81019080803573ffffffffffffffffffffffffffffffffffffffff16906020019092919080359060200190929190505050612c23565b604051808b81526020018060200180602001806020018a81526020018981526020018881526020018781526020018681526020018060200185810385528e818151815260200191508051906020019080838360005b83811015611074578082015181840152602081019050611059565b50505050905090810190601f1680156110a15780820380516001836020036101000a031916815260200191505b5085810384528d818151815260200191508051906020019080838360005b838110156110da5780820151818401526020810190506110bf565b50505050905090810190601f1680156111075780820380516001836020036101000a031916815260200191505b5085810383528c818151815260200191508051906020019080838360005b83811015611140578082015181840152602081019050611125565b50505050905090810190601f16801561116d5780820380516001836020036101000a031916815260200191505b50858103825286818151815260200191508051906020019080838360005b838110156111a657808201518184015260208101905061118b565b50505050905090810190601f1680156111d35780820380516001836020036101000a031916815260200191505b509e50505050505050505050505050505060405180910390f35b3480156111f957600080fd5b506112266004803603602081101561121057600080fd5b8101908080359060200190929190505050612ef3565b005b61144c600480360361012081101561123f57600080fd5b81019080803590602001909291908035906020019064010000000081111561126657600080fd5b82018360208201111561127857600080fd5b8035906020019184600183028401116401000000008311171561129a57600080fd5b91908080601f016020809104026020016040519081016040528093929190818152602001838380828437600081840152601f19601f820116905080830192505050505050509192919290803590602001906401000000008111156112fd57600080fd5b82018360208201111561130f57600080fd5b8035906020019184600183028401116401000000008311171561133157600080fd5b91908080601f016020809104026020016040519081016040528093929190818152602001838380828437600081840152601f19601f8201169050808301925050505050505091929192908035906020019064010000000081111561139457600080fd5b8201836020820111156113a657600080fd5b803590602001918460018302840111640100000000831117156113c857600080fd5b91908080601f016020809104026020016040519081016040528093929190818152602001838380828437600081840152601f19601f8201169050808301925050505050505091929192908035906020019092919080359060200190929190803590602001909291908035906020019092919080359060200190929190505050614065565b005b34801561145a57600080fd5b506114a76004803603604081101561147157600080fd5b81019080803573ffffffffffffffffffffffffffffffffffffffff16906020019092919080359060200190929190505050614dfb565b604051808b81526020018060200180602001806020018a81526020018981526020018881526020018781526020018681526020018060200185810385528e818151815260200191508051906020019080838360005b838110156115175780820151818401526020810190506114fc565b50505050905090810190601f1680156115445780820380516001836020036101000a031916815260200191505b5085810384528d818151815260200191508051906020019080838360005b8381101561157d578082015181840152602081019050611562565b50505050905090810190601f1680156115aa5780820380516001836020036101000a031916815260200191505b5085810383528c818151815260200191508051906020019080838360005b838110156115e35780820151818401526020810190506115c8565b50505050905090810190601f1680156116105780820380516001836020036101000a031916815260200191505b50858103825286818151815260200191508051906020019080838360005b8381101561164957808201518184015260208101905061162e565b50505050905090810190601f1680156116765780820380516001836020036101000a031916815260200191505b509e50505050505050505050505050505060405180910390f35b34801561169c57600080fd5b506116a56150cb565b604051808273ffffffffffffffffffffffffffffffffffffffff1673ffffffffffffffffffffffffffffffffffffffff16815260200191505060405180910390f35b600a5481565b60008451111515611766576040517f08c379a00000000000000000000000000000000000000000000000000000000081526004018080602001828103825260198152602001807f546865207469746c652063616e6e6f7420626520656d7074790000000000000081525060200191505060405180910390fd5b600083511115156117df576040517f08c379a000000000000000000000000000000000000000000000000000000000815260040180806020018281038252601f8152602001807f546865206465736372697074696f6e2063616e6e6f7420626520656d7074790081525060200191505060405180910390fd5b600082111515611857576040517f08c379a00000000000000000000000000000000000000000000000000000000081526004018080602001828103825260198152602001807f5468652070726963652063616e6e6f7420626520656d7074790000000000000081525060200191505060405180910390fd5b600081511115156118d0576040517f08c379a00000000000000000000000000000000000000000000000000000000081526004018080602001828103825260198152602001807f54686520696d6167652063616e6e6f7420626520656d7074790000000000000081525060200191505060405180910390fd5b6118d86150f1565b60e06040519081016040528060075481526020018681526020018581526020014281526020013373ffffffffffffffffffffffffffffffffffffffff168152602001670de0b6b3a76400008502815260200183815250905060058190806001815401808255809150509060018203906000526020600020906007020160009091929091909150600082015181600001556020820151816001019080519060200190611984929190615145565b5060408201518160020190805190602001906119a1929190615145565b506060820151816003015560808201518160040160006101000a81548173ffffffffffffffffffffffffffffffffffffffff021916908373ffffffffffffffffffffffffffffffffffffffff16021790555060a0820151816005015560c0820151816006019080519060200190611a19929190615145565b505050506000803373ffffffffffffffffffffffffffffffffffffffff1673ffffffffffffffffffffffffffffffffffffffff1681526020019081526020016000208190806001815401808255809150509060018203906000526020600020906007020160009091929091909150600082015181600001556020820151816001019080519060200190611aad929190615145565b506040820151816002019080519060200190611aca929190615145565b506060820151816003015560808201518160040160006101000a81548173ffffffffffffffffffffffffffffffffffffffff021916908373ffffffffffffffffffffffffffffffffffffffff16021790555060a0820151816005015560c0820151816006019080519060200190611b42929190615145565b5050505080600360006007548152602001908152602001600020600082015181600001556020820151816001019080519060200190611b82929190615145565b506040820151816002019080519060200190611b9f929190615145565b506060820151816003015560808201518160040160006101000a81548173ffffffffffffffffffffffffffffffffffffffff021916908373ffffffffffffffffffffffffffffffffffffffff16021790555060a0820151816005015560c0820151816006019080519060200190611c17929190615145565b50905050600860009054906101000a900473ffffffffffffffffffffffffffffffffffffffff1673ffffffffffffffffffffffffffffffffffffffff166340c10f19306007546040518363ffffffff167c0100000000000000000000000000000000000000000000000000000000028152600401808373ffffffffffffffffffffffffffffffffffffffff1673ffffffffffffffffffffffffffffffffffffffff16815260200182815260200192505050600060405180830381600087803b158015611ce257600080fd5b505af1158015611cf6573d6000803e3d6000fd5b50505050600580549050600b819055506007600081548092919060010191905055505050505050565b60095481565b600581815481101515611d3457fe5b9060005260206000209060070201600091509050806000015490806001018054600181600116156101000203166002900480601f016020809104026020016040519081016040528092919081815260200182805460018160011615610100020316600290048015611de65780601f10611dbb57610100808354040283529160200191611de6565b820191906000526020600020905b815481529060010190602001808311611dc957829003601f168201915b505050505090806002018054600181600116156101000203166002900480601f016020809104026020016040519081016040528092919081815260200182805460018160011615610100020316600290048015611e845780601f10611e5957610100808354040283529160200191611e84565b820191906000526020600020905b815481529060010190602001808311611e6757829003601f168201915b5050505050908060030154908060040160009054906101000a900473ffffffffffffffffffffffffffffffffffffffff1690806005015490806006018054600181600116156101000203166002900480601f016020809104026020016040519081016040528092919081815260200182805460018160011615610100020316600290048015611f545780601f10611f2957610100808354040283529160200191611f54565b820191906000526020600020905b815481529060010190602001808311611f3757829003601f168201915b5050505050905087565b6004602052806000526040600020600091509050806000015490806001018054600181600116156101000203166002900480601f0160208091040260200160405190810160405280929190818152602001828054600181600116156101000203166002900480156120105780601f10611fe557610100808354040283529160200191612010565b820191906000526020600020905b815481529060010190602001808311611ff357829003601f168201915b505050505090806002018054600181600116156101000203166002900480601f0160208091040260200160405190810160405280929190818152602001828054600181600116156101000203166002900480156120ae5780601f10612083576101008083540402835291602001916120ae565b820191906000526020600020905b81548152906001019060200180831161209157829003601f168201915b505050505090806003018054600181600116156101000203166002900480601f01602080910402602001604051908101604052809291908181526020018280546001816001161561010002031660029004801561214c5780601f106121215761010080835404028352916020019161214c565b820191906000526020600020905b81548152906001019060200180831161212f57829003601f168201915b505050505090806004015490806005015490806006015490806007015490806008015490806009018054600181600116156101000203166002900480601f0160208091040260200160405190810160405280929190818152602001828054600181600116156101000203166002900480156122085780601f106121dd57610100808354040283529160200191612208565b820191906000526020600020905b8154815290600101906020018083116121eb57829003601f168201915b505050505090508a565b6003602052806000526040600020600091509050806000015490806001018054600181600116156101000203166002900480601f0160208091040260200160405190810160405280929190818152602001828054600181600116156101000203166002900480156122c45780601f10612299576101008083540402835291602001916122c4565b820191906000526020600020905b8154815290600101906020018083116122a757829003601f168201915b505050505090806002018054600181600116156101000203166002900480601f0160208091040260200160405190810160405280929190818152602001828054600181600116156101000203166002900480156123625780601f1061233757610100808354040283529160200191612362565b820191906000526020600020905b81548152906001019060200180831161234557829003601f168201915b5050505050908060030154908060040160009054906101000a900473ffffffffffffffffffffffffffffffffffffffff1690806005015490806006018054600181600116156101000203166002900480601f0160208091040260200160405190810160405280929190818152602001828054600181600116156101000203166002900480156124325780601f1061240757610100808354040283529160200191612432565b820191906000526020600020905b81548152906001019060200180831161241557829003601f168201915b5050505050905087565b60068181548110151561244b57fe5b90600052602060002090600a0201600091509050806000015490806001018054600181600116156101000203166002900480601f0160208091040260200160405190810160405280929190818152602001828054600181600116156101000203166002900480156124fd5780601f106124d2576101008083540402835291602001916124fd565b820191906000526020600020905b8154815290600101906020018083116124e057829003601f168201915b505050505090806002018054600181600116156101000203166002900480601f01602080910402602001604051908101604052809291908181526020018280546001816001161561010002031660029004801561259b5780601f106125705761010080835404028352916020019161259b565b820191906000526020600020905b81548152906001019060200180831161257e57829003601f168201915b505050505090806003018054600181600116156101000203166002900480601f0160208091040260200160405190810160405280929190818152602001828054600181600116156101000203166002900480156126395780601f1061260e57610100808354040283529160200191612639565b820191906000526020600020905b81548152906001019060200180831161261c57829003601f168201915b505050505090806004015490806005015490806006015490806007015490806008015490806009018054600181600116156101000203166002900480601f0160208091040260200160405190810160405280929190818152602001828054600181600116156101000203166002900480156126f55780601f106126ca576101008083540402835291602001916126f5565b820191906000526020600020905b8154815290600101906020018083116126d857829003601f168201915b505050505090508a565b600b5481565b6000606080600080600060606127196150f1565b600360008a815260200190815260200160002060e0604051908101604052908160008201548152602001600182018054600181600116156101000203166002900480601f0160208091040260200160405190810160405280929190818152602001828054600181600116156101000203166002900480156127db5780601f106127b0576101008083540402835291602001916127db565b820191906000526020600020905b8154815290600101906020018083116127be57829003601f168201915b50505050508152602001600282018054600181600116156101000203166002900480601f01602080910402602001604051908101604052809291908181526020018280546001816001161561010002031660029004801561287d5780601f106128525761010080835404028352916020019161287d565b820191906000526020600020905b81548152906001019060200180831161286057829003601f168201915b50505050508152602001600382015481526020016004820160009054906101000a900473ffffffffffffffffffffffffffffffffffffffff1673ffffffffffffffffffffffffffffffffffffffff1673ffffffffffffffffffffffffffffffffffffffff16815260200160058201548152602001600682018054600181600116156101000203166002900480601f0160208091040260200160405190810160405280929190818152602001828054600181600116156101000203166002900480156129895780601f1061295e57610100808354040283529160200191612989565b820191906000526020600020905b81548152906001019060200180831161296c57829003601f168201915b505050505081525050905080600001519750806020015196508060400151955080606001519450806080015193508060a0015192508060c00151915050919395979092949650565b600c5481565b60075481565b6000602052816000526040600020818154811015156129f857fe5b906000526020600020906007020160009150915050806000015490806001018054600181600116156101000203166002900480601f016020809104026020016040519081016040528092919081815260200182805460018160011615610100020316600290048015612aab5780601f10612a8057610100808354040283529160200191612aab565b820191906000526020600020905b815481529060010190602001808311612a8e57829003601f168201915b505050505090806002018054600181600116156101000203166002900480601f016020809104026020016040519081016040528092919081815260200182805460018160011615610100020316600290048015612b495780601f10612b1e57610100808354040283529160200191612b49565b820191906000526020600020905b815481529060010190602001808311612b2c57829003601f168201915b5050505050908060030154908060040160009054906101000a900473ffffffffffffffffffffffffffffffffffffffff1690806005015490806006018054600181600116156101000203166002900480601f016020809104026020016040519081016040528092919081815260200182805460018160011615610100020316600290048015612c195780601f10612bee57610100808354040283529160200191612c19565b820191906000526020600020905b815481529060010190602001808311612bfc57829003601f168201915b5050505050905087565b600260205281600052604060002081815481101515612c3e57fe5b90600052602060002090600a020160009150915050806000015490806001018054600181600116156101000203166002900480601f016020809104026020016040519081016040528092919081815260200182805460018160011615610100020316600290048015612cf15780601f10612cc657610100808354040283529160200191612cf1565b820191906000526020600020905b815481529060010190602001808311612cd457829003601f168201915b505050505090806002018054600181600116156101000203166002900480601f016020809104026020016040519081016040528092919081815260200182805460018160011615610100020316600290048015612d8f5780601f10612d6457610100808354040283529160200191612d8f565b820191906000526020600020905b815481529060010190602001808311612d7257829003601f168201915b505050505090806003018054600181600116156101000203166002900480601f016020809104026020016040519081016040528092919081815260200182805460018160011615610100020316600290048015612e2d5780601f10612e0257610100808354040283529160200191612e2d565b820191906000526020600020905b815481529060010190602001808311612e1057829003601f168201915b505050505090806004015490806005015490806006015490806007015490806008015490806009018054600181600116156101000203166002900480601f016020809104026020016040519081016040528092919081815260200182805460018160011615610100020316600290048015612ee95780601f10612ebe57610100808354040283529160200191612ee9565b820191906000526020600020905b815481529060010190602001808311612ecc57829003601f168201915b505050505090508a565b612efb6151c5565b60046000838152602001908152602001600020610140604051908101604052908160008201548152602001600182018054600181600116156101000203166002900480601f016020809104026020016040519081016040528092919081815260200182805460018160011615610100020316600290048015612fbe5780601f10612f9357610100808354040283529160200191612fbe565b820191906000526020600020905b815481529060010190602001808311612fa157829003601f168201915b50505050508152602001600282018054600181600116156101000203166002900480601f0160208091040260200160405190810160405280929190818152602001828054600181600116156101000203166002900480156130605780601f1061303557610100808354040283529160200191613060565b820191906000526020600020905b81548152906001019060200180831161304357829003601f168201915b50505050508152602001600382018054600181600116156101000203166002900480601f0160208091040260200160405190810160405280929190818152602001828054600181600116156101000203166002900480156131025780601f106130d757610100808354040283529160200191613102565b820191906000526020600020905b8154815290600101906020018083116130e557829003601f168201915b505050505081526020016004820154815260200160058201548152602001600682015481526020016007820154815260200160088201548152602001600982018054600181600116156101000203166002900480601f0160208091040260200160405190810160405280929190818152602001828054600181600116156101000203166002900480156131d65780601f106131ab576101008083540402835291602001916131d6565b820191906000526020600020905b8154815290600101906020018083116131b957829003601f168201915b50505050508152505090506131e96150f1565b6003600084815260200190815260200160002060e0604051908101604052908160008201548152602001600182018054600181600116156101000203166002900480601f0160208091040260200160405190810160405280929190818152602001828054600181600116156101000203166002900480156132ab5780601f10613280576101008083540402835291602001916132ab565b820191906000526020600020905b81548152906001019060200180831161328e57829003601f168201915b50505050508152602001600282018054600181600116156101000203166002900480601f01602080910402602001604051908101604052809291908181526020018280546001816001161561010002031660029004801561334d5780601f106133225761010080835404028352916020019161334d565b820191906000526020600020905b81548152906001019060200180831161333057829003601f168201915b50505050508152602001600382015481526020016004820160009054906101000a900473ffffffffffffffffffffffffffffffffffffffff1673ffffffffffffffffffffffffffffffffffffffff1673ffffffffffffffffffffffffffffffffffffffff16815260200160058201548152602001600682018054600181600116156101000203166002900480601f0160208091040260200160405190810160405280929190818152602001828054600181600116156101000203166002900480156134595780601f1061342e57610100808354040283529160200191613459565b820191906000526020600020905b81548152906001019060200180831161343c57829003601f168201915b50505050508152505090503373ffffffffffffffffffffffffffffffffffffffff16816080015173ffffffffffffffffffffffffffffffffffffffff161415156134ee576040517f08c379a000000000000000000000000000000000000000000000000000000000815260040180806020018281038252602f815260200180615351602f913960400191505060405180910390fd5b6040805190810160405280600981526020017f636f6d706c65746564000000000000000000000000000000000000000000000081525082610120018190525060008090505b60016000836080015173ffffffffffffffffffffffffffffffffffffffff1673ffffffffffffffffffffffffffffffffffffffff16815260200190815260200160002080549050811015613a67578360016000846080015173ffffffffffffffffffffffffffffffffffffffff1673ffffffffffffffffffffffffffffffffffffffff168152602001908152602001600020828154811015156135d257fe5b90600052602060002090600a0201600001541415613a5a576135f26151c5565b600460006009548152602001908152602001600020610140604051908101604052908160008201548152602001600182018054600181600116156101000203166002900480601f0160208091040260200160405190810160405280929190818152602001828054600181600116156101000203166002900480156136b75780601f1061368c576101008083540402835291602001916136b7565b820191906000526020600020905b81548152906001019060200180831161369a57829003601f168201915b50505050508152602001600282018054600181600116156101000203166002900480601f0160208091040260200160405190810160405280929190818152602001828054600181600116156101000203166002900480156137595780601f1061372e57610100808354040283529160200191613759565b820191906000526020600020905b81548152906001019060200180831161373c57829003601f168201915b50505050508152602001600382018054600181600116156101000203166002900480601f0160208091040260200160405190810160405280929190818152602001828054600181600116156101000203166002900480156137fb5780601f106137d0576101008083540402835291602001916137fb565b820191906000526020600020905b8154815290600101906020018083116137de57829003601f168201915b505050505081526020016004820154815260200160058201548152602001600682015481526020016007820154815260200160088201548152602001600982018054600181600116156101000203166002900480601f0160208091040260200160405190810160405280929190818152602001828054600181600116156101000203166002900480156138cf5780601f106138a4576101008083540402835291602001916138cf565b820191906000526020600020905b8154815290600101906020018083116138b257829003601f168201915b50505050508152505090508060016000856080015173ffffffffffffffffffffffffffffffffffffffff1673ffffffffffffffffffffffffffffffffffffffff1681526020019081526020016000208381548110151561392b57fe5b90600052602060002090600a020160008201518160000155602082015181600101908051906020019061395f929190615145565b50604082015181600201908051906020019061397c929190615145565b506060820151816003019080519060200190613999929190615145565b506080820151816004015560a0820151816005015560c0820151816006015560e0820151816007015561010082015181600801556101208201518160090190805190602001906139ea929190615145565b5090505060016000846080015173ffffffffffffffffffffffffffffffffffffffff1673ffffffffffffffffffffffffffffffffffffffff168152602001908152602001600020805480919060019003613a449190615222565b5060096000815480929190600190039190505550505b8080600101915050613533565b5060008090505b600260003373ffffffffffffffffffffffffffffffffffffffff1673ffffffffffffffffffffffffffffffffffffffff16815260200190815260200160002080549050811015613f96578260000151600260003373ffffffffffffffffffffffffffffffffffffffff1673ffffffffffffffffffffffffffffffffffffffff16815260200190815260200160002082815481101515613b0957fe5b90600052602060002090600a0201600001541415613f8957613b296151c5565b60046000600a548152602001908152602001600020610140604051908101604052908160008201548152602001600182018054600181600116156101000203166002900480601f016020809104026020016040519081016040528092919081815260200182805460018160011615610100020316600290048015613bee5780601f10613bc357610100808354040283529160200191613bee565b820191906000526020600020905b815481529060010190602001808311613bd157829003601f168201915b50505050508152602001600282018054600181600116156101000203166002900480601f016020809104026020016040519081016040528092919081815260200182805460018160011615610100020316600290048015613c905780601f10613c6557610100808354040283529160200191613c90565b820191906000526020600020905b815481529060010190602001808311613c7357829003601f168201915b50505050508152602001600382018054600181600116156101000203166002900480601f016020809104026020016040519081016040528092919081815260200182805460018160011615610100020316600290048015613d325780601f10613d0757610100808354040283529160200191613d32565b820191906000526020600020905b815481529060010190602001808311613d1557829003601f168201915b505050505081526020016004820154815260200160058201548152602001600682015481526020016007820154815260200160088201548152602001600982018054600181600116156101000203166002900480601f016020809104026020016040519081016040528092919081815260200182805460018160011615610100020316600290048015613e065780601f10613ddb57610100808354040283529160200191613e06565b820191906000526020600020905b815481529060010190602001808311613de957829003601f168201915b505050505081525050905080600260003373ffffffffffffffffffffffffffffffffffffffff1673ffffffffffffffffffffffffffffffffffffffff16815260200190815260200160002083815481101515613e5e57fe5b90600052602060002090600a0201600082015181600001556020820151816001019080519060200190613e92929190615145565b506040820151816002019080519060200190613eaf929190615145565b506060820151816003019080519060200190613ecc929190615145565b506080820151816004015560a0820151816005015560c0820151816006015560e082015181600701556101008201518160080155610120820151816009019080519060200190613f1d929190615145565b50905050600260003373ffffffffffffffffffffffffffffffffffffffff1673ffffffffffffffffffffffffffffffffffffffff168152602001908152602001600020805480919060019003613f739190615222565b50600a6000815480929190600190039190505550505b8080600101915050613a6e565b508160046000858152602001908152602001600020600082015181600001556020820151816001019080519060200190613fd1929190615145565b506040820151816002019080519060200190613fee929190615145565b50606082015181600301908051906020019061400b929190615145565b506080820151816004015560a0820151816005015560c0820151816006015560e08201518160070155610100820151816008015561012082015181600901908051906020019061405c929190615145565b50905050505050565b600088511115156140de576040517f08c379a00000000000000000000000000000000000000000000000000000000081526004018080602001828103825260208152602001807f546865206e616d6520616e64207375726e616d65206d7573742062652073657481525060200191505060405180910390fd5b6000875111151561413a576040517f08c379a00000000000000000000000000000000000000000000000000000000081526004018080602001828103825260228152602001806153a66022913960400191505060405180910390fd5b6000602060ff161115156141b6576040517f08c379a00000000000000000000000000000000000000000000000000000000081526004018080602001828103825260148152602001807f5468652063697479206d7573742062652073657400000000000000000000000081525060200191505060405180910390fd5b6000602060ff16111515614232576040517f08c379a000000000000000000000000000000000000000000000000000000000815260040180806020018281038252601f8152602001807f546865207374617465206f7220726567696f6e206d757374206265207365740081525060200191505060405180910390fd5b6000831115156142aa576040517f08c379a000000000000000000000000000000000000000000000000000000000815260040180806020018281038252601b8152602001807f54686520706f7374616c20636f6465206d75737420626520736574000000000081525060200191505060405180910390fd5b600060010282111515614325576040517f08c379a00000000000000000000000000000000000000000000000000000000081526004018080602001828103825260178152602001807f54686520636f756e747279206d7573742062652073657400000000000000000081525060200191505060405180910390fd5b61432d6150f1565b600360008b815260200190815260200160002060e0604051908101604052908160008201548152602001600182018054600181600116156101000203166002900480601f0160208091040260200160405190810160405280929190818152602001828054600181600116156101000203166002900480156143ef5780601f106143c4576101008083540402835291602001916143ef565b820191906000526020600020905b8154815290600101906020018083116143d257829003601f168201915b50505050508152602001600282018054600181600116156101000203166002900480601f0160208091040260200160405190810160405280929190818152602001828054600181600116156101000203166002900480156144915780601f1061446657610100808354040283529160200191614491565b820191906000526020600020905b81548152906001019060200180831161447457829003601f168201915b50505050508152602001600382015481526020016004820160009054906101000a900473ffffffffffffffffffffffffffffffffffffffff1673ffffffffffffffffffffffffffffffffffffffff1673ffffffffffffffffffffffffffffffffffffffff16815260200160058201548152602001600682018054600181600116156101000203166002900480601f01602080910402602001604051908101604052809291908181526020018280546001816001161561010002031660029004801561459d5780601f106145725761010080835404028352916020019161459d565b820191906000526020600020905b81548152906001019060200180831161458057829003601f168201915b50505050508152505090506000816020015151111515614608576040517f08c379a00000000000000000000000000000000000000000000000000000000081526004018080602001828103825260268152602001806153806026913960400191505060405180910390fd5b6146106151c5565b610140604051908101604052808c81526020018b81526020018a81526020018981526020018881526020018781526020018681526020018581526020018481526020016040805190810160405280600781526020017f70656e64696e670000000000000000000000000000000000000000000000000081525081525090508160a0015134101515156146ed576040517f08c379a000000000000000000000000000000000000000000000000000000000815260040180806020018281038252603b8152602001806153c8603b913960400191505060405180910390fd5b8160a00151341115614747573373ffffffffffffffffffffffffffffffffffffffff166108fc8360a0015134039081150290604051600060405180830381858888f19350505050158015614745573d6000803e3d6000fd5b505b60016000836080015173ffffffffffffffffffffffffffffffffffffffff1673ffffffffffffffffffffffffffffffffffffffff168152602001908152602001600020819080600181540180825580915050906001820390600052602060002090600a0201600090919290919091506000820151816000015560208201518160010190805190602001906147dc929190615145565b5060408201518160020190805190602001906147f9929190615145565b506060820151816003019080519060200190614816929190615145565b506080820151816004015560a0820151816005015560c0820151816006015560e082015181600701556101008201518160080155610120820151816009019080519060200190614867929190615145565b50505050600260003373ffffffffffffffffffffffffffffffffffffffff1673ffffffffffffffffffffffffffffffffffffffff168152602001908152602001600020819080600181540180825580915050906001820390600052602060002090600a0201600090919290919091506000820151816000015560208201518160010190805190602001906148fc929190615145565b506040820151816002019080519060200190614919929190615145565b506060820151816003019080519060200190614936929190615145565b506080820151816004015560a0820151816005015560c0820151816006015560e082015181600701556101008201518160080155610120820151816009019080519060200190614987929190615145565b505050506006819080600181540180825580915050906001820390600052602060002090600a0201600090919290919091506000820151816000015560208201518160010190805190602001906149df929190615145565b5060408201518160020190805190602001906149fc929190615145565b506060820151816003019080519060200190614a19929190615145565b506080820151816004015560a0820151816005015560c0820151816006015560e082015181600701556101008201518160080155610120820151816009019080519060200190614a6a929190615145565b5050505080600460008d8152602001908152602001600020600082015181600001556020820151816001019080519060200190614aa8929190615145565b506040820151816002019080519060200190614ac5929190615145565b506060820151816003019080519060200190614ae2929190615145565b506080820151816004015560a0820151816005015560c0820151816006015560e082015181600701556101008201518160080155610120820151816009019080519060200190614b33929190615145565b50905050600680549050600c81905550600060016000846080015173ffffffffffffffffffffffffffffffffffffffff1673ffffffffffffffffffffffffffffffffffffffff1681526020019081526020016000208054905011614b98576000614be2565b6001806000846080015173ffffffffffffffffffffffffffffffffffffffff1673ffffffffffffffffffffffffffffffffffffffff16815260200190815260200160002080549050035b600981905550600060026000846080015173ffffffffffffffffffffffffffffffffffffffff1673ffffffffffffffffffffffffffffffffffffffff1681526020019081526020016000208054905011614c3d576000614c88565b600160026000846080015173ffffffffffffffffffffffffffffffffffffffff1673ffffffffffffffffffffffffffffffffffffffff16815260200190815260200160002080549050035b600a81905550600860009054906101000a900473ffffffffffffffffffffffffffffffffffffffff1673ffffffffffffffffffffffffffffffffffffffff166323b872dd30338e6040518463ffffffff167c0100000000000000000000000000000000000000000000000000000000028152600401808473ffffffffffffffffffffffffffffffffffffffff1673ffffffffffffffffffffffffffffffffffffffff1681526020018373ffffffffffffffffffffffffffffffffffffffff1673ffffffffffffffffffffffffffffffffffffffff1681526020018281526020019350505050600060405180830381600087803b158015614d8757600080fd5b505af1158015614d9b573d6000803e3d6000fd5b50505050816080015173ffffffffffffffffffffffffffffffffffffffff166108fc8360a001519081150290604051600060405180830381858888f19350505050158015614ded573d6000803e3d6000fd5b505050505050505050505050565b600160205281600052604060002081815481101515614e1657fe5b90600052602060002090600a020160009150915050806000015490806001018054600181600116156101000203166002900480601f016020809104026020016040519081016040528092919081815260200182805460018160011615610100020316600290048015614ec95780601f10614e9e57610100808354040283529160200191614ec9565b820191906000526020600020905b815481529060010190602001808311614eac57829003601f168201915b505050505090806002018054600181600116156101000203166002900480601f016020809104026020016040519081016040528092919081815260200182805460018160011615610100020316600290048015614f675780601f10614f3c57610100808354040283529160200191614f67565b820191906000526020600020905b815481529060010190602001808311614f4a57829003601f168201915b505050505090806003018054600181600116156101000203166002900480601f0160208091040260200160405190810160405280929190818152602001828054600181600116156101000203166002900480156150055780601f10614fda57610100808354040283529160200191615005565b820191906000526020600020905b815481529060010190602001808311614fe857829003601f168201915b505050505090806004015490806005015490806006015490806007015490806008015490806009018054600181600116156101000203166002900480601f0160208091040260200160405190810160405280929190818152602001828054600181600116156101000203166002900480156150c15780601f10615096576101008083540402835291602001916150c1565b820191906000526020600020905b8154815290600101906020018083116150a457829003601f168201915b505050505090508a565b600860009054906101000a900473ffffffffffffffffffffffffffffffffffffffff1681565b60e06040519081016040528060008152602001606081526020016060815260200160008152602001600073ffffffffffffffffffffffffffffffffffffffff16815260200160008152602001606081525090565b828054600181600116156101000203166002900490600052602060002090601f016020900481019282601f1061518657805160ff19168380011785556151b4565b828001600101855582156151b4579182015b828111156151b3578251825591602001919060010190615198565b5b5090506151c19190615254565b5090565b61014060405190810160405280600081526020016060815260200160608152602001606081526020016000801916815260200160008019168152602001600081526020016000801916815260200160008152602001606081525090565b81548183558181111561524f57600a0281600a02836000526020600020918201910161524e9190615279565b5b505050565b61527691905b8082111561527257600081600090555060010161525a565b5090565b90565b61530591905b80821115615301576000808201600090556001820160006152a09190615308565b6002820160006152b09190615308565b6003820160006152c09190615308565b600482016000905560058201600090556006820160009055600782016000905560088201600090556009820160006152f89190615308565b50600a0161527f565b5090565b90565b50805460018160011615610100020316600290046000825580601f1061532e575061534d565b601f01602090049060005260206000209081019061534c9190615254565b5b5056fe4f6e6c79207468652073656c6c65722063616e206d61726b20746865206f7264657220617320636f6d706c657465645468652070726f64756374206d75737420657869737420746f20626520707572636861736564546865206c696e65206f6e6520646972656374696f6e206d75737420626520736574546865207061796d656e74206d757374206265206c6172676572206f7220657175616c207468616e207468652070726f6475637473207072696365a165627a7a7230582018636867bfb9d4ff92a97a5fa53d902a23eae8bd153d1d0c638c9c71210b21ed0029",
  "source": "pragma solidity ^0.5.0;\n\nimport './ERC721.sol';\n\n/// @notice The Ecommerce Token that implements the ERC721 token with mint function\n/// @author Merunas Grincalaitis <merunasgrincalaitis@gmail.com>\ncontract EcommerceToken is ERC721 {\n    address public ecommerce;\n    bool public isEcommerceSet = false;\n    /// @notice To generate a new token for the specified address\n    /// @param _to The receiver of this new token\n    /// @param _tokenId The new token id, must be unique\n    function mint(address _to, uint256 _tokenId) public {\n        require(msg.sender == ecommerce, 'Only the ecommerce contract can mint new tokens');\n        _mint(_to, _tokenId);\n    }\n\n    /// @notice To set the ecommerce smart contract address\n    function setEcommerce(address _ecommerce) public {\n        require(!isEcommerceSet, 'The ecommerce address can only be set once');\n        require(_ecommerce != address(0), 'The ecommerce address cannot be empty');\n        isEcommerceSet = true;\n        ecommerce = _ecommerce;\n    }\n}\n\n/// @notice The main ecommerce contract to buy and sell ERC-721 tokens representing physical or digital products because we are dealing with non-fungible tokens, there will be only 1 stock per product\n/// @author Merunas Grincalaitis <merunasgrincalaitis@gmail.com>\ncontract Ecommerce {\n    // We need the following:\n    /*\n        - A function to publish, sell products with unique token ids\n        - A function to buy products\n        - A function to mark purchased products as completed by the seller\n        - A function to get all the orders\n        - A function to get the recent products\n    */\n    struct Product {\n        uint256 id;\n        string title;\n        string description;\n        uint256 date;\n        address payable owner;\n        uint256 price;\n        string image;\n    }\n    struct Order {\n        uint256 id;\n        string nameSurname;\n        string lineOneDirection;\n        string lineTwoDirection;\n        bytes32 city;\n        bytes32 stateRegion;\n        uint256 postalCode;\n        bytes32 country;\n        uint256 phone;\n        string state; // Either 'pending', 'completed'\n    }\n    // Seller address => products\n    mapping(address => Product[]) public sellerProducts; // The published products by the seller\n    // Seller address => products\n    mapping(address => Order[]) public pendingSellerOrders; // The products waiting to be fulfilled by the seller, used by sellers to check which orders have to be filled\n    // Buyer address => products\n    mapping(address => Order[]) public pendingBuyerOrders; // The products that the buyer purchased waiting to be sent\n    // Product id => product\n    mapping(uint256 => Product) public productById;\n    // Product id => order\n    mapping(uint256 => Order) public orderById;\n    Product[] public products;\n    Order[] public orders;\n    uint256 public lastId;\n    address public token;\n    uint256 public lastPendingSellerOrder;\n    uint256 public lastPendingBuyerOrder;\n    uint256 public productsLength;\n    uint256 public ordersLength;\n\n    /// @notice To setup the address of the ERC-721 token to use for this contract\n    /// @param _token The token address\n    constructor(address _token) public {\n        token = _token;\n    }\n\n    /// @notice To publish a product as a seller\n    /// @param _title The title of the product\n    /// @param _description The description of the product\n    /// @param _price The price of the product in ETH\n    /// @param _image The image URL of the product\n    function publishProduct(string memory _title, string memory _description, uint256 _price, string memory _image) public {\n        require(bytes(_title).length > 0, 'The title cannot be empty');\n        require(bytes(_description).length > 0, 'The description cannot be empty');\n        require(_price > 0, 'The price cannot be empty');\n        require(bytes(_image).length > 0, 'The image cannot be empty');\n\n        Product memory p = Product(lastId, _title, _description, now, msg.sender, _price * 1e18 , _image);\n        products.push(p);\n        sellerProducts[msg.sender].push(p);\n        productById[lastId] = p;\n        EcommerceToken(token).mint(address(this), lastId); // Create a new token for this product which will be owned by this contract until sold\n        productsLength = products.length;\n        lastId++;\n    }\n\n    /// @notice To buy a new product, note that the seller must authorize this contract to manage the token\n    /// @param _id The id of the product to buy\n    /// @param _nameSurname The name and surname of the buyer\n    /// @param _lineOneDirection The first line for the user address\n    /// @param _lineTwoDirection The second, optional user address line\n    /// @param _city Buyer's city\n    /// @param _stateRegion The state or region where the buyer lives\n    /// @param _postalCode The postal code of his location\n    /// @param _country Buyer's country\n    /// @param _phone The optional phone number for the shipping company\n    function buyProduct(uint256 _id, string memory _nameSurname, string memory _lineOneDirection, string memory _lineTwoDirection, bytes32 _city, bytes32 _stateRegion, uint256 _postalCode, bytes32 _country, uint256 _phone) public payable {\n        // The line 2 address and phone are optional, the rest are mandatory\n        require(bytes(_nameSurname).length > 0, 'The name and surname must be set');\n        require(bytes(_lineOneDirection).length > 0, 'The line one direction must be set');\n        require(_city.length > 0, 'The city must be set');\n        require(_stateRegion.length > 0, 'The state or region must be set');\n        require(_postalCode > 0, 'The postal code must be set');\n        require(_country > 0, 'The country must be set');\n\n        Product memory p = productById[_id];\n        require(bytes(p.title).length > 0, 'The product must exist to be purchased');\n        Order memory newOrder = Order(_id, _nameSurname, _lineOneDirection, _lineTwoDirection, _city, _stateRegion, _postalCode, _country, _phone, 'pending');\n        require(msg.value >= p.price, \"The payment must be larger or equal than the products price\");\n\n        // Return the excess ETH sent by the buyer\n        if(msg.value > p.price) msg.sender.transfer(msg.value - p.price);\n        pendingSellerOrders[p.owner].push(newOrder);\n        pendingBuyerOrders[msg.sender].push(newOrder);\n        orders.push(newOrder);\n        orderById[_id] = newOrder;\n        ordersLength = orders.length;\n        lastPendingSellerOrder = pendingSellerOrders[p.owner].length > 0 ? pendingSellerOrders[p.owner].length - 1 : 0;\n        lastPendingBuyerOrder = pendingBuyerOrders[p.owner].length > 0 ? pendingBuyerOrders[p.owner].length - 1 : 0;\n        EcommerceToken(token).transferFrom(address(this), msg.sender, _id); // Transfer the product token to the new owner\n        p.owner.transfer(p.price);\n    }\n\n    /// @notice To mark an order as completed\n    /// @param _id The id of the order which is the same for the product id\n    function markOrderCompleted(uint256 _id) public {\n        Order memory order = orderById[_id];\n        Product memory product = productById[_id];\n        require(product.owner == msg.sender, 'Only the seller can mark the order as completed');\n        order.state = 'completed';\n\n        // Delete the seller order from the array of pending orders\n        for(uint256 i = 0; i < pendingSellerOrders[product.owner].length; i++) {\n            if(pendingSellerOrders[product.owner][i].id == _id) {\n                Order memory lastElement = orderById[lastPendingSellerOrder];\n                pendingSellerOrders[product.owner][i] = lastElement;\n                pendingSellerOrders[product.owner].length--;\n                lastPendingSellerOrder--;\n            }\n        }\n        // Delete the seller order from the array of pending orders\n        for(uint256 i = 0; i < pendingBuyerOrders[msg.sender].length; i++) {\n            if(pendingBuyerOrders[msg.sender][i].id == order.id) {\n                Order memory lastElement = orderById[lastPendingBuyerOrder];\n                pendingBuyerOrders[msg.sender][i] = lastElement;\n                pendingBuyerOrders[msg.sender].length--;\n                lastPendingBuyerOrder--;\n            }\n        }\n        orderById[_id] = order;\n    }\n\n    /// @notice To get a single product broken down by properties\n    /// @param _id The id of the product to get\n    /// @return The product properties including all of them\n    function getProduct(uint256 _id) public view returns(uint256 id, string memory title, string memory description, uint256 date, address payable owner, uint256 price, string memory image) {\n        Product memory p = productById[_id];\n        id = p.id;\n        title = p.title;\n        description = p.description;\n        date = p.date;\n        owner = p.owner;\n        price = p.price;\n        image = p.image;\n    }\n}\n",
  "sourcePath": "/Users/merunas/Desktop/ecommerce-dapp/contracts/Ecommerce.sol",
  "compiler": {
    "name": "solc",
    "version": "0.5.4+commit.9549d8ff.Emscripten.clang"
  },
  "schemaVersion": "3.0.0-beta.2",
  "updatedAt": "2019-04-01T21:40:25.992Z",
  "devdoc": {
    "author": "Merunas Grincalaitis <merunasgrincalaitis@gmail.com>",
    "methods": {
      "buyProduct(uint256,string,string,string,bytes32,bytes32,uint256,bytes32,uint256)": {
        "params": {
          "_city": "Buyer's city",
          "_country": "Buyer's country",
          "_id": "The id of the product to buy",
          "_lineOneDirection": "The first line for the user address",
          "_lineTwoDirection": "The second, optional user address line",
          "_nameSurname": "The name and surname of the buyer",
          "_phone": "The optional phone number for the shipping company",
          "_postalCode": "The postal code of his location",
          "_stateRegion": "The state or region where the buyer lives"
        }
      },
      "constructor": {
        "params": {
          "_token": "The token address"
        }
      },
      "getProduct(uint256)": {
        "params": {
          "_id": "The id of the product to get"
        },
        "return": "The product properties including all of them"
      },
      "markOrderCompleted(uint256)": {
        "params": {
          "_id": "The id of the order which is the same for the product id"
        }
      },
      "publishProduct(string,string,uint256,string)": {
        "params": {
          "_description": "The description of the product",
          "_image": "The image URL of the product",
          "_price": "The price of the product in ETH",
          "_title": "The title of the product"
        }
      }
    }
  },
  "userdoc": {
    "methods": {
      "buyProduct(uint256,string,string,string,bytes32,bytes32,uint256,bytes32,uint256)": {
        "notice": "To buy a new product, note that the seller must authorize this contract to manage the token"
      },
      "constructor": "To setup the address of the ERC-721 token to use for this contract",
      "getProduct(uint256)": {
        "notice": "To get a single product broken down by properties"
      },
      "markOrderCompleted(uint256)": {
        "notice": "To mark an order as completed"
      },
      "publishProduct(string,string,uint256,string)": {
        "notice": "To publish a product as a seller"
      }
    },
    "notice": "The main ecommerce contract to buy and sell ERC-721 tokens representing physical or digital products because we are dealing with non-fungible tokens, there will be only 1 stock per product"
  }
}