{
  "contractName": "Ecommerce",
  "abi": [
    {
      "constant": true,
      "inputs": [],
      "name": "lastPendingBuyerOrder",
      "outputs": [
        {
          "name": "",
          "type": "uint256"
        }
      ],
      "payable": false,
      "stateMutability": "view",
      "type": "function"
    },
    {
      "constant": true,
      "inputs": [
        {
          "name": "",
          "type": "address"
        },
        {
          "name": "",
          "type": "uint256"
        }
      ],
      "name": "completedSellerOrders",
      "outputs": [
        {
          "name": "id",
          "type": "uint256"
        },
        {
          "name": "nameSurname",
          "type": "string"
        },
        {
          "name": "lineOneDirection",
          "type": "string"
        },
        {
          "name": "lineTwoDirection",
          "type": "string"
        },
        {
          "name": "city",
          "type": "bytes32"
        },
        {
          "name": "stateRegion",
          "type": "bytes32"
        },
        {
          "name": "postalCode",
          "type": "uint256"
        },
        {
          "name": "country",
          "type": "bytes32"
        },
        {
          "name": "phone",
          "type": "uint256"
        },
        {
          "name": "state",
          "type": "string"
        }
      ],
      "payable": false,
      "stateMutability": "view",
      "type": "function"
    },
    {
      "constant": true,
      "inputs": [
        {
          "name": "",
          "type": "address"
        },
        {
          "name": "",
          "type": "uint256"
        }
      ],
      "name": "completedBuyerOrders",
      "outputs": [
        {
          "name": "id",
          "type": "uint256"
        },
        {
          "name": "nameSurname",
          "type": "string"
        },
        {
          "name": "lineOneDirection",
          "type": "string"
        },
        {
          "name": "lineTwoDirection",
          "type": "string"
        },
        {
          "name": "city",
          "type": "bytes32"
        },
        {
          "name": "stateRegion",
          "type": "bytes32"
        },
        {
          "name": "postalCode",
          "type": "uint256"
        },
        {
          "name": "country",
          "type": "bytes32"
        },
        {
          "name": "phone",
          "type": "uint256"
        },
        {
          "name": "state",
          "type": "string"
        }
      ],
      "payable": false,
      "stateMutability": "view",
      "type": "function"
    },
    {
      "constant": true,
      "inputs": [],
      "name": "lastPendingSellerOrder",
      "outputs": [
        {
          "name": "",
          "type": "uint256"
        }
      ],
      "payable": false,
      "stateMutability": "view",
      "type": "function"
    },
    {
      "constant": true,
      "inputs": [
        {
          "name": "",
          "type": "uint256"
        }
      ],
      "name": "products",
      "outputs": [
        {
          "name": "id",
          "type": "uint256"
        },
        {
          "name": "title",
          "type": "string"
        },
        {
          "name": "description",
          "type": "string"
        },
        {
          "name": "date",
          "type": "uint256"
        },
        {
          "name": "owner",
          "type": "address"
        },
        {
          "name": "price",
          "type": "uint256"
        },
        {
          "name": "image",
          "type": "string"
        }
      ],
      "payable": false,
      "stateMutability": "view",
      "type": "function"
    },
    {
      "constant": true,
      "inputs": [
        {
          "name": "",
          "type": "uint256"
        }
      ],
      "name": "orderById",
      "outputs": [
        {
          "name": "id",
          "type": "uint256"
        },
        {
          "name": "nameSurname",
          "type": "string"
        },
        {
          "name": "lineOneDirection",
          "type": "string"
        },
        {
          "name": "lineTwoDirection",
          "type": "string"
        },
        {
          "name": "city",
          "type": "bytes32"
        },
        {
          "name": "stateRegion",
          "type": "bytes32"
        },
        {
          "name": "postalCode",
          "type": "uint256"
        },
        {
          "name": "country",
          "type": "bytes32"
        },
        {
          "name": "phone",
          "type": "uint256"
        },
        {
          "name": "state",
          "type": "string"
        }
      ],
      "payable": false,
      "stateMutability": "view",
      "type": "function"
    },
    {
      "constant": true,
      "inputs": [
        {
          "name": "",
          "type": "uint256"
        }
      ],
      "name": "productById",
      "outputs": [
        {
          "name": "id",
          "type": "uint256"
        },
        {
          "name": "title",
          "type": "string"
        },
        {
          "name": "description",
          "type": "string"
        },
        {
          "name": "date",
          "type": "uint256"
        },
        {
          "name": "owner",
          "type": "address"
        },
        {
          "name": "price",
          "type": "uint256"
        },
        {
          "name": "image",
          "type": "string"
        }
      ],
      "payable": false,
      "stateMutability": "view",
      "type": "function"
    },
    {
      "constant": true,
      "inputs": [
        {
          "name": "",
          "type": "uint256"
        }
      ],
      "name": "orders",
      "outputs": [
        {
          "name": "id",
          "type": "uint256"
        },
        {
          "name": "nameSurname",
          "type": "string"
        },
        {
          "name": "lineOneDirection",
          "type": "string"
        },
        {
          "name": "lineTwoDirection",
          "type": "string"
        },
        {
          "name": "city",
          "type": "bytes32"
        },
        {
          "name": "stateRegion",
          "type": "bytes32"
        },
        {
          "name": "postalCode",
          "type": "uint256"
        },
        {
          "name": "country",
          "type": "bytes32"
        },
        {
          "name": "phone",
          "type": "uint256"
        },
        {
          "name": "state",
          "type": "string"
        }
      ],
      "payable": false,
      "stateMutability": "view",
      "type": "function"
    },
    {
      "constant": true,
      "inputs": [
        {
          "name": "",
          "type": "uint256"
        }
      ],
      "name": "productExists",
      "outputs": [
        {
          "name": "",
          "type": "bool"
        }
      ],
      "payable": false,
      "stateMutability": "view",
      "type": "function"
    },
    {
      "constant": true,
      "inputs": [],
      "name": "lastId",
      "outputs": [
        {
          "name": "",
          "type": "uint256"
        }
      ],
      "payable": false,
      "stateMutability": "view",
      "type": "function"
    },
    {
      "constant": true,
      "inputs": [
        {
          "name": "",
          "type": "address"
        },
        {
          "name": "",
          "type": "uint256"
        }
      ],
      "name": "sellerProducts",
      "outputs": [
        {
          "name": "id",
          "type": "uint256"
        },
        {
          "name": "title",
          "type": "string"
        },
        {
          "name": "description",
          "type": "string"
        },
        {
          "name": "date",
          "type": "uint256"
        },
        {
          "name": "owner",
          "type": "address"
        },
        {
          "name": "price",
          "type": "uint256"
        },
        {
          "name": "image",
          "type": "string"
        }
      ],
      "payable": false,
      "stateMutability": "view",
      "type": "function"
    },
    {
      "constant": true,
      "inputs": [
        {
          "name": "",
          "type": "address"
        },
        {
          "name": "",
          "type": "uint256"
        }
      ],
      "name": "pendingBuyerOrders",
      "outputs": [
        {
          "name": "id",
          "type": "uint256"
        },
        {
          "name": "nameSurname",
          "type": "string"
        },
        {
          "name": "lineOneDirection",
          "type": "string"
        },
        {
          "name": "lineTwoDirection",
          "type": "string"
        },
        {
          "name": "city",
          "type": "bytes32"
        },
        {
          "name": "stateRegion",
          "type": "bytes32"
        },
        {
          "name": "postalCode",
          "type": "uint256"
        },
        {
          "name": "country",
          "type": "bytes32"
        },
        {
          "name": "phone",
          "type": "uint256"
        },
        {
          "name": "state",
          "type": "string"
        }
      ],
      "payable": false,
      "stateMutability": "view",
      "type": "function"
    },
    {
      "constant": true,
      "inputs": [
        {
          "name": "",
          "type": "address"
        },
        {
          "name": "",
          "type": "uint256"
        }
      ],
      "name": "pendingSellerOrders",
      "outputs": [
        {
          "name": "id",
          "type": "uint256"
        },
        {
          "name": "nameSurname",
          "type": "string"
        },
        {
          "name": "lineOneDirection",
          "type": "string"
        },
        {
          "name": "lineTwoDirection",
          "type": "string"
        },
        {
          "name": "city",
          "type": "bytes32"
        },
        {
          "name": "stateRegion",
          "type": "bytes32"
        },
        {
          "name": "postalCode",
          "type": "uint256"
        },
        {
          "name": "country",
          "type": "bytes32"
        },
        {
          "name": "phone",
          "type": "uint256"
        },
        {
          "name": "state",
          "type": "string"
        }
      ],
      "payable": false,
      "stateMutability": "view",
      "type": "function"
    },
    {
      "constant": true,
      "inputs": [],
      "name": "token",
      "outputs": [
        {
          "name": "",
          "type": "address"
        }
      ],
      "payable": false,
      "stateMutability": "view",
      "type": "function"
    },
    {
      "inputs": [
        {
          "name": "_token",
          "type": "address"
        }
      ],
      "payable": false,
      "stateMutability": "nonpayable",
      "type": "constructor"
    },
    {
      "constant": false,
      "inputs": [
        {
          "name": "_title",
          "type": "string"
        },
        {
          "name": "_description",
          "type": "string"
        },
        {
          "name": "_price",
          "type": "uint256"
        },
        {
          "name": "_image",
          "type": "string"
        }
      ],
      "name": "publishProduct",
      "outputs": [],
      "payable": false,
      "stateMutability": "nonpayable",
      "type": "function"
    },
    {
      "constant": false,
      "inputs": [
        {
          "name": "_id",
          "type": "uint256"
        },
        {
          "name": "_nameSurname",
          "type": "string"
        },
        {
          "name": "_lineOneDirection",
          "type": "string"
        },
        {
          "name": "_lineTwoDirection",
          "type": "string"
        },
        {
          "name": "_city",
          "type": "bytes32"
        },
        {
          "name": "_stateRegion",
          "type": "bytes32"
        },
        {
          "name": "_postalCode",
          "type": "uint256"
        },
        {
          "name": "_country",
          "type": "bytes32"
        },
        {
          "name": "_phone",
          "type": "uint256"
        }
      ],
      "name": "buyProduct",
      "outputs": [],
      "payable": true,
      "stateMutability": "payable",
      "type": "function"
    },
    {
      "constant": false,
      "inputs": [
        {
          "name": "_id",
          "type": "uint256"
        }
      ],
      "name": "markOrderCompleted",
      "outputs": [],
      "payable": false,
      "stateMutability": "nonpayable",
      "type": "function"
    },
    {
      "constant": true,
      "inputs": [
        {
          "name": "_amount",
          "type": "uint256"
        }
      ],
      "name": "getLatestProductIds",
      "outputs": [
        {
          "name": "",
          "type": "uint256[]"
        }
      ],
      "payable": false,
      "stateMutability": "view",
      "type": "function"
    },
    {
      "constant": true,
      "inputs": [
        {
          "name": "_id",
          "type": "uint256"
        }
      ],
      "name": "getProduct",
      "outputs": [
        {
          "name": "id",
          "type": "uint256"
        },
        {
          "name": "title",
          "type": "string"
        },
        {
          "name": "description",
          "type": "string"
        },
        {
          "name": "date",
          "type": "uint256"
        },
        {
          "name": "owner",
          "type": "address"
        },
        {
          "name": "price",
          "type": "uint256"
        },
        {
          "name": "image",
          "type": "string"
        }
      ],
      "payable": false,
      "stateMutability": "view",
      "type": "function"
    }
  ],
  "bytecode": "0x60806040523480156200001157600080fd5b50604051602080620062c3833981018060405260208110156200003357600080fd5b810190808051906020019092919050505080600b60006101000a81548173ffffffffffffffffffffffffffffffffffffffff021916908373ffffffffffffffffffffffffffffffffffffffff1602179055505061622d80620000966000396000f3fe608060405260043610610131576000357c010000000000000000000000000000000000000000000000000000000090048063a85c38ef116100bd578063d72b29f611610081578063d72b29f6146114d2578063df6711b014611714578063f4baa9e21461174f578063f7a5a49314611975578063fc0c546a14611bb757610131565b8063a85c38ef14610e6a578063af55ed641461108c578063b9db15b4146110df578063c1292cc3146112b3578063c1302b34146112de57610131565b80635a56740f116101045780635a56740f1461067557806368756f73146108755780637acc0b20146108a05780638d77eba514610a74578063a30b475f14610c9657610131565b806302949a0a14610136578063144a9372146101615780632e394338146101f1578063427f0e4d14610433575b600080fd5b34801561014257600080fd5b5061014b611c0e565b6040518082815260200191505060405180910390f35b34801561016d57600080fd5b5061019a6004803603602081101561018457600080fd5b8101908080359060200190929190505050611c14565b6040518080602001828103825283818151815260200191508051906020019060200280838360005b838110156101dd5780820151818401526020810190506101c2565b505050509050019250505060405180910390f35b3480156101fd57600080fd5b5061024a6004803603604081101561021457600080fd5b81019080803573ffffffffffffffffffffffffffffffffffffffff16906020019092919080359060200190929190505050611cc2565b604051808b81526020018060200180602001806020018a81526020018981526020018881526020018781526020018681526020018060200185810385528e818151815260200191508051906020019080838360005b838110156102ba57808201518184015260208101905061029f565b50505050905090810190601f1680156102e75780820380516001836020036101000a031916815260200191505b5085810384528d818151815260200191508051906020019080838360005b83811015610320578082015181840152602081019050610305565b50505050905090810190601f16801561034d5780820380516001836020036101000a031916815260200191505b5085810383528c818151815260200191508051906020019080838360005b8381101561038657808201518184015260208101905061036b565b50505050905090810190601f1680156103b35780820380516001836020036101000a031916815260200191505b50858103825286818151815260200191508051906020019080838360005b838110156103ec5780820151818401526020810190506103d1565b50505050905090810190601f1680156104195780820380516001836020036101000a031916815260200191505b509e50505050505050505050505050505060405180910390f35b34801561043f57600080fd5b5061048c6004803603604081101561045657600080fd5b81019080803573ffffffffffffffffffffffffffffffffffffffff16906020019092919080359060200190929190505050611f92565b604051808b81526020018060200180602001806020018a81526020018981526020018881526020018781526020018681526020018060200185810385528e818151815260200191508051906020019080838360005b838110156104fc5780820151818401526020810190506104e1565b50505050905090810190601f1680156105295780820380516001836020036101000a031916815260200191505b5085810384528d818151815260200191508051906020019080838360005b83811015610562578082015181840152602081019050610547565b50505050905090810190601f16801561058f5780820380516001836020036101000a031916815260200191505b5085810383528c818151815260200191508051906020019080838360005b838110156105c85780820151818401526020810190506105ad565b50505050905090810190601f1680156105f55780820380516001836020036101000a031916815260200191505b50858103825286818151815260200191508051906020019080838360005b8381101561062e578082015181840152602081019050610613565b50505050905090810190601f16801561065b5780820380516001836020036101000a031916815260200191505b509e50505050505050505050505050505060405180910390f35b34801561068157600080fd5b506108736004803603608081101561069857600080fd5b81019080803590602001906401000000008111156106b557600080fd5b8201836020820111156106c757600080fd5b803590602001918460018302840111640100000000831117156106e957600080fd5b91908080601f016020809104026020016040519081016040528093929190818152602001838380828437600081840152601f19601f8201169050808301925050505050505091929192908035906020019064010000000081111561074c57600080fd5b82018360208201111561075e57600080fd5b8035906020019184600183028401116401000000008311171561078057600080fd5b91908080601f016020809104026020016040519081016040528093929190818152602001838380828437600081840152601f19601f82011690508083019250505050505050919291929080359060200190929190803590602001906401000000008111156107ed57600080fd5b8201836020820111156107ff57600080fd5b8035906020019184600183028401116401000000008311171561082157600080fd5b91908080601f016020809104026020016040519081016040528093929190818152602001838380828437600081840152601f19601f820116905080830192505050505050509192919290505050612262565b005b34801561088157600080fd5b5061088a6128b6565b6040518082815260200191505060405180910390f35b3480156108ac57600080fd5b506108d9600480360360208110156108c357600080fd5b81019080803590602001909291905050506128bc565b6040518088815260200180602001806020018781526020018673ffffffffffffffffffffffffffffffffffffffff1673ffffffffffffffffffffffffffffffffffffffff1681526020018581526020018060200184810384528a818151815260200191508051906020019080838360005b8381101561096557808201518184015260208101905061094a565b50505050905090810190601f1680156109925780820380516001836020036101000a031916815260200191505b50848103835289818151815260200191508051906020019080838360005b838110156109cb5780820151818401526020810190506109b0565b50505050905090810190601f1680156109f85780820380516001836020036101000a031916815260200191505b50848103825285818151815260200191508051906020019080838360005b83811015610a31578082015181840152602081019050610a16565b50505050905090810190601f168015610a5e5780820380516001836020036101000a031916815260200191505b509a505050505050505050505060405180910390f35b348015610a8057600080fd5b50610aad60048036036020811015610a9757600080fd5b8101908080359060200190929190505050612af5565b604051808b81526020018060200180602001806020018a81526020018981526020018881526020018781526020018681526020018060200185810385528e818151815260200191508051906020019080838360005b83811015610b1d578082015181840152602081019050610b02565b50505050905090810190601f168015610b4a5780820380516001836020036101000a031916815260200191505b5085810384528d818151815260200191508051906020019080838360005b83811015610b83578082015181840152602081019050610b68565b50505050905090810190601f168015610bb05780820380516001836020036101000a031916815260200191505b5085810383528c818151815260200191508051906020019080838360005b83811015610be9578082015181840152602081019050610bce565b50505050905090810190601f168015610c165780820380516001836020036101000a031916815260200191505b50858103825286818151815260200191508051906020019080838360005b83811015610c4f578082015181840152602081019050610c34565b50505050905090810190601f168015610c7c5780820380516001836020036101000a031916815260200191505b509e50505050505050505050505050505060405180910390f35b348015610ca257600080fd5b50610ccf60048036036020811015610cb957600080fd5b8101908080359060200190929190505050612da9565b6040518088815260200180602001806020018781526020018673ffffffffffffffffffffffffffffffffffffffff1673ffffffffffffffffffffffffffffffffffffffff1681526020018581526020018060200184810384528a818151815260200191508051906020019080838360005b83811015610d5b578082015181840152602081019050610d40565b50505050905090810190601f168015610d885780820380516001836020036101000a031916815260200191505b50848103835289818151815260200191508051906020019080838360005b83811015610dc1578082015181840152602081019050610da6565b50505050905090810190601f168015610dee5780820380516001836020036101000a031916815260200191505b50848103825285818151815260200191508051906020019080838360005b83811015610e27578082015181840152602081019050610e0c565b50505050905090810190601f168015610e545780820380516001836020036101000a031916815260200191505b509a505050505050505050505060405180910390f35b348015610e7657600080fd5b50610ea360048036036020811015610e8d57600080fd5b8101908080359060200190929190505050612fd3565b604051808b81526020018060200180602001806020018a81526020018981526020018881526020018781526020018681526020018060200185810385528e818151815260200191508051906020019080838360005b83811015610f13578082015181840152602081019050610ef8565b50505050905090810190601f168015610f405780820380516001836020036101000a031916815260200191505b5085810384528d818151815260200191508051906020019080838360005b83811015610f79578082015181840152602081019050610f5e565b50505050905090810190601f168015610fa65780820380516001836020036101000a031916815260200191505b5085810383528c818151815260200191508051906020019080838360005b83811015610fdf578082015181840152602081019050610fc4565b50505050905090810190601f16801561100c5780820380516001836020036101000a031916815260200191505b50858103825286818151815260200191508051906020019080838360005b8381101561104557808201518184015260208101905061102a565b50505050905090810190601f1680156110725780820380516001836020036101000a031916815260200191505b509e50505050505050505050505050505060405180910390f35b34801561109857600080fd5b506110c5600480360360208110156110af57600080fd5b8101908080359060200190929190505050613296565b604051808215151515815260200191505060405180910390f35b3480156110eb57600080fd5b506111186004803603602081101561110257600080fd5b81019080803590602001909291905050506132b6565b6040518088815260200180602001806020018781526020018673ffffffffffffffffffffffffffffffffffffffff1673ffffffffffffffffffffffffffffffffffffffff1681526020018581526020018060200184810384528a818151815260200191508051906020019080838360005b838110156111a4578082015181840152602081019050611189565b50505050905090810190601f1680156111d15780820380516001836020036101000a031916815260200191505b50848103835289818151815260200191508051906020019080838360005b8381101561120a5780820151818401526020810190506111ef565b50505050905090810190601f1680156112375780820380516001836020036101000a031916815260200191505b50848103825285818151815260200191508051906020019080838360005b83811015611270578082015181840152602081019050611255565b50505050905090810190601f16801561129d5780820380516001836020036101000a031916815260200191505b509a505050505050505050505060405180910390f35b3480156112bf57600080fd5b506112c8613582565b6040518082815260200191505060405180910390f35b3480156112ea57600080fd5b506113376004803603604081101561130157600080fd5b81019080803573ffffffffffffffffffffffffffffffffffffffff16906020019092919080359060200190929190505050613588565b6040518088815260200180602001806020018781526020018673ffffffffffffffffffffffffffffffffffffffff1673ffffffffffffffffffffffffffffffffffffffff1681526020018581526020018060200184810384528a818151815260200191508051906020019080838360005b838110156113c35780820151818401526020810190506113a8565b50505050905090810190601f1680156113f05780820380516001836020036101000a031916815260200191505b50848103835289818151815260200191508051906020019080838360005b8381101561142957808201518184015260208101905061140e565b50505050905090810190601f1680156114565780820380516001836020036101000a031916815260200191505b50848103825285818151815260200191508051906020019080838360005b8381101561148f578082015181840152602081019050611474565b50505050905090810190601f1680156114bc5780820380516001836020036101000a031916815260200191505b509a505050505050505050505060405180910390f35b3480156114de57600080fd5b5061152b600480360360408110156114f557600080fd5b81019080803573ffffffffffffffffffffffffffffffffffffffff169060200190929190803590602001909291905050506137ce565b604051808b81526020018060200180602001806020018a81526020018981526020018881526020018781526020018681526020018060200185810385528e818151815260200191508051906020019080838360005b8381101561159b578082015181840152602081019050611580565b50505050905090810190601f1680156115c85780820380516001836020036101000a031916815260200191505b5085810384528d818151815260200191508051906020019080838360005b838110156116015780820151818401526020810190506115e6565b50505050905090810190601f16801561162e5780820380516001836020036101000a031916815260200191505b5085810383528c818151815260200191508051906020019080838360005b8381101561166757808201518184015260208101905061164c565b50505050905090810190601f1680156116945780820380516001836020036101000a031916815260200191505b50858103825286818151815260200191508051906020019080838360005b838110156116cd5780820151818401526020810190506116b2565b50505050905090810190601f1680156116fa5780820380516001836020036101000a031916815260200191505b509e50505050505050505050505050505060405180910390f35b34801561172057600080fd5b5061174d6004803603602081101561173757600080fd5b8101908080359060200190929190505050613a9e565b005b611973600480360361012081101561176657600080fd5b81019080803590602001909291908035906020019064010000000081111561178d57600080fd5b82018360208201111561179f57600080fd5b803590602001918460018302840111640100000000831117156117c157600080fd5b91908080601f016020809104026020016040519081016040528093929190818152602001838380828437600081840152601f19601f8201169050808301925050505050505091929192908035906020019064010000000081111561182457600080fd5b82018360208201111561183657600080fd5b8035906020019184600183028401116401000000008311171561185857600080fd5b91908080601f016020809104026020016040519081016040528093929190818152602001838380828437600081840152601f19601f820116905080830192505050505050509192919290803590602001906401000000008111156118bb57600080fd5b8201836020820111156118cd57600080fd5b803590602001918460018302840111640100000000831117156118ef57600080fd5b91908080601f016020809104026020016040519081016040528093929190818152602001838380828437600081840152601f19601f8201169050808301925050505050505091929192908035906020019092919080359060200190929190803590602001909291908035906020019092919080359060200190929190505050614e54565b005b34801561198157600080fd5b506119ce6004803603604081101561199857600080fd5b81019080803573ffffffffffffffffffffffffffffffffffffffff16906020019092919080359060200190929190505050615bfa565b604051808b81526020018060200180602001806020018a81526020018981526020018881526020018781526020018681526020018060200185810385528e818151815260200191508051906020019080838360005b83811015611a3e578082015181840152602081019050611a23565b50505050905090810190601f168015611a6b5780820380516001836020036101000a031916815260200191505b5085810384528d818151815260200191508051906020019080838360005b83811015611aa4578082015181840152602081019050611a89565b50505050905090810190601f168015611ad15780820380516001836020036101000a031916815260200191505b5085810383528c818151815260200191508051906020019080838360005b83811015611b0a578082015181840152602081019050611aef565b50505050905090810190601f168015611b375780820380516001836020036101000a031916815260200191505b50858103825286818151815260200191508051906020019080838360005b83811015611b70578082015181840152602081019050611b55565b50505050905090810190601f168015611b9d5780820380516001836020036101000a031916815260200191505b509e50505050505050505050505050505060405180910390f35b348015611bc357600080fd5b50611bcc615eca565b604051808273ffffffffffffffffffffffffffffffffffffffff1673ffffffffffffffffffffffffffffffffffffffff16815260200191505060405180910390f35b600d5481565b6060600060088054905090506000818411611c2f5781611c31565b835b90506060828511611c425782611c44565b845b604051908082528060200260200182016040528015611c725781602001602082028038833980820191505090505b509050600080905060008390505b600081121515611cb557808383815181101515611c9957fe5b9060200190602002018181525050808060019003915050611c80565b5081945050505050919050565b600360205281600052604060002081815481101515611cdd57fe5b90600052602060002090600a020160009150915050806000015490806001018054600181600116156101000203166002900480601f016020809104026020016040519081016040528092919081815260200182805460018160011615610100020316600290048015611d905780601f10611d6557610100808354040283529160200191611d90565b820191906000526020600020905b815481529060010190602001808311611d7357829003601f168201915b505050505090806002018054600181600116156101000203166002900480601f016020809104026020016040519081016040528092919081815260200182805460018160011615610100020316600290048015611e2e5780601f10611e0357610100808354040283529160200191611e2e565b820191906000526020600020905b815481529060010190602001808311611e1157829003601f168201915b505050505090806003018054600181600116156101000203166002900480601f016020809104026020016040519081016040528092919081815260200182805460018160011615610100020316600290048015611ecc5780601f10611ea157610100808354040283529160200191611ecc565b820191906000526020600020905b815481529060010190602001808311611eaf57829003601f168201915b505050505090806004015490806005015490806006015490806007015490806008015490806009018054600181600116156101000203166002900480601f016020809104026020016040519081016040528092919081815260200182805460018160011615610100020316600290048015611f885780601f10611f5d57610100808354040283529160200191611f88565b820191906000526020600020905b815481529060010190602001808311611f6b57829003601f168201915b505050505090508a565b600460205281600052604060002081815481101515611fad57fe5b90600052602060002090600a020160009150915050806000015490806001018054600181600116156101000203166002900480601f0160208091040260200160405190810160405280929190818152602001828054600181600116156101000203166002900480156120605780601f1061203557610100808354040283529160200191612060565b820191906000526020600020905b81548152906001019060200180831161204357829003601f168201915b505050505090806002018054600181600116156101000203166002900480601f0160208091040260200160405190810160405280929190818152602001828054600181600116156101000203166002900480156120fe5780601f106120d3576101008083540402835291602001916120fe565b820191906000526020600020905b8154815290600101906020018083116120e157829003601f168201915b505050505090806003018054600181600116156101000203166002900480601f01602080910402602001604051908101604052809291908181526020018280546001816001161561010002031660029004801561219c5780601f106121715761010080835404028352916020019161219c565b820191906000526020600020905b81548152906001019060200180831161217f57829003601f168201915b505050505090806004015490806005015490806006015490806007015490806008015490806009018054600181600116156101000203166002900480601f0160208091040260200160405190810160405280929190818152602001828054600181600116156101000203166002900480156122585780601f1061222d57610100808354040283529160200191612258565b820191906000526020600020905b81548152906001019060200180831161223b57829003601f168201915b505050505090508a565b600084511115156122db576040517f08c379a00000000000000000000000000000000000000000000000000000000081526004018080602001828103825260198152602001807f546865207469746c652063616e6e6f7420626520656d7074790000000000000081525060200191505060405180910390fd5b60008351111515612354576040517f08c379a000000000000000000000000000000000000000000000000000000000815260040180806020018281038252601f8152602001807f546865206465736372697074696f6e2063616e6e6f7420626520656d7074790081525060200191505060405180910390fd5b6000821115156123cc576040517f08c379a00000000000000000000000000000000000000000000000000000000081526004018080602001828103825260198152602001807f5468652070726963652063616e6e6f7420626520656d7074790000000000000081525060200191505060405180910390fd5b60008151111515612445576040517f08c379a00000000000000000000000000000000000000000000000000000000081526004018080602001828103825260198152602001807f54686520696d6167652063616e6e6f7420626520656d7074790000000000000081525060200191505060405180910390fd5b61244d615ef0565b60e060405190810160405280600a5481526020018681526020018581526020014281526020013373ffffffffffffffffffffffffffffffffffffffff168152602001670de0b6b3a764000085028152602001838152509050600881908060018154018082558091505090600182039060005260206000209060070201600090919290919091506000820151816000015560208201518160010190805190602001906124f9929190615f44565b506040820151816002019080519060200190612516929190615f44565b506060820151816003015560808201518160040160006101000a81548173ffffffffffffffffffffffffffffffffffffffff021916908373ffffffffffffffffffffffffffffffffffffffff16021790555060a0820151816005015560c082015181600601908051906020019061258e929190615f44565b505050506000803373ffffffffffffffffffffffffffffffffffffffff1673ffffffffffffffffffffffffffffffffffffffff1681526020019081526020016000208190806001815401808255809150509060018203906000526020600020906007020160009091929091909150600082015181600001556020820151816001019080519060200190612622929190615f44565b50604082015181600201908051906020019061263f929190615f44565b506060820151816003015560808201518160040160006101000a81548173ffffffffffffffffffffffffffffffffffffffff021916908373ffffffffffffffffffffffffffffffffffffffff16021790555060a0820151816005015560c08201518160060190805190602001906126b7929190615f44565b505050508060056000600a5481526020019081526020016000206000820151816000015560208201518160010190805190602001906126f7929190615f44565b506040820151816002019080519060200190612714929190615f44565b506060820151816003015560808201518160040160006101000a81548173ffffffffffffffffffffffffffffffffffffffff021916908373ffffffffffffffffffffffffffffffffffffffff16021790555060a0820151816005015560c082015181600601908051906020019061278c929190615f44565b50905050600160076000600a54815260200190815260200160002060006101000a81548160ff021916908315150217905550600b60009054906101000a900473ffffffffffffffffffffffffffffffffffffffff1673ffffffffffffffffffffffffffffffffffffffff166340c10f1930600a546040518363ffffffff167c0100000000000000000000000000000000000000000000000000000000028152600401808373ffffffffffffffffffffffffffffffffffffffff1673ffffffffffffffffffffffffffffffffffffffff16815260200182815260200192505050600060405180830381600087803b15801561288557600080fd5b505af1158015612899573d6000803e3d6000fd5b50505050600a600081548092919060010191905055505050505050565b600c5481565b6008818154811015156128cb57fe5b9060005260206000209060070201600091509050806000015490806001018054600181600116156101000203166002900480601f01602080910402602001604051908101604052809291908181526020018280546001816001161561010002031660029004801561297d5780601f106129525761010080835404028352916020019161297d565b820191906000526020600020905b81548152906001019060200180831161296057829003601f168201915b505050505090806002018054600181600116156101000203166002900480601f016020809104026020016040519081016040528092919081815260200182805460018160011615610100020316600290048015612a1b5780601f106129f057610100808354040283529160200191612a1b565b820191906000526020600020905b8154815290600101906020018083116129fe57829003601f168201915b5050505050908060030154908060040160009054906101000a900473ffffffffffffffffffffffffffffffffffffffff1690806005015490806006018054600181600116156101000203166002900480601f016020809104026020016040519081016040528092919081815260200182805460018160011615610100020316600290048015612aeb5780601f10612ac057610100808354040283529160200191612aeb565b820191906000526020600020905b815481529060010190602001808311612ace57829003601f168201915b5050505050905087565b6006602052806000526040600020600091509050806000015490806001018054600181600116156101000203166002900480601f016020809104026020016040519081016040528092919081815260200182805460018160011615610100020316600290048015612ba75780601f10612b7c57610100808354040283529160200191612ba7565b820191906000526020600020905b815481529060010190602001808311612b8a57829003601f168201915b505050505090806002018054600181600116156101000203166002900480601f016020809104026020016040519081016040528092919081815260200182805460018160011615610100020316600290048015612c455780601f10612c1a57610100808354040283529160200191612c45565b820191906000526020600020905b815481529060010190602001808311612c2857829003601f168201915b505050505090806003018054600181600116156101000203166002900480601f016020809104026020016040519081016040528092919081815260200182805460018160011615610100020316600290048015612ce35780601f10612cb857610100808354040283529160200191612ce3565b820191906000526020600020905b815481529060010190602001808311612cc657829003601f168201915b505050505090806004015490806005015490806006015490806007015490806008015490806009018054600181600116156101000203166002900480601f016020809104026020016040519081016040528092919081815260200182805460018160011615610100020316600290048015612d9f5780601f10612d7457610100808354040283529160200191612d9f565b820191906000526020600020905b815481529060010190602001808311612d8257829003601f168201915b505050505090508a565b6005602052806000526040600020600091509050806000015490806001018054600181600116156101000203166002900480601f016020809104026020016040519081016040528092919081815260200182805460018160011615610100020316600290048015612e5b5780601f10612e3057610100808354040283529160200191612e5b565b820191906000526020600020905b815481529060010190602001808311612e3e57829003601f168201915b505050505090806002018054600181600116156101000203166002900480601f016020809104026020016040519081016040528092919081815260200182805460018160011615610100020316600290048015612ef95780601f10612ece57610100808354040283529160200191612ef9565b820191906000526020600020905b815481529060010190602001808311612edc57829003601f168201915b5050505050908060030154908060040160009054906101000a900473ffffffffffffffffffffffffffffffffffffffff1690806005015490806006018054600181600116156101000203166002900480601f016020809104026020016040519081016040528092919081815260200182805460018160011615610100020316600290048015612fc95780601f10612f9e57610100808354040283529160200191612fc9565b820191906000526020600020905b815481529060010190602001808311612fac57829003601f168201915b5050505050905087565b600981815481101515612fe257fe5b90600052602060002090600a0201600091509050806000015490806001018054600181600116156101000203166002900480601f0160208091040260200160405190810160405280929190818152602001828054600181600116156101000203166002900480156130945780601f1061306957610100808354040283529160200191613094565b820191906000526020600020905b81548152906001019060200180831161307757829003601f168201915b505050505090806002018054600181600116156101000203166002900480601f0160208091040260200160405190810160405280929190818152602001828054600181600116156101000203166002900480156131325780601f1061310757610100808354040283529160200191613132565b820191906000526020600020905b81548152906001019060200180831161311557829003601f168201915b505050505090806003018054600181600116156101000203166002900480601f0160208091040260200160405190810160405280929190818152602001828054600181600116156101000203166002900480156131d05780601f106131a5576101008083540402835291602001916131d0565b820191906000526020600020905b8154815290600101906020018083116131b357829003601f168201915b505050505090806004015490806005015490806006015490806007015490806008015490806009018054600181600116156101000203166002900480601f01602080910402602001604051908101604052809291908181526020018280546001816001161561010002031660029004801561328c5780601f106132615761010080835404028352916020019161328c565b820191906000526020600020905b81548152906001019060200180831161326f57829003601f168201915b505050505090508a565b60076020528060005260406000206000915054906101000a900460ff1681565b6000606080600080600060606132ca615ef0565b600560008a815260200190815260200160002060e0604051908101604052908160008201548152602001600182018054600181600116156101000203166002900480601f01602080910402602001604051908101604052809291908181526020018280546001816001161561010002031660029004801561338c5780601f106133615761010080835404028352916020019161338c565b820191906000526020600020905b81548152906001019060200180831161336f57829003601f168201915b50505050508152602001600282018054600181600116156101000203166002900480601f01602080910402602001604051908101604052809291908181526020018280546001816001161561010002031660029004801561342e5780601f106134035761010080835404028352916020019161342e565b820191906000526020600020905b81548152906001019060200180831161341157829003601f168201915b50505050508152602001600382015481526020016004820160009054906101000a900473ffffffffffffffffffffffffffffffffffffffff1673ffffffffffffffffffffffffffffffffffffffff1673ffffffffffffffffffffffffffffffffffffffff16815260200160058201548152602001600682018054600181600116156101000203166002900480601f01602080910402602001604051908101604052809291908181526020018280546001816001161561010002031660029004801561353a5780601f1061350f5761010080835404028352916020019161353a565b820191906000526020600020905b81548152906001019060200180831161351d57829003601f168201915b505050505081525050905080600001519750806020015196508060400151955080606001519450806080015193508060a0015192508060c00151915050919395979092949650565b600a5481565b6000602052816000526040600020818154811015156135a357fe5b906000526020600020906007020160009150915050806000015490806001018054600181600116156101000203166002900480601f0160208091040260200160405190810160405280929190818152602001828054600181600116156101000203166002900480156136565780601f1061362b57610100808354040283529160200191613656565b820191906000526020600020905b81548152906001019060200180831161363957829003601f168201915b505050505090806002018054600181600116156101000203166002900480601f0160208091040260200160405190810160405280929190818152602001828054600181600116156101000203166002900480156136f45780601f106136c9576101008083540402835291602001916136f4565b820191906000526020600020905b8154815290600101906020018083116136d757829003601f168201915b5050505050908060030154908060040160009054906101000a900473ffffffffffffffffffffffffffffffffffffffff1690806005015490806006018054600181600116156101000203166002900480601f0160208091040260200160405190810160405280929190818152602001828054600181600116156101000203166002900480156137c45780601f10613799576101008083540402835291602001916137c4565b820191906000526020600020905b8154815290600101906020018083116137a757829003601f168201915b5050505050905087565b6002602052816000526040600020818154811015156137e957fe5b90600052602060002090600a020160009150915050806000015490806001018054600181600116156101000203166002900480601f01602080910402602001604051908101604052809291908181526020018280546001816001161561010002031660029004801561389c5780601f106138715761010080835404028352916020019161389c565b820191906000526020600020905b81548152906001019060200180831161387f57829003601f168201915b505050505090806002018054600181600116156101000203166002900480601f01602080910402602001604051908101604052809291908181526020018280546001816001161561010002031660029004801561393a5780601f1061390f5761010080835404028352916020019161393a565b820191906000526020600020905b81548152906001019060200180831161391d57829003601f168201915b505050505090806003018054600181600116156101000203166002900480601f0160208091040260200160405190810160405280929190818152602001828054600181600116156101000203166002900480156139d85780601f106139ad576101008083540402835291602001916139d8565b820191906000526020600020905b8154815290600101906020018083116139bb57829003601f168201915b505050505090806004015490806005015490806006015490806007015490806008015490806009018054600181600116156101000203166002900480601f016020809104026020016040519081016040528092919081815260200182805460018160011615610100020316600290048015613a945780601f10613a6957610100808354040283529160200191613a94565b820191906000526020600020905b815481529060010190602001808311613a7757829003601f168201915b505050505090508a565b613aa6615fc4565b60066000838152602001908152602001600020610140604051908101604052908160008201548152602001600182018054600181600116156101000203166002900480601f016020809104026020016040519081016040528092919081815260200182805460018160011615610100020316600290048015613b695780601f10613b3e57610100808354040283529160200191613b69565b820191906000526020600020905b815481529060010190602001808311613b4c57829003601f168201915b50505050508152602001600282018054600181600116156101000203166002900480601f016020809104026020016040519081016040528092919081815260200182805460018160011615610100020316600290048015613c0b5780601f10613be057610100808354040283529160200191613c0b565b820191906000526020600020905b815481529060010190602001808311613bee57829003601f168201915b50505050508152602001600382018054600181600116156101000203166002900480601f016020809104026020016040519081016040528092919081815260200182805460018160011615610100020316600290048015613cad5780601f10613c8257610100808354040283529160200191613cad565b820191906000526020600020905b815481529060010190602001808311613c9057829003601f168201915b505050505081526020016004820154815260200160058201548152602001600682015481526020016007820154815260200160088201548152602001600982018054600181600116156101000203166002900480601f016020809104026020016040519081016040528092919081815260200182805460018160011615610100020316600290048015613d815780601f10613d5657610100808354040283529160200191613d81565b820191906000526020600020905b815481529060010190602001808311613d6457829003601f168201915b5050505050815250509050613d94615ef0565b6005600084815260200190815260200160002060e0604051908101604052908160008201548152602001600182018054600181600116156101000203166002900480601f016020809104026020016040519081016040528092919081815260200182805460018160011615610100020316600290048015613e565780601f10613e2b57610100808354040283529160200191613e56565b820191906000526020600020905b815481529060010190602001808311613e3957829003601f168201915b50505050508152602001600282018054600181600116156101000203166002900480601f016020809104026020016040519081016040528092919081815260200182805460018160011615610100020316600290048015613ef85780601f10613ecd57610100808354040283529160200191613ef8565b820191906000526020600020905b815481529060010190602001808311613edb57829003601f168201915b50505050508152602001600382015481526020016004820160009054906101000a900473ffffffffffffffffffffffffffffffffffffffff1673ffffffffffffffffffffffffffffffffffffffff1673ffffffffffffffffffffffffffffffffffffffff16815260200160058201548152602001600682018054600181600116156101000203166002900480601f0160208091040260200160405190810160405280929190818152602001828054600181600116156101000203166002900480156140045780601f10613fd957610100808354040283529160200191614004565b820191906000526020600020905b815481529060010190602001808311613fe757829003601f168201915b50505050508152505090503373ffffffffffffffffffffffffffffffffffffffff16816080015173ffffffffffffffffffffffffffffffffffffffff16141515614099576040517f08c379a000000000000000000000000000000000000000000000000000000000815260040180806020018281038252602f815260200180616150602f913960400191505060405180910390fd5b6040805190810160405280600981526020017f636f6d706c65746564000000000000000000000000000000000000000000000081525082610120018190525060008090505b60016000836080015173ffffffffffffffffffffffffffffffffffffffff1673ffffffffffffffffffffffffffffffffffffffff16815260200190815260200160002080549050811015614612578360016000846080015173ffffffffffffffffffffffffffffffffffffffff1673ffffffffffffffffffffffffffffffffffffffff1681526020019081526020016000208281548110151561417d57fe5b90600052602060002090600a02016000015414156146055761419d615fc4565b60066000600c548152602001908152602001600020610140604051908101604052908160008201548152602001600182018054600181600116156101000203166002900480601f0160208091040260200160405190810160405280929190818152602001828054600181600116156101000203166002900480156142625780601f1061423757610100808354040283529160200191614262565b820191906000526020600020905b81548152906001019060200180831161424557829003601f168201915b50505050508152602001600282018054600181600116156101000203166002900480601f0160208091040260200160405190810160405280929190818152602001828054600181600116156101000203166002900480156143045780601f106142d957610100808354040283529160200191614304565b820191906000526020600020905b8154815290600101906020018083116142e757829003601f168201915b50505050508152602001600382018054600181600116156101000203166002900480601f0160208091040260200160405190810160405280929190818152602001828054600181600116156101000203166002900480156143a65780601f1061437b576101008083540402835291602001916143a6565b820191906000526020600020905b81548152906001019060200180831161438957829003601f168201915b505050505081526020016004820154815260200160058201548152602001600682015481526020016007820154815260200160088201548152602001600982018054600181600116156101000203166002900480601f01602080910402602001604051908101604052809291908181526020018280546001816001161561010002031660029004801561447a5780601f1061444f5761010080835404028352916020019161447a565b820191906000526020600020905b81548152906001019060200180831161445d57829003601f168201915b50505050508152505090508060016000856080015173ffffffffffffffffffffffffffffffffffffffff1673ffffffffffffffffffffffffffffffffffffffff168152602001908152602001600020838154811015156144d657fe5b90600052602060002090600a020160008201518160000155602082015181600101908051906020019061450a929190615f44565b506040820151816002019080519060200190614527929190615f44565b506060820151816003019080519060200190614544929190615f44565b506080820151816004015560a0820151816005015560c0820151816006015560e082015181600701556101008201518160080155610120820151816009019080519060200190614595929190615f44565b5090505060016000846080015173ffffffffffffffffffffffffffffffffffffffff1673ffffffffffffffffffffffffffffffffffffffff1681526020019081526020016000208054809190600190036145ef9190616021565b50600c6000815480929190600190039190505550505b80806001019150506140de565b5060008090505b600260003373ffffffffffffffffffffffffffffffffffffffff1673ffffffffffffffffffffffffffffffffffffffff16815260200190815260200160002080549050811015614b41578260000151600260003373ffffffffffffffffffffffffffffffffffffffff1673ffffffffffffffffffffffffffffffffffffffff168152602001908152602001600020828154811015156146b457fe5b90600052602060002090600a0201600001541415614b34576146d4615fc4565b60066000600d548152602001908152602001600020610140604051908101604052908160008201548152602001600182018054600181600116156101000203166002900480601f0160208091040260200160405190810160405280929190818152602001828054600181600116156101000203166002900480156147995780601f1061476e57610100808354040283529160200191614799565b820191906000526020600020905b81548152906001019060200180831161477c57829003601f168201915b50505050508152602001600282018054600181600116156101000203166002900480601f01602080910402602001604051908101604052809291908181526020018280546001816001161561010002031660029004801561483b5780601f106148105761010080835404028352916020019161483b565b820191906000526020600020905b81548152906001019060200180831161481e57829003601f168201915b50505050508152602001600382018054600181600116156101000203166002900480601f0160208091040260200160405190810160405280929190818152602001828054600181600116156101000203166002900480156148dd5780601f106148b2576101008083540402835291602001916148dd565b820191906000526020600020905b8154815290600101906020018083116148c057829003601f168201915b505050505081526020016004820154815260200160058201548152602001600682015481526020016007820154815260200160088201548152602001600982018054600181600116156101000203166002900480601f0160208091040260200160405190810160405280929190818152602001828054600181600116156101000203166002900480156149b15780601f10614986576101008083540402835291602001916149b1565b820191906000526020600020905b81548152906001019060200180831161499457829003601f168201915b505050505081525050905080600260003373ffffffffffffffffffffffffffffffffffffffff1673ffffffffffffffffffffffffffffffffffffffff16815260200190815260200160002083815481101515614a0957fe5b90600052602060002090600a0201600082015181600001556020820151816001019080519060200190614a3d929190615f44565b506040820151816002019080519060200190614a5a929190615f44565b506060820151816003019080519060200190614a77929190615f44565b506080820151816004015560a0820151816005015560c0820151816006015560e082015181600701556101008201518160080155610120820151816009019080519060200190614ac8929190615f44565b50905050600260003373ffffffffffffffffffffffffffffffffffffffff1673ffffffffffffffffffffffffffffffffffffffff168152602001908152602001600020805480919060019003614b1e9190616021565b50600d6000815480929190600190039190505550505b8080600101915050614619565b5060036000826080015173ffffffffffffffffffffffffffffffffffffffff1673ffffffffffffffffffffffffffffffffffffffff168152602001908152602001600020829080600181540180825580915050906001820390600052602060002090600a020160009091929091909150600082015181600001556020820151816001019080519060200190614bd7929190615f44565b506040820151816002019080519060200190614bf4929190615f44565b506060820151816003019080519060200190614c11929190615f44565b506080820151816004015560a0820151816005015560c0820151816006015560e082015181600701556101008201518160080155610120820151816009019080519060200190614c62929190615f44565b50505050600460003373ffffffffffffffffffffffffffffffffffffffff1673ffffffffffffffffffffffffffffffffffffffff168152602001908152602001600020829080600181540180825580915050906001820390600052602060002090600a020160009091929091909150600082015181600001556020820151816001019080519060200190614cf7929190615f44565b506040820151816002019080519060200190614d14929190615f44565b506060820151816003019080519060200190614d31929190615f44565b506080820151816004015560a0820151816005015560c0820151816006015560e082015181600701556101008201518160080155610120820151816009019080519060200190614d82929190615f44565b505050508160066000858152602001908152602001600020600082015181600001556020820151816001019080519060200190614dc0929190615f44565b506040820151816002019080519060200190614ddd929190615f44565b506060820151816003019080519060200190614dfa929190615f44565b506080820151816004015560a0820151816005015560c0820151816006015560e082015181600701556101008201518160080155610120820151816009019080519060200190614e4b929190615f44565b50905050505050565b600760008a815260200190815260200160002060009054906101000a900460ff161515614ecc576040517f08c379a000000000000000000000000000000000000000000000000000000000815260040180806020018281038252602681526020018061617f6026913960400191505060405180910390fd5b60008851111515614f45576040517f08c379a00000000000000000000000000000000000000000000000000000000081526004018080602001828103825260208152602001807f546865206e616d6520616e64207375726e616d65206d7573742062652073657481525060200191505060405180910390fd5b60008751111515614fa1576040517f08c379a00000000000000000000000000000000000000000000000000000000081526004018080602001828103825260228152602001806161a56022913960400191505060405180910390fd5b6000602060ff1611151561501d576040517f08c379a00000000000000000000000000000000000000000000000000000000081526004018080602001828103825260148152602001807f5468652063697479206d7573742062652073657400000000000000000000000081525060200191505060405180910390fd5b6000602060ff16111515615099576040517f08c379a000000000000000000000000000000000000000000000000000000000815260040180806020018281038252601f8152602001807f546865207374617465206f7220726567696f6e206d757374206265207365740081525060200191505060405180910390fd5b600083111515615111576040517f08c379a000000000000000000000000000000000000000000000000000000000815260040180806020018281038252601b8152602001807f54686520706f7374616c20636f6465206d75737420626520736574000000000081525060200191505060405180910390fd5b60006001028211151561518c576040517f08c379a00000000000000000000000000000000000000000000000000000000081526004018080602001828103825260178152602001807f54686520636f756e747279206d7573742062652073657400000000000000000081525060200191505060405180910390fd5b615194615ef0565b600560008b815260200190815260200160002060e0604051908101604052908160008201548152602001600182018054600181600116156101000203166002900480601f0160208091040260200160405190810160405280929190818152602001828054600181600116156101000203166002900480156152565780601f1061522b57610100808354040283529160200191615256565b820191906000526020600020905b81548152906001019060200180831161523957829003601f168201915b50505050508152602001600282018054600181600116156101000203166002900480601f0160208091040260200160405190810160405280929190818152602001828054600181600116156101000203166002900480156152f85780601f106152cd576101008083540402835291602001916152f8565b820191906000526020600020905b8154815290600101906020018083116152db57829003601f168201915b50505050508152602001600382015481526020016004820160009054906101000a900473ffffffffffffffffffffffffffffffffffffffff1673ffffffffffffffffffffffffffffffffffffffff1673ffffffffffffffffffffffffffffffffffffffff16815260200160058201548152602001600682018054600181600116156101000203166002900480601f0160208091040260200160405190810160405280929190818152602001828054600181600116156101000203166002900480156154045780601f106153d957610100808354040283529160200191615404565b820191906000526020600020905b8154815290600101906020018083116153e757829003601f168201915b5050505050815250509050615417615fc4565b610140604051908101604052808c81526020018b81526020018a81526020018981526020018881526020018781526020018681526020018581526020018481526020016040805190810160405280600781526020017f70656e64696e670000000000000000000000000000000000000000000000000081525081525090508160a0015134101515156154f4576040517f08c379a000000000000000000000000000000000000000000000000000000000815260040180806020018281038252603b8152602001806161c7603b913960400191505060405180910390fd5b8160a0015134111561554e573373ffffffffffffffffffffffffffffffffffffffff166108fc8360a0015134039081150290604051600060405180830381858888f1935050505015801561554c573d6000803e3d6000fd5b505b60016000836080015173ffffffffffffffffffffffffffffffffffffffff1673ffffffffffffffffffffffffffffffffffffffff168152602001908152602001600020819080600181540180825580915050906001820390600052602060002090600a0201600090919290919091506000820151816000015560208201518160010190805190602001906155e3929190615f44565b506040820151816002019080519060200190615600929190615f44565b50606082015181600301908051906020019061561d929190615f44565b506080820151816004015560a0820151816005015560c0820151816006015560e08201518160070155610100820151816008015561012082015181600901908051906020019061566e929190615f44565b50505050600260003373ffffffffffffffffffffffffffffffffffffffff1673ffffffffffffffffffffffffffffffffffffffff168152602001908152602001600020819080600181540180825580915050906001820390600052602060002090600a020160009091929091909150600082015181600001556020820151816001019080519060200190615703929190615f44565b506040820151816002019080519060200190615720929190615f44565b50606082015181600301908051906020019061573d929190615f44565b506080820151816004015560a0820151816005015560c0820151816006015560e08201518160070155610100820151816008015561012082015181600901908051906020019061578e929190615f44565b505050506009819080600181540180825580915050906001820390600052602060002090600a0201600090919290919091506000820151816000015560208201518160010190805190602001906157e6929190615f44565b506040820151816002019080519060200190615803929190615f44565b506060820151816003019080519060200190615820929190615f44565b506080820151816004015560a0820151816005015560c0820151816006015560e082015181600701556101008201518160080155610120820151816009019080519060200190615871929190615f44565b5050505080600660008d81526020019081526020016000206000820151816000015560208201518160010190805190602001906158af929190615f44565b5060408201518160020190805190602001906158cc929190615f44565b5060608201518160030190805190602001906158e9929190615f44565b506080820151816004015560a0820151816005015560c0820151816006015560e08201518160070155610100820151816008015561012082015181600901908051906020019061593a929190615f44565b50905050600060016000846080015173ffffffffffffffffffffffffffffffffffffffff1673ffffffffffffffffffffffffffffffffffffffff16815260200190815260200160002080549050116159935760006159dd565b6001806000846080015173ffffffffffffffffffffffffffffffffffffffff1673ffffffffffffffffffffffffffffffffffffffff16815260200190815260200160002080549050035b600c81905550600060026000846080015173ffffffffffffffffffffffffffffffffffffffff1673ffffffffffffffffffffffffffffffffffffffff1681526020019081526020016000208054905011615a38576000615a83565b600160026000846080015173ffffffffffffffffffffffffffffffffffffffff1673ffffffffffffffffffffffffffffffffffffffff16815260200190815260200160002080549050035b600d81905550600b60009054906101000a900473ffffffffffffffffffffffffffffffffffffffff1673ffffffffffffffffffffffffffffffffffffffff166323b872dd8360800151338e6040518463ffffffff167c0100000000000000000000000000000000000000000000000000000000028152600401808473ffffffffffffffffffffffffffffffffffffffff1673ffffffffffffffffffffffffffffffffffffffff1681526020018373ffffffffffffffffffffffffffffffffffffffff1673ffffffffffffffffffffffffffffffffffffffff1681526020018281526020019350505050600060405180830381600087803b158015615b8657600080fd5b505af1158015615b9a573d6000803e3d6000fd5b50505050816080015173ffffffffffffffffffffffffffffffffffffffff166108fc8360a001519081150290604051600060405180830381858888f19350505050158015615bec573d6000803e3d6000fd5b505050505050505050505050565b600160205281600052604060002081815481101515615c1557fe5b90600052602060002090600a020160009150915050806000015490806001018054600181600116156101000203166002900480601f016020809104026020016040519081016040528092919081815260200182805460018160011615610100020316600290048015615cc85780601f10615c9d57610100808354040283529160200191615cc8565b820191906000526020600020905b815481529060010190602001808311615cab57829003601f168201915b505050505090806002018054600181600116156101000203166002900480601f016020809104026020016040519081016040528092919081815260200182805460018160011615610100020316600290048015615d665780601f10615d3b57610100808354040283529160200191615d66565b820191906000526020600020905b815481529060010190602001808311615d4957829003601f168201915b505050505090806003018054600181600116156101000203166002900480601f016020809104026020016040519081016040528092919081815260200182805460018160011615610100020316600290048015615e045780601f10615dd957610100808354040283529160200191615e04565b820191906000526020600020905b815481529060010190602001808311615de757829003601f168201915b505050505090806004015490806005015490806006015490806007015490806008015490806009018054600181600116156101000203166002900480601f016020809104026020016040519081016040528092919081815260200182805460018160011615610100020316600290048015615ec05780601f10615e9557610100808354040283529160200191615ec0565b820191906000526020600020905b815481529060010190602001808311615ea357829003601f168201915b505050505090508a565b600b60009054906101000a900473ffffffffffffffffffffffffffffffffffffffff1681565b60e06040519081016040528060008152602001606081526020016060815260200160008152602001600073ffffffffffffffffffffffffffffffffffffffff16815260200160008152602001606081525090565b828054600181600116156101000203166002900490600052602060002090601f016020900481019282601f10615f8557805160ff1916838001178555615fb3565b82800160010185558215615fb3579182015b82811115615fb2578251825591602001919060010190615f97565b5b509050615fc09190616053565b5090565b61014060405190810160405280600081526020016060815260200160608152602001606081526020016000801916815260200160008019168152602001600081526020016000801916815260200160008152602001606081525090565b81548183558181111561604e57600a0281600a02836000526020600020918201910161604d9190616078565b5b505050565b61607591905b80821115616071576000816000905550600101616059565b5090565b90565b61610491905b808211156161005760008082016000905560018201600061609f9190616107565b6002820160006160af9190616107565b6003820160006160bf9190616107565b600482016000905560058201600090556006820160009055600782016000905560088201600090556009820160006160f79190616107565b50600a0161607e565b5090565b90565b50805460018160011615610100020316600290046000825580601f1061612d575061614c565b601f01602090049060005260206000209081019061614b9190616053565b5b5056fe4f6e6c79207468652073656c6c65722063616e206d61726b20746865206f7264657220617320636f6d706c657465645468652070726f64756374206d75737420657869737420746f20626520707572636861736564546865206c696e65206f6e6520646972656374696f6e206d75737420626520736574546865207061796d656e74206d757374206265206c6172676572206f7220657175616c207468616e207468652070726f6475637473207072696365a165627a7a72305820d4c9f8c1b28f0798795f09fec5f5c332e73e2d02ed9791c50c8ec3b748d6a0820029",
  "source": "pragma solidity ^0.5.0;\n\nimport './ERC721.sol';\n\n/// @notice The Ecommerce Token that implements the ERC721 token with mint function\n/// @author Merunas Grincalaitis <merunasgrincalaitis@gmail.com>\ncontract EcommerceToken is ERC721 {\n    address public ecommerce;\n    bool public isEcommerceSet = false;\n    /// @notice To generate a new token for the specified address\n    /// @param _to The receiver of this new token\n    /// @param _tokenId The new token id, must be unique\n    function mint(address _to, uint256 _tokenId) public {\n        require(msg.sender == ecommerce, 'Only the ecommerce contract can mint new tokens');\n        _mint(_to, _tokenId);\n    }\n\n    /// @notice To set the ecommerce smart contract address\n    function setEcommerce(address _ecommerce) public {\n        require(!isEcommerceSet, 'The ecommerce address can only be set once');\n        require(_ecommerce != address(0), 'The ecommerce address cannot be empty');\n        isEcommerceSet = true;\n        ecommerce = _ecommerce;\n    }\n}\n\n/// @notice The main ecommerce contract to buy and sell ERC-721 tokens representing physical or digital products because we are dealing with non-fungible tokens, there will be only 1 stock per product\n/// @author Merunas Grincalaitis <merunasgrincalaitis@gmail.com>\ncontract Ecommerce {\n    // We need the following:\n    /*\n        - A function to publish, sell products with unique token ids\n        - A function to buy products\n        - A function to mark purchased products as completed by the seller\n        - A function to get all the orders\n        - A function to get the recent products\n    */\n    struct Product {\n        uint256 id;\n        string title;\n        string description;\n        uint256 date;\n        address payable owner;\n        uint256 price;\n        string image;\n    }\n    struct Order {\n        uint256 id;\n        string nameSurname;\n        string lineOneDirection;\n        string lineTwoDirection;\n        bytes32 city;\n        bytes32 stateRegion;\n        uint256 postalCode;\n        bytes32 country;\n        uint256 phone;\n        string state; // Either 'pending', 'completed'\n    }\n    // Seller address => products\n    mapping(address => Product[]) public sellerProducts; // The published products by the seller\n    // Seller address => products\n    mapping(address => Order[]) public pendingSellerOrders; // The products waiting to be fulfilled by the seller, used by sellers to check which orders have to be filled\n    // Buyer address => products\n    mapping(address => Order[]) public pendingBuyerOrders; // The products that the buyer purchased waiting to be sent\n    // Seller address => products\n    mapping(address => Order[]) public completedSellerOrders; // A history of past orders fulfilled by the seller\n    // Buyer address => products\n    mapping(address => Order[]) public completedBuyerOrders; // A history of past orders made by this buyer\n    // Product id => product\n    mapping(uint256 => Product) public productById;\n    // Product id => order\n    mapping(uint256 => Order) public orderById;\n    // Product id => true or false\n    mapping(uint256 => bool) public productExists;\n    Product[] public products;\n    Order[] public orders;\n    uint256 public lastId;\n    address public token;\n    uint256 public lastPendingSellerOrder;\n    uint256 public lastPendingBuyerOrder;\n\n    /// @notice To setup the address of the ERC-721 token to use for this contract\n    /// @param _token The token address\n    constructor(address _token) public {\n        token = _token;\n    }\n\n    /// @notice To publish a product as a seller\n    /// @param _title The title of the product\n    /// @param _description The description of the product\n    /// @param _price The price of the product in ETH\n    /// @param _image The image URL of the product\n    function publishProduct(string memory _title, string memory _description, uint256 _price, string memory _image) public {\n        require(bytes(_title).length > 0, 'The title cannot be empty');\n        require(bytes(_description).length > 0, 'The description cannot be empty');\n        require(_price > 0, 'The price cannot be empty');\n        require(bytes(_image).length > 0, 'The image cannot be empty');\n\n        Product memory p = Product(lastId, _title, _description, now, msg.sender, _price * 1e18 , _image);\n        products.push(p);\n        sellerProducts[msg.sender].push(p);\n        productById[lastId] = p;\n        productExists[lastId] = true;\n        EcommerceToken(token).mint(address(this), lastId); // Create a new token for this product which will be owned by this contract until sold\n        lastId++;\n    }\n\n    /// @notice To buy a new product, note that the seller must authorize this contract to manage the token\n    /// @param _id The id of the product to buy\n    /// @param _nameSurname The name and surname of the buyer\n    /// @param _lineOneDirection The first line for the user address\n    /// @param _lineTwoDirection The second, optional user address line\n    /// @param _city Buyer's city\n    /// @param _stateRegion The state or region where the buyer lives\n    /// @param _postalCode The postal code of his location\n    /// @param _country Buyer's country\n    /// @param _phone The optional phone number for the shipping company\n    function buyProduct(uint256 _id, string memory _nameSurname, string memory _lineOneDirection, string memory _lineTwoDirection, bytes32 _city, bytes32 _stateRegion, uint256 _postalCode, bytes32 _country, uint256 _phone) public payable {\n        // The line 2 address and phone are optional, the rest are mandatory\n        require(productExists[_id], 'The product must exist to be purchased');\n        require(bytes(_nameSurname).length > 0, 'The name and surname must be set');\n        require(bytes(_lineOneDirection).length > 0, 'The line one direction must be set');\n        require(_city.length > 0, 'The city must be set');\n        require(_stateRegion.length > 0, 'The state or region must be set');\n        require(_postalCode > 0, 'The postal code must be set');\n        require(_country > 0, 'The country must be set');\n\n        Product memory p = productById[_id];\n        Order memory newOrder = Order(_id, _nameSurname, _lineOneDirection, _lineTwoDirection, _city, _stateRegion, _postalCode, _country, _phone, 'pending');\n        require(msg.value >= p.price, \"The payment must be larger or equal than the products price\");\n\n        // Return the excess ETH sent by the buyer\n        if(msg.value > p.price) msg.sender.transfer(msg.value - p.price);\n        pendingSellerOrders[p.owner].push(newOrder);\n        pendingBuyerOrders[msg.sender].push(newOrder);\n        orders.push(newOrder);\n        orderById[_id] = newOrder;\n        lastPendingSellerOrder = pendingSellerOrders[p.owner].length > 0 ? pendingSellerOrders[p.owner].length - 1 : 0;\n        lastPendingBuyerOrder = pendingBuyerOrders[p.owner].length > 0 ? pendingBuyerOrders[p.owner].length - 1 : 0;\n        EcommerceToken(token).transferFrom(p.owner, msg.sender, _id); // Transfer the product token to the new owner\n        p.owner.transfer(p.price);\n    }\n\n    /// @notice To mark an order as completed\n    /// @param _id The id of the order which is the same for the product id\n    function markOrderCompleted(uint256 _id) public {\n        Order memory order = orderById[_id];\n        Product memory product = productById[_id];\n        require(product.owner == msg.sender, 'Only the seller can mark the order as completed');\n        order.state = 'completed';\n\n        // Delete the seller order from the array of pending orders\n        for(uint256 i = 0; i < pendingSellerOrders[product.owner].length; i++) {\n            if(pendingSellerOrders[product.owner][i].id == _id) {\n                Order memory lastElement = orderById[lastPendingSellerOrder];\n                pendingSellerOrders[product.owner][i] = lastElement;\n                pendingSellerOrders[product.owner].length--;\n                lastPendingSellerOrder--;\n            }\n        }\n        // Delete the seller order from the array of pending orders\n        for(uint256 i = 0; i < pendingBuyerOrders[msg.sender].length; i++) {\n            if(pendingBuyerOrders[msg.sender][i].id == order.id) {\n                Order memory lastElement = orderById[lastPendingBuyerOrder];\n                pendingBuyerOrders[msg.sender][i] = lastElement;\n                pendingBuyerOrders[msg.sender].length--;\n                lastPendingBuyerOrder--;\n            }\n        }\n        completedSellerOrders[product.owner].push(order);\n        completedBuyerOrders[msg.sender].push(order);\n        orderById[_id] = order;\n    }\n\n    /// @notice To get the latest product ids so that we can get each product independently\n    /// @param _amount The number of products to get\n    /// @return uint256[] The array of ids for the latest products added\n    function getLatestProductIds(uint256 _amount) public view returns(uint256[] memory) {\n        // If you're requesting more products than available, return only the available\n        uint256 length = products.length;\n        uint256 counter = _amount > length ? _amount : length;\n        uint256[] memory ids = new uint256[](_amount > length ? _amount : length);\n        uint256 increment = 0;\n\n        // Loop backwards to get the most recent products first\n        for(int256 i = int256(counter); i >= 0; i--) {\n            ids[increment] = uint256(i);\n        }\n        return ids;\n    }\n\n    /// @notice To get a single product broken down by properties\n    /// @param _id The id of the product to get\n    /// @return The product properties including all of them\n    function getProduct(uint256 _id) public view returns(uint256 id, string memory title, string memory description, uint256 date, address payable owner, uint256 price, string memory image) {\n        Product memory p = productById[_id];\n\n        id = p.id;\n        title = p.title;\n        description = p.description;\n        date = p.date;\n        owner = p.owner;\n        price = p.price;\n        image = p.image;\n    }\n}\n",
  "sourcePath": "/Users/merunas/Desktop/ecommerce-dapp/contracts/Ecommerce.sol",
  "compiler": {
    "name": "solc",
    "version": "0.5.4+commit.9549d8ff.Emscripten.clang"
  },
  "schemaVersion": "3.0.0-beta.2",
  "updatedAt": "2019-04-01T17:23:39.190Z",
  "devdoc": {
    "author": "Merunas Grincalaitis <merunasgrincalaitis@gmail.com>",
    "methods": {
      "buyProduct(uint256,string,string,string,bytes32,bytes32,uint256,bytes32,uint256)": {
        "params": {
          "_city": "Buyer's city",
          "_country": "Buyer's country",
          "_id": "The id of the product to buy",
          "_lineOneDirection": "The first line for the user address",
          "_lineTwoDirection": "The second, optional user address line",
          "_nameSurname": "The name and surname of the buyer",
          "_phone": "The optional phone number for the shipping company",
          "_postalCode": "The postal code of his location",
          "_stateRegion": "The state or region where the buyer lives"
        }
      },
      "constructor": {
        "params": {
          "_token": "The token address"
        }
      },
      "getLatestProductIds(uint256)": {
        "params": {
          "_amount": "The number of products to get"
        },
        "return": "uint256[] The array of ids for the latest products added"
      },
      "getProduct(uint256)": {
        "params": {
          "_id": "The id of the product to get"
        },
        "return": "The product properties including all of them"
      },
      "markOrderCompleted(uint256)": {
        "params": {
          "_id": "The id of the order which is the same for the product id"
        }
      },
      "publishProduct(string,string,uint256,string)": {
        "params": {
          "_description": "The description of the product",
          "_image": "The image URL of the product",
          "_price": "The price of the product in ETH",
          "_title": "The title of the product"
        }
      }
    }
  },
  "userdoc": {
    "methods": {
      "buyProduct(uint256,string,string,string,bytes32,bytes32,uint256,bytes32,uint256)": {
        "notice": "To buy a new product, note that the seller must authorize this contract to manage the token"
      },
      "constructor": "To setup the address of the ERC-721 token to use for this contract",
      "getLatestProductIds(uint256)": {
        "notice": "To get the latest product ids so that we can get each product independently"
      },
      "getProduct(uint256)": {
        "notice": "To get a single product broken down by properties"
      },
      "markOrderCompleted(uint256)": {
        "notice": "To mark an order as completed"
      },
      "publishProduct(string,string,uint256,string)": {
        "notice": "To publish a product as a seller"
      }
    },
    "notice": "The main ecommerce contract to buy and sell ERC-721 tokens representing physical or digital products because we are dealing with non-fungible tokens, there will be only 1 stock per product"
  }
}