{
  "contractName": "Ecommerce",
  "abi": [
    {
      "constant": true,
      "inputs": [],
      "name": "lastPendingBuyerOrder",
      "outputs": [
        {
          "name": "",
          "type": "uint256"
        }
      ],
      "payable": false,
      "stateMutability": "view",
      "type": "function",
      "signature": "0x02949a0a"
    },
    {
      "constant": true,
      "inputs": [],
      "name": "lastPendingSellerOrder",
      "outputs": [
        {
          "name": "",
          "type": "uint256"
        }
      ],
      "payable": false,
      "stateMutability": "view",
      "type": "function",
      "signature": "0x68756f73"
    },
    {
      "constant": true,
      "inputs": [
        {
          "name": "",
          "type": "uint256"
        }
      ],
      "name": "products",
      "outputs": [
        {
          "name": "id",
          "type": "uint256"
        },
        {
          "name": "title",
          "type": "string"
        },
        {
          "name": "description",
          "type": "string"
        },
        {
          "name": "date",
          "type": "uint256"
        },
        {
          "name": "owner",
          "type": "address"
        },
        {
          "name": "price",
          "type": "uint256"
        },
        {
          "name": "image",
          "type": "string"
        }
      ],
      "payable": false,
      "stateMutability": "view",
      "type": "function",
      "signature": "0x7acc0b20"
    },
    {
      "constant": true,
      "inputs": [
        {
          "name": "",
          "type": "uint256"
        }
      ],
      "name": "orderById",
      "outputs": [
        {
          "name": "id",
          "type": "uint256"
        },
        {
          "name": "nameSurname",
          "type": "string"
        },
        {
          "name": "lineOneDirection",
          "type": "string"
        },
        {
          "name": "lineTwoDirection",
          "type": "string"
        },
        {
          "name": "city",
          "type": "bytes32"
        },
        {
          "name": "stateRegion",
          "type": "bytes32"
        },
        {
          "name": "postalCode",
          "type": "uint256"
        },
        {
          "name": "country",
          "type": "bytes32"
        },
        {
          "name": "phone",
          "type": "uint256"
        },
        {
          "name": "state",
          "type": "string"
        }
      ],
      "payable": false,
      "stateMutability": "view",
      "type": "function",
      "signature": "0x8d77eba5"
    },
    {
      "constant": true,
      "inputs": [
        {
          "name": "",
          "type": "uint256"
        }
      ],
      "name": "productById",
      "outputs": [
        {
          "name": "id",
          "type": "uint256"
        },
        {
          "name": "title",
          "type": "string"
        },
        {
          "name": "description",
          "type": "string"
        },
        {
          "name": "date",
          "type": "uint256"
        },
        {
          "name": "owner",
          "type": "address"
        },
        {
          "name": "price",
          "type": "uint256"
        },
        {
          "name": "image",
          "type": "string"
        }
      ],
      "payable": false,
      "stateMutability": "view",
      "type": "function",
      "signature": "0xa30b475f"
    },
    {
      "constant": true,
      "inputs": [
        {
          "name": "",
          "type": "uint256"
        }
      ],
      "name": "orders",
      "outputs": [
        {
          "name": "id",
          "type": "uint256"
        },
        {
          "name": "nameSurname",
          "type": "string"
        },
        {
          "name": "lineOneDirection",
          "type": "string"
        },
        {
          "name": "lineTwoDirection",
          "type": "string"
        },
        {
          "name": "city",
          "type": "bytes32"
        },
        {
          "name": "stateRegion",
          "type": "bytes32"
        },
        {
          "name": "postalCode",
          "type": "uint256"
        },
        {
          "name": "country",
          "type": "bytes32"
        },
        {
          "name": "phone",
          "type": "uint256"
        },
        {
          "name": "state",
          "type": "string"
        }
      ],
      "payable": false,
      "stateMutability": "view",
      "type": "function",
      "signature": "0xa85c38ef"
    },
    {
      "constant": true,
      "inputs": [],
      "name": "productsLength",
      "outputs": [
        {
          "name": "",
          "type": "uint256"
        }
      ],
      "payable": false,
      "stateMutability": "view",
      "type": "function",
      "signature": "0xa8ab24bb"
    },
    {
      "constant": true,
      "inputs": [
        {
          "name": "",
          "type": "uint256"
        }
      ],
      "name": "productExists",
      "outputs": [
        {
          "name": "",
          "type": "bool"
        }
      ],
      "payable": false,
      "stateMutability": "view",
      "type": "function",
      "signature": "0xaf55ed64"
    },
    {
      "constant": true,
      "inputs": [],
      "name": "ordersLength",
      "outputs": [
        {
          "name": "",
          "type": "uint256"
        }
      ],
      "payable": false,
      "stateMutability": "view",
      "type": "function",
      "signature": "0xbe8acd3f"
    },
    {
      "constant": true,
      "inputs": [],
      "name": "lastId",
      "outputs": [
        {
          "name": "",
          "type": "uint256"
        }
      ],
      "payable": false,
      "stateMutability": "view",
      "type": "function",
      "signature": "0xc1292cc3"
    },
    {
      "constant": true,
      "inputs": [
        {
          "name": "",
          "type": "address"
        },
        {
          "name": "",
          "type": "uint256"
        }
      ],
      "name": "sellerProducts",
      "outputs": [
        {
          "name": "id",
          "type": "uint256"
        },
        {
          "name": "title",
          "type": "string"
        },
        {
          "name": "description",
          "type": "string"
        },
        {
          "name": "date",
          "type": "uint256"
        },
        {
          "name": "owner",
          "type": "address"
        },
        {
          "name": "price",
          "type": "uint256"
        },
        {
          "name": "image",
          "type": "string"
        }
      ],
      "payable": false,
      "stateMutability": "view",
      "type": "function",
      "signature": "0xc1302b34"
    },
    {
      "constant": true,
      "inputs": [
        {
          "name": "",
          "type": "address"
        },
        {
          "name": "",
          "type": "uint256"
        }
      ],
      "name": "pendingBuyerOrders",
      "outputs": [
        {
          "name": "id",
          "type": "uint256"
        },
        {
          "name": "nameSurname",
          "type": "string"
        },
        {
          "name": "lineOneDirection",
          "type": "string"
        },
        {
          "name": "lineTwoDirection",
          "type": "string"
        },
        {
          "name": "city",
          "type": "bytes32"
        },
        {
          "name": "stateRegion",
          "type": "bytes32"
        },
        {
          "name": "postalCode",
          "type": "uint256"
        },
        {
          "name": "country",
          "type": "bytes32"
        },
        {
          "name": "phone",
          "type": "uint256"
        },
        {
          "name": "state",
          "type": "string"
        }
      ],
      "payable": false,
      "stateMutability": "view",
      "type": "function",
      "signature": "0xd72b29f6"
    },
    {
      "constant": true,
      "inputs": [
        {
          "name": "",
          "type": "address"
        },
        {
          "name": "",
          "type": "uint256"
        }
      ],
      "name": "pendingSellerOrders",
      "outputs": [
        {
          "name": "id",
          "type": "uint256"
        },
        {
          "name": "nameSurname",
          "type": "string"
        },
        {
          "name": "lineOneDirection",
          "type": "string"
        },
        {
          "name": "lineTwoDirection",
          "type": "string"
        },
        {
          "name": "city",
          "type": "bytes32"
        },
        {
          "name": "stateRegion",
          "type": "bytes32"
        },
        {
          "name": "postalCode",
          "type": "uint256"
        },
        {
          "name": "country",
          "type": "bytes32"
        },
        {
          "name": "phone",
          "type": "uint256"
        },
        {
          "name": "state",
          "type": "string"
        }
      ],
      "payable": false,
      "stateMutability": "view",
      "type": "function",
      "signature": "0xf7a5a493"
    },
    {
      "constant": true,
      "inputs": [],
      "name": "token",
      "outputs": [
        {
          "name": "",
          "type": "address"
        }
      ],
      "payable": false,
      "stateMutability": "view",
      "type": "function",
      "signature": "0xfc0c546a"
    },
    {
      "inputs": [
        {
          "name": "_token",
          "type": "address"
        }
      ],
      "payable": false,
      "stateMutability": "nonpayable",
      "type": "constructor",
      "signature": "constructor"
    },
    {
      "constant": false,
      "inputs": [
        {
          "name": "_title",
          "type": "string"
        },
        {
          "name": "_description",
          "type": "string"
        },
        {
          "name": "_price",
          "type": "uint256"
        },
        {
          "name": "_image",
          "type": "string"
        }
      ],
      "name": "publishProduct",
      "outputs": [],
      "payable": false,
      "stateMutability": "nonpayable",
      "type": "function",
      "signature": "0x5a56740f"
    },
    {
      "constant": false,
      "inputs": [
        {
          "name": "_id",
          "type": "uint256"
        },
        {
          "name": "_nameSurname",
          "type": "string"
        },
        {
          "name": "_lineOneDirection",
          "type": "string"
        },
        {
          "name": "_lineTwoDirection",
          "type": "string"
        },
        {
          "name": "_city",
          "type": "bytes32"
        },
        {
          "name": "_stateRegion",
          "type": "bytes32"
        },
        {
          "name": "_postalCode",
          "type": "uint256"
        },
        {
          "name": "_country",
          "type": "bytes32"
        },
        {
          "name": "_phone",
          "type": "uint256"
        }
      ],
      "name": "buyProduct",
      "outputs": [],
      "payable": true,
      "stateMutability": "payable",
      "type": "function",
      "signature": "0xf4baa9e2"
    },
    {
      "constant": false,
      "inputs": [
        {
          "name": "_id",
          "type": "uint256"
        }
      ],
      "name": "markOrderCompleted",
      "outputs": [],
      "payable": false,
      "stateMutability": "nonpayable",
      "type": "function",
      "signature": "0xdf6711b0"
    },
    {
      "constant": true,
      "inputs": [
        {
          "name": "_id",
          "type": "uint256"
        }
      ],
      "name": "getProduct",
      "outputs": [
        {
          "name": "id",
          "type": "uint256"
        },
        {
          "name": "title",
          "type": "string"
        },
        {
          "name": "description",
          "type": "string"
        },
        {
          "name": "date",
          "type": "uint256"
        },
        {
          "name": "owner",
          "type": "address"
        },
        {
          "name": "price",
          "type": "uint256"
        },
        {
          "name": "image",
          "type": "string"
        }
      ],
      "payable": false,
      "stateMutability": "view",
      "type": "function",
      "signature": "0xb9db15b4"
    }
  ],
  "bytecode": "0x608060405234801561001057600080fd5b506040516020806200558a8339810180604052602081101561003157600080fd5b810190808051906020019092919050505080600960006101000a81548173ffffffffffffffffffffffffffffffffffffffff021916908373ffffffffffffffffffffffffffffffffffffffff160217905550506154f680620000946000396000f3fe608060405260043610610126576000357c010000000000000000000000000000000000000000000000000000000090048063b9db15b4116100b2578063d72b29f611610081578063d72b29f614611009578063df6711b01461124b578063f4baa9e214611286578063f7a5a493146114ac578063fc0c546a146116ee57610126565b8063b9db15b414610beb578063be8acd3f14610dbf578063c1292cc314610dea578063c1302b3414610e1557610126565b80638d77eba5116100f95780638d77eba514610555578063a30b475f14610777578063a85c38ef1461094b578063a8ab24bb14610b6d578063af55ed6414610b9857610126565b806302949a0a1461012b5780635a56740f1461015657806368756f73146103565780637acc0b2014610381575b600080fd5b34801561013757600080fd5b50610140611745565b6040518082815260200191505060405180910390f35b34801561016257600080fd5b506103546004803603608081101561017957600080fd5b810190808035906020019064010000000081111561019657600080fd5b8201836020820111156101a857600080fd5b803590602001918460018302840111640100000000831117156101ca57600080fd5b91908080601f016020809104026020016040519081016040528093929190818152602001838380828437600081840152601f19601f8201169050808301925050505050505091929192908035906020019064010000000081111561022d57600080fd5b82018360208201111561023f57600080fd5b8035906020019184600183028401116401000000008311171561026157600080fd5b91908080601f016020809104026020016040519081016040528093929190818152602001838380828437600081840152601f19601f82011690508083019250505050505050919291929080359060200190929190803590602001906401000000008111156102ce57600080fd5b8201836020820111156102e057600080fd5b8035906020019184600183028401116401000000008311171561030257600080fd5b91908080601f016020809104026020016040519081016040528093929190818152602001838380828437600081840152601f19601f82011690508083019250505050505050919291929050505061174b565b005b34801561036257600080fd5b5061036b611dab565b6040518082815260200191505060405180910390f35b34801561038d57600080fd5b506103ba600480360360208110156103a457600080fd5b8101908080359060200190929190505050611db1565b6040518088815260200180602001806020018781526020018673ffffffffffffffffffffffffffffffffffffffff1673ffffffffffffffffffffffffffffffffffffffff1681526020018581526020018060200184810384528a818151815260200191508051906020019080838360005b8381101561044657808201518184015260208101905061042b565b50505050905090810190601f1680156104735780820380516001836020036101000a031916815260200191505b50848103835289818151815260200191508051906020019080838360005b838110156104ac578082015181840152602081019050610491565b50505050905090810190601f1680156104d95780820380516001836020036101000a031916815260200191505b50848103825285818151815260200191508051906020019080838360005b838110156105125780820151818401526020810190506104f7565b50505050905090810190601f16801561053f5780820380516001836020036101000a031916815260200191505b509a505050505050505050505060405180910390f35b34801561056157600080fd5b5061058e6004803603602081101561057857600080fd5b8101908080359060200190929190505050611fea565b604051808b81526020018060200180602001806020018a81526020018981526020018881526020018781526020018681526020018060200185810385528e818151815260200191508051906020019080838360005b838110156105fe5780820151818401526020810190506105e3565b50505050905090810190601f16801561062b5780820380516001836020036101000a031916815260200191505b5085810384528d818151815260200191508051906020019080838360005b83811015610664578082015181840152602081019050610649565b50505050905090810190601f1680156106915780820380516001836020036101000a031916815260200191505b5085810383528c818151815260200191508051906020019080838360005b838110156106ca5780820151818401526020810190506106af565b50505050905090810190601f1680156106f75780820380516001836020036101000a031916815260200191505b50858103825286818151815260200191508051906020019080838360005b83811015610730578082015181840152602081019050610715565b50505050905090810190601f16801561075d5780820380516001836020036101000a031916815260200191505b509e50505050505050505050505050505060405180910390f35b34801561078357600080fd5b506107b06004803603602081101561079a57600080fd5b810190808035906020019092919050505061229e565b6040518088815260200180602001806020018781526020018673ffffffffffffffffffffffffffffffffffffffff1673ffffffffffffffffffffffffffffffffffffffff1681526020018581526020018060200184810384528a818151815260200191508051906020019080838360005b8381101561083c578082015181840152602081019050610821565b50505050905090810190601f1680156108695780820380516001836020036101000a031916815260200191505b50848103835289818151815260200191508051906020019080838360005b838110156108a2578082015181840152602081019050610887565b50505050905090810190601f1680156108cf5780820380516001836020036101000a031916815260200191505b50848103825285818151815260200191508051906020019080838360005b838110156109085780820151818401526020810190506108ed565b50505050905090810190601f1680156109355780820380516001836020036101000a031916815260200191505b509a505050505050505050505060405180910390f35b34801561095757600080fd5b506109846004803603602081101561096e57600080fd5b81019080803590602001909291905050506124c8565b604051808b81526020018060200180602001806020018a81526020018981526020018881526020018781526020018681526020018060200185810385528e818151815260200191508051906020019080838360005b838110156109f45780820151818401526020810190506109d9565b50505050905090810190601f168015610a215780820380516001836020036101000a031916815260200191505b5085810384528d818151815260200191508051906020019080838360005b83811015610a5a578082015181840152602081019050610a3f565b50505050905090810190601f168015610a875780820380516001836020036101000a031916815260200191505b5085810383528c818151815260200191508051906020019080838360005b83811015610ac0578082015181840152602081019050610aa5565b50505050905090810190601f168015610aed5780820380516001836020036101000a031916815260200191505b50858103825286818151815260200191508051906020019080838360005b83811015610b26578082015181840152602081019050610b0b565b50505050905090810190601f168015610b535780820380516001836020036101000a031916815260200191505b509e50505050505050505050505050505060405180910390f35b348015610b7957600080fd5b50610b8261278b565b6040518082815260200191505060405180910390f35b348015610ba457600080fd5b50610bd160048036036020811015610bbb57600080fd5b8101908080359060200190929190505050612791565b604051808215151515815260200191505060405180910390f35b348015610bf757600080fd5b50610c2460048036036020811015610c0e57600080fd5b81019080803590602001909291905050506127b1565b6040518088815260200180602001806020018781526020018673ffffffffffffffffffffffffffffffffffffffff1673ffffffffffffffffffffffffffffffffffffffff1681526020018581526020018060200184810384528a818151815260200191508051906020019080838360005b83811015610cb0578082015181840152602081019050610c95565b50505050905090810190601f168015610cdd5780820380516001836020036101000a031916815260200191505b50848103835289818151815260200191508051906020019080838360005b83811015610d16578082015181840152602081019050610cfb565b50505050905090810190601f168015610d435780820380516001836020036101000a031916815260200191505b50848103825285818151815260200191508051906020019080838360005b83811015610d7c578082015181840152602081019050610d61565b50505050905090810190601f168015610da95780820380516001836020036101000a031916815260200191505b509a505050505050505050505060405180910390f35b348015610dcb57600080fd5b50610dd4612a7d565b6040518082815260200191505060405180910390f35b348015610df657600080fd5b50610dff612a83565b6040518082815260200191505060405180910390f35b348015610e2157600080fd5b50610e6e60048036036040811015610e3857600080fd5b81019080803573ffffffffffffffffffffffffffffffffffffffff16906020019092919080359060200190929190505050612a89565b6040518088815260200180602001806020018781526020018673ffffffffffffffffffffffffffffffffffffffff1673ffffffffffffffffffffffffffffffffffffffff1681526020018581526020018060200184810384528a818151815260200191508051906020019080838360005b83811015610efa578082015181840152602081019050610edf565b50505050905090810190601f168015610f275780820380516001836020036101000a031916815260200191505b50848103835289818151815260200191508051906020019080838360005b83811015610f60578082015181840152602081019050610f45565b50505050905090810190601f168015610f8d5780820380516001836020036101000a031916815260200191505b50848103825285818151815260200191508051906020019080838360005b83811015610fc6578082015181840152602081019050610fab565b50505050905090810190601f168015610ff35780820380516001836020036101000a031916815260200191505b509a505050505050505050505060405180910390f35b34801561101557600080fd5b506110626004803603604081101561102c57600080fd5b81019080803573ffffffffffffffffffffffffffffffffffffffff16906020019092919080359060200190929190505050612ccf565b604051808b81526020018060200180602001806020018a81526020018981526020018881526020018781526020018681526020018060200185810385528e818151815260200191508051906020019080838360005b838110156110d25780820151818401526020810190506110b7565b50505050905090810190601f1680156110ff5780820380516001836020036101000a031916815260200191505b5085810384528d818151815260200191508051906020019080838360005b8381101561113857808201518184015260208101905061111d565b50505050905090810190601f1680156111655780820380516001836020036101000a031916815260200191505b5085810383528c818151815260200191508051906020019080838360005b8381101561119e578082015181840152602081019050611183565b50505050905090810190601f1680156111cb5780820380516001836020036101000a031916815260200191505b50858103825286818151815260200191508051906020019080838360005b838110156112045780820151818401526020810190506111e9565b50505050905090810190601f1680156112315780820380516001836020036101000a031916815260200191505b509e50505050505050505050505050505060405180910390f35b34801561125757600080fd5b506112846004803603602081101561126e57600080fd5b8101908080359060200190929190505050612f9f565b005b6114aa600480360361012081101561129d57600080fd5b8101908080359060200190929190803590602001906401000000008111156112c457600080fd5b8201836020820111156112d657600080fd5b803590602001918460018302840111640100000000831117156112f857600080fd5b91908080601f016020809104026020016040519081016040528093929190818152602001838380828437600081840152601f19601f8201169050808301925050505050505091929192908035906020019064010000000081111561135b57600080fd5b82018360208201111561136d57600080fd5b8035906020019184600183028401116401000000008311171561138f57600080fd5b91908080601f016020809104026020016040519081016040528093929190818152602001838380828437600081840152601f19601f820116905080830192505050505050509192919290803590602001906401000000008111156113f257600080fd5b82018360208201111561140457600080fd5b8035906020019184600183028401116401000000008311171561142657600080fd5b91908080601f016020809104026020016040519081016040528093929190818152602001838380828437600081840152601f19601f8201169050808301925050505050505091929192908035906020019092919080359060200190929190803590602001909291908035906020019092919080359060200190929190505050614111565b005b3480156114b857600080fd5b50611505600480360360408110156114cf57600080fd5b81019080803573ffffffffffffffffffffffffffffffffffffffff16906020019092919080359060200190929190505050614ec3565b604051808b81526020018060200180602001806020018a81526020018981526020018881526020018781526020018681526020018060200185810385528e818151815260200191508051906020019080838360005b8381101561157557808201518184015260208101905061155a565b50505050905090810190601f1680156115a25780820380516001836020036101000a031916815260200191505b5085810384528d818151815260200191508051906020019080838360005b838110156115db5780820151818401526020810190506115c0565b50505050905090810190601f1680156116085780820380516001836020036101000a031916815260200191505b5085810383528c818151815260200191508051906020019080838360005b83811015611641578082015181840152602081019050611626565b50505050905090810190601f16801561166e5780820380516001836020036101000a031916815260200191505b50858103825286818151815260200191508051906020019080838360005b838110156116a757808201518184015260208101905061168c565b50505050905090810190601f1680156116d45780820380516001836020036101000a031916815260200191505b509e50505050505050505050505050505060405180910390f35b3480156116fa57600080fd5b50611703615193565b604051808273ffffffffffffffffffffffffffffffffffffffff1673ffffffffffffffffffffffffffffffffffffffff16815260200191505060405180910390f35b600b5481565b600084511115156117c4576040517f08c379a00000000000000000000000000000000000000000000000000000000081526004018080602001828103825260198152602001807f546865207469746c652063616e6e6f7420626520656d7074790000000000000081525060200191505060405180910390fd5b6000835111151561183d576040517f08c379a000000000000000000000000000000000000000000000000000000000815260040180806020018281038252601f8152602001807f546865206465736372697074696f6e2063616e6e6f7420626520656d7074790081525060200191505060405180910390fd5b6000821115156118b5576040517f08c379a00000000000000000000000000000000000000000000000000000000081526004018080602001828103825260198152602001807f5468652070726963652063616e6e6f7420626520656d7074790000000000000081525060200191505060405180910390fd5b6000815111151561192e576040517f08c379a00000000000000000000000000000000000000000000000000000000081526004018080602001828103825260198152602001807f54686520696d6167652063616e6e6f7420626520656d7074790000000000000081525060200191505060405180910390fd5b6119366151b9565b60e06040519081016040528060085481526020018681526020018581526020014281526020013373ffffffffffffffffffffffffffffffffffffffff168152602001670de0b6b3a764000085028152602001838152509050600681908060018154018082558091505090600182039060005260206000209060070201600090919290919091506000820151816000015560208201518160010190805190602001906119e292919061520d565b5060408201518160020190805190602001906119ff92919061520d565b506060820151816003015560808201518160040160006101000a81548173ffffffffffffffffffffffffffffffffffffffff021916908373ffffffffffffffffffffffffffffffffffffffff16021790555060a0820151816005015560c0820151816006019080519060200190611a7792919061520d565b505050506000803373ffffffffffffffffffffffffffffffffffffffff1673ffffffffffffffffffffffffffffffffffffffff1681526020019081526020016000208190806001815401808255809150509060018203906000526020600020906007020160009091929091909150600082015181600001556020820151816001019080519060200190611b0b92919061520d565b506040820151816002019080519060200190611b2892919061520d565b506060820151816003015560808201518160040160006101000a81548173ffffffffffffffffffffffffffffffffffffffff021916908373ffffffffffffffffffffffffffffffffffffffff16021790555060a0820151816005015560c0820151816006019080519060200190611ba092919061520d565b5050505080600360006008548152602001908152602001600020600082015181600001556020820151816001019080519060200190611be092919061520d565b506040820151816002019080519060200190611bfd92919061520d565b506060820151816003015560808201518160040160006101000a81548173ffffffffffffffffffffffffffffffffffffffff021916908373ffffffffffffffffffffffffffffffffffffffff16021790555060a0820151816005015560c0820151816006019080519060200190611c7592919061520d565b50905050600160056000600854815260200190815260200160002060006101000a81548160ff021916908315150217905550600960009054906101000a900473ffffffffffffffffffffffffffffffffffffffff1673ffffffffffffffffffffffffffffffffffffffff166340c10f19306008546040518363ffffffff167c0100000000000000000000000000000000000000000000000000000000028152600401808373ffffffffffffffffffffffffffffffffffffffff1673ffffffffffffffffffffffffffffffffffffffff16815260200182815260200192505050600060405180830381600087803b158015611d6e57600080fd5b505af1158015611d82573d6000803e3d6000fd5b50505050600680549050600c819055506008600081548092919060010191905055505050505050565b600a5481565b600681815481101515611dc057fe5b9060005260206000209060070201600091509050806000015490806001018054600181600116156101000203166002900480601f016020809104026020016040519081016040528092919081815260200182805460018160011615610100020316600290048015611e725780601f10611e4757610100808354040283529160200191611e72565b820191906000526020600020905b815481529060010190602001808311611e5557829003601f168201915b505050505090806002018054600181600116156101000203166002900480601f016020809104026020016040519081016040528092919081815260200182805460018160011615610100020316600290048015611f105780601f10611ee557610100808354040283529160200191611f10565b820191906000526020600020905b815481529060010190602001808311611ef357829003601f168201915b5050505050908060030154908060040160009054906101000a900473ffffffffffffffffffffffffffffffffffffffff1690806005015490806006018054600181600116156101000203166002900480601f016020809104026020016040519081016040528092919081815260200182805460018160011615610100020316600290048015611fe05780601f10611fb557610100808354040283529160200191611fe0565b820191906000526020600020905b815481529060010190602001808311611fc357829003601f168201915b5050505050905087565b6004602052806000526040600020600091509050806000015490806001018054600181600116156101000203166002900480601f01602080910402602001604051908101604052809291908181526020018280546001816001161561010002031660029004801561209c5780601f106120715761010080835404028352916020019161209c565b820191906000526020600020905b81548152906001019060200180831161207f57829003601f168201915b505050505090806002018054600181600116156101000203166002900480601f01602080910402602001604051908101604052809291908181526020018280546001816001161561010002031660029004801561213a5780601f1061210f5761010080835404028352916020019161213a565b820191906000526020600020905b81548152906001019060200180831161211d57829003601f168201915b505050505090806003018054600181600116156101000203166002900480601f0160208091040260200160405190810160405280929190818152602001828054600181600116156101000203166002900480156121d85780601f106121ad576101008083540402835291602001916121d8565b820191906000526020600020905b8154815290600101906020018083116121bb57829003601f168201915b505050505090806004015490806005015490806006015490806007015490806008015490806009018054600181600116156101000203166002900480601f0160208091040260200160405190810160405280929190818152602001828054600181600116156101000203166002900480156122945780601f1061226957610100808354040283529160200191612294565b820191906000526020600020905b81548152906001019060200180831161227757829003601f168201915b505050505090508a565b6003602052806000526040600020600091509050806000015490806001018054600181600116156101000203166002900480601f0160208091040260200160405190810160405280929190818152602001828054600181600116156101000203166002900480156123505780601f1061232557610100808354040283529160200191612350565b820191906000526020600020905b81548152906001019060200180831161233357829003601f168201915b505050505090806002018054600181600116156101000203166002900480601f0160208091040260200160405190810160405280929190818152602001828054600181600116156101000203166002900480156123ee5780601f106123c3576101008083540402835291602001916123ee565b820191906000526020600020905b8154815290600101906020018083116123d157829003601f168201915b5050505050908060030154908060040160009054906101000a900473ffffffffffffffffffffffffffffffffffffffff1690806005015490806006018054600181600116156101000203166002900480601f0160208091040260200160405190810160405280929190818152602001828054600181600116156101000203166002900480156124be5780601f10612493576101008083540402835291602001916124be565b820191906000526020600020905b8154815290600101906020018083116124a157829003601f168201915b5050505050905087565b6007818154811015156124d757fe5b90600052602060002090600a0201600091509050806000015490806001018054600181600116156101000203166002900480601f0160208091040260200160405190810160405280929190818152602001828054600181600116156101000203166002900480156125895780601f1061255e57610100808354040283529160200191612589565b820191906000526020600020905b81548152906001019060200180831161256c57829003601f168201915b505050505090806002018054600181600116156101000203166002900480601f0160208091040260200160405190810160405280929190818152602001828054600181600116156101000203166002900480156126275780601f106125fc57610100808354040283529160200191612627565b820191906000526020600020905b81548152906001019060200180831161260a57829003601f168201915b505050505090806003018054600181600116156101000203166002900480601f0160208091040260200160405190810160405280929190818152602001828054600181600116156101000203166002900480156126c55780601f1061269a576101008083540402835291602001916126c5565b820191906000526020600020905b8154815290600101906020018083116126a857829003601f168201915b505050505090806004015490806005015490806006015490806007015490806008015490806009018054600181600116156101000203166002900480601f0160208091040260200160405190810160405280929190818152602001828054600181600116156101000203166002900480156127815780601f1061275657610100808354040283529160200191612781565b820191906000526020600020905b81548152906001019060200180831161276457829003601f168201915b505050505090508a565b600c5481565b60056020528060005260406000206000915054906101000a900460ff1681565b6000606080600080600060606127c56151b9565b600360008a815260200190815260200160002060e0604051908101604052908160008201548152602001600182018054600181600116156101000203166002900480601f0160208091040260200160405190810160405280929190818152602001828054600181600116156101000203166002900480156128875780601f1061285c57610100808354040283529160200191612887565b820191906000526020600020905b81548152906001019060200180831161286a57829003601f168201915b50505050508152602001600282018054600181600116156101000203166002900480601f0160208091040260200160405190810160405280929190818152602001828054600181600116156101000203166002900480156129295780601f106128fe57610100808354040283529160200191612929565b820191906000526020600020905b81548152906001019060200180831161290c57829003601f168201915b50505050508152602001600382015481526020016004820160009054906101000a900473ffffffffffffffffffffffffffffffffffffffff1673ffffffffffffffffffffffffffffffffffffffff1673ffffffffffffffffffffffffffffffffffffffff16815260200160058201548152602001600682018054600181600116156101000203166002900480601f016020809104026020016040519081016040528092919081815260200182805460018160011615610100020316600290048015612a355780601f10612a0a57610100808354040283529160200191612a35565b820191906000526020600020905b815481529060010190602001808311612a1857829003601f168201915b505050505081525050905080600001519750806020015196508060400151955080606001519450806080015193508060a0015192508060c00151915050919395979092949650565b600d5481565b60085481565b600060205281600052604060002081815481101515612aa457fe5b906000526020600020906007020160009150915050806000015490806001018054600181600116156101000203166002900480601f016020809104026020016040519081016040528092919081815260200182805460018160011615610100020316600290048015612b575780601f10612b2c57610100808354040283529160200191612b57565b820191906000526020600020905b815481529060010190602001808311612b3a57829003601f168201915b505050505090806002018054600181600116156101000203166002900480601f016020809104026020016040519081016040528092919081815260200182805460018160011615610100020316600290048015612bf55780601f10612bca57610100808354040283529160200191612bf5565b820191906000526020600020905b815481529060010190602001808311612bd857829003601f168201915b5050505050908060030154908060040160009054906101000a900473ffffffffffffffffffffffffffffffffffffffff1690806005015490806006018054600181600116156101000203166002900480601f016020809104026020016040519081016040528092919081815260200182805460018160011615610100020316600290048015612cc55780601f10612c9a57610100808354040283529160200191612cc5565b820191906000526020600020905b815481529060010190602001808311612ca857829003601f168201915b5050505050905087565b600260205281600052604060002081815481101515612cea57fe5b90600052602060002090600a020160009150915050806000015490806001018054600181600116156101000203166002900480601f016020809104026020016040519081016040528092919081815260200182805460018160011615610100020316600290048015612d9d5780601f10612d7257610100808354040283529160200191612d9d565b820191906000526020600020905b815481529060010190602001808311612d8057829003601f168201915b505050505090806002018054600181600116156101000203166002900480601f016020809104026020016040519081016040528092919081815260200182805460018160011615610100020316600290048015612e3b5780601f10612e1057610100808354040283529160200191612e3b565b820191906000526020600020905b815481529060010190602001808311612e1e57829003601f168201915b505050505090806003018054600181600116156101000203166002900480601f016020809104026020016040519081016040528092919081815260200182805460018160011615610100020316600290048015612ed95780601f10612eae57610100808354040283529160200191612ed9565b820191906000526020600020905b815481529060010190602001808311612ebc57829003601f168201915b505050505090806004015490806005015490806006015490806007015490806008015490806009018054600181600116156101000203166002900480601f016020809104026020016040519081016040528092919081815260200182805460018160011615610100020316600290048015612f955780601f10612f6a57610100808354040283529160200191612f95565b820191906000526020600020905b815481529060010190602001808311612f7857829003601f168201915b505050505090508a565b612fa761528d565b60046000838152602001908152602001600020610140604051908101604052908160008201548152602001600182018054600181600116156101000203166002900480601f01602080910402602001604051908101604052809291908181526020018280546001816001161561010002031660029004801561306a5780601f1061303f5761010080835404028352916020019161306a565b820191906000526020600020905b81548152906001019060200180831161304d57829003601f168201915b50505050508152602001600282018054600181600116156101000203166002900480601f01602080910402602001604051908101604052809291908181526020018280546001816001161561010002031660029004801561310c5780601f106130e15761010080835404028352916020019161310c565b820191906000526020600020905b8154815290600101906020018083116130ef57829003601f168201915b50505050508152602001600382018054600181600116156101000203166002900480601f0160208091040260200160405190810160405280929190818152602001828054600181600116156101000203166002900480156131ae5780601f10613183576101008083540402835291602001916131ae565b820191906000526020600020905b81548152906001019060200180831161319157829003601f168201915b505050505081526020016004820154815260200160058201548152602001600682015481526020016007820154815260200160088201548152602001600982018054600181600116156101000203166002900480601f0160208091040260200160405190810160405280929190818152602001828054600181600116156101000203166002900480156132825780601f1061325757610100808354040283529160200191613282565b820191906000526020600020905b81548152906001019060200180831161326557829003601f168201915b50505050508152505090506132956151b9565b6003600084815260200190815260200160002060e0604051908101604052908160008201548152602001600182018054600181600116156101000203166002900480601f0160208091040260200160405190810160405280929190818152602001828054600181600116156101000203166002900480156133575780601f1061332c57610100808354040283529160200191613357565b820191906000526020600020905b81548152906001019060200180831161333a57829003601f168201915b50505050508152602001600282018054600181600116156101000203166002900480601f0160208091040260200160405190810160405280929190818152602001828054600181600116156101000203166002900480156133f95780601f106133ce576101008083540402835291602001916133f9565b820191906000526020600020905b8154815290600101906020018083116133dc57829003601f168201915b50505050508152602001600382015481526020016004820160009054906101000a900473ffffffffffffffffffffffffffffffffffffffff1673ffffffffffffffffffffffffffffffffffffffff1673ffffffffffffffffffffffffffffffffffffffff16815260200160058201548152602001600682018054600181600116156101000203166002900480601f0160208091040260200160405190810160405280929190818152602001828054600181600116156101000203166002900480156135055780601f106134da57610100808354040283529160200191613505565b820191906000526020600020905b8154815290600101906020018083116134e857829003601f168201915b50505050508152505090503373ffffffffffffffffffffffffffffffffffffffff16816080015173ffffffffffffffffffffffffffffffffffffffff1614151561359a576040517f08c379a000000000000000000000000000000000000000000000000000000000815260040180806020018281038252602f815260200180615419602f913960400191505060405180910390fd5b6040805190810160405280600981526020017f636f6d706c65746564000000000000000000000000000000000000000000000081525082610120018190525060008090505b60016000836080015173ffffffffffffffffffffffffffffffffffffffff1673ffffffffffffffffffffffffffffffffffffffff16815260200190815260200160002080549050811015613b13578360016000846080015173ffffffffffffffffffffffffffffffffffffffff1673ffffffffffffffffffffffffffffffffffffffff1681526020019081526020016000208281548110151561367e57fe5b90600052602060002090600a0201600001541415613b065761369e61528d565b60046000600a548152602001908152602001600020610140604051908101604052908160008201548152602001600182018054600181600116156101000203166002900480601f0160208091040260200160405190810160405280929190818152602001828054600181600116156101000203166002900480156137635780601f1061373857610100808354040283529160200191613763565b820191906000526020600020905b81548152906001019060200180831161374657829003601f168201915b50505050508152602001600282018054600181600116156101000203166002900480601f0160208091040260200160405190810160405280929190818152602001828054600181600116156101000203166002900480156138055780601f106137da57610100808354040283529160200191613805565b820191906000526020600020905b8154815290600101906020018083116137e857829003601f168201915b50505050508152602001600382018054600181600116156101000203166002900480601f0160208091040260200160405190810160405280929190818152602001828054600181600116156101000203166002900480156138a75780601f1061387c576101008083540402835291602001916138a7565b820191906000526020600020905b81548152906001019060200180831161388a57829003601f168201915b505050505081526020016004820154815260200160058201548152602001600682015481526020016007820154815260200160088201548152602001600982018054600181600116156101000203166002900480601f01602080910402602001604051908101604052809291908181526020018280546001816001161561010002031660029004801561397b5780601f106139505761010080835404028352916020019161397b565b820191906000526020600020905b81548152906001019060200180831161395e57829003601f168201915b50505050508152505090508060016000856080015173ffffffffffffffffffffffffffffffffffffffff1673ffffffffffffffffffffffffffffffffffffffff168152602001908152602001600020838154811015156139d757fe5b90600052602060002090600a0201600082015181600001556020820151816001019080519060200190613a0b92919061520d565b506040820151816002019080519060200190613a2892919061520d565b506060820151816003019080519060200190613a4592919061520d565b506080820151816004015560a0820151816005015560c0820151816006015560e082015181600701556101008201518160080155610120820151816009019080519060200190613a9692919061520d565b5090505060016000846080015173ffffffffffffffffffffffffffffffffffffffff1673ffffffffffffffffffffffffffffffffffffffff168152602001908152602001600020805480919060019003613af091906152ea565b50600a6000815480929190600190039190505550505b80806001019150506135df565b5060008090505b600260003373ffffffffffffffffffffffffffffffffffffffff1673ffffffffffffffffffffffffffffffffffffffff16815260200190815260200160002080549050811015614042578260000151600260003373ffffffffffffffffffffffffffffffffffffffff1673ffffffffffffffffffffffffffffffffffffffff16815260200190815260200160002082815481101515613bb557fe5b90600052602060002090600a020160000154141561403557613bd561528d565b60046000600b548152602001908152602001600020610140604051908101604052908160008201548152602001600182018054600181600116156101000203166002900480601f016020809104026020016040519081016040528092919081815260200182805460018160011615610100020316600290048015613c9a5780601f10613c6f57610100808354040283529160200191613c9a565b820191906000526020600020905b815481529060010190602001808311613c7d57829003601f168201915b50505050508152602001600282018054600181600116156101000203166002900480601f016020809104026020016040519081016040528092919081815260200182805460018160011615610100020316600290048015613d3c5780601f10613d1157610100808354040283529160200191613d3c565b820191906000526020600020905b815481529060010190602001808311613d1f57829003601f168201915b50505050508152602001600382018054600181600116156101000203166002900480601f016020809104026020016040519081016040528092919081815260200182805460018160011615610100020316600290048015613dde5780601f10613db357610100808354040283529160200191613dde565b820191906000526020600020905b815481529060010190602001808311613dc157829003601f168201915b505050505081526020016004820154815260200160058201548152602001600682015481526020016007820154815260200160088201548152602001600982018054600181600116156101000203166002900480601f016020809104026020016040519081016040528092919081815260200182805460018160011615610100020316600290048015613eb25780601f10613e8757610100808354040283529160200191613eb2565b820191906000526020600020905b815481529060010190602001808311613e9557829003601f168201915b505050505081525050905080600260003373ffffffffffffffffffffffffffffffffffffffff1673ffffffffffffffffffffffffffffffffffffffff16815260200190815260200160002083815481101515613f0a57fe5b90600052602060002090600a0201600082015181600001556020820151816001019080519060200190613f3e92919061520d565b506040820151816002019080519060200190613f5b92919061520d565b506060820151816003019080519060200190613f7892919061520d565b506080820151816004015560a0820151816005015560c0820151816006015560e082015181600701556101008201518160080155610120820151816009019080519060200190613fc992919061520d565b50905050600260003373ffffffffffffffffffffffffffffffffffffffff1673ffffffffffffffffffffffffffffffffffffffff16815260200190815260200160002080548091906001900361401f91906152ea565b50600b6000815480929190600190039190505550505b8080600101915050613b1a565b50816004600085815260200190815260200160002060008201518160000155602082015181600101908051906020019061407d92919061520d565b50604082015181600201908051906020019061409a92919061520d565b5060608201518160030190805190602001906140b792919061520d565b506080820151816004015560a0820151816005015560c0820151816006015560e08201518160070155610100820151816008015561012082015181600901908051906020019061410892919061520d565b50905050505050565b600560008a815260200190815260200160002060009054906101000a900460ff161515614189576040517f08c379a00000000000000000000000000000000000000000000000000000000081526004018080602001828103825260268152602001806154486026913960400191505060405180910390fd5b60008851111515614202576040517f08c379a00000000000000000000000000000000000000000000000000000000081526004018080602001828103825260208152602001807f546865206e616d6520616e64207375726e616d65206d7573742062652073657481525060200191505060405180910390fd5b6000875111151561425e576040517f08c379a000000000000000000000000000000000000000000000000000000000815260040180806020018281038252602281526020018061546e6022913960400191505060405180910390fd5b6000602060ff161115156142da576040517f08c379a00000000000000000000000000000000000000000000000000000000081526004018080602001828103825260148152602001807f5468652063697479206d7573742062652073657400000000000000000000000081525060200191505060405180910390fd5b6000602060ff16111515614356576040517f08c379a000000000000000000000000000000000000000000000000000000000815260040180806020018281038252601f8152602001807f546865207374617465206f7220726567696f6e206d757374206265207365740081525060200191505060405180910390fd5b6000831115156143ce576040517f08c379a000000000000000000000000000000000000000000000000000000000815260040180806020018281038252601b8152602001807f54686520706f7374616c20636f6465206d75737420626520736574000000000081525060200191505060405180910390fd5b600060010282111515614449576040517f08c379a00000000000000000000000000000000000000000000000000000000081526004018080602001828103825260178152602001807f54686520636f756e747279206d7573742062652073657400000000000000000081525060200191505060405180910390fd5b6144516151b9565b600360008b815260200190815260200160002060e0604051908101604052908160008201548152602001600182018054600181600116156101000203166002900480601f0160208091040260200160405190810160405280929190818152602001828054600181600116156101000203166002900480156145135780601f106144e857610100808354040283529160200191614513565b820191906000526020600020905b8154815290600101906020018083116144f657829003601f168201915b50505050508152602001600282018054600181600116156101000203166002900480601f0160208091040260200160405190810160405280929190818152602001828054600181600116156101000203166002900480156145b55780601f1061458a576101008083540402835291602001916145b5565b820191906000526020600020905b81548152906001019060200180831161459857829003601f168201915b50505050508152602001600382015481526020016004820160009054906101000a900473ffffffffffffffffffffffffffffffffffffffff1673ffffffffffffffffffffffffffffffffffffffff1673ffffffffffffffffffffffffffffffffffffffff16815260200160058201548152602001600682018054600181600116156101000203166002900480601f0160208091040260200160405190810160405280929190818152602001828054600181600116156101000203166002900480156146c15780601f10614696576101008083540402835291602001916146c1565b820191906000526020600020905b8154815290600101906020018083116146a457829003601f168201915b50505050508152505090506146d461528d565b610140604051908101604052808c81526020018b81526020018a81526020018981526020018881526020018781526020018681526020018581526020018481526020016040805190810160405280600781526020017f70656e64696e670000000000000000000000000000000000000000000000000081525081525090508160a0015134101515156147b1576040517f08c379a000000000000000000000000000000000000000000000000000000000815260040180806020018281038252603b815260200180615490603b913960400191505060405180910390fd5b8160a0015134111561480b573373ffffffffffffffffffffffffffffffffffffffff166108fc8360a0015134039081150290604051600060405180830381858888f19350505050158015614809573d6000803e3d6000fd5b505b60016000836080015173ffffffffffffffffffffffffffffffffffffffff1673ffffffffffffffffffffffffffffffffffffffff168152602001908152602001600020819080600181540180825580915050906001820390600052602060002090600a0201600090919290919091506000820151816000015560208201518160010190805190602001906148a092919061520d565b5060408201518160020190805190602001906148bd92919061520d565b5060608201518160030190805190602001906148da92919061520d565b506080820151816004015560a0820151816005015560c0820151816006015560e08201518160070155610100820151816008015561012082015181600901908051906020019061492b92919061520d565b50505050600260003373ffffffffffffffffffffffffffffffffffffffff1673ffffffffffffffffffffffffffffffffffffffff168152602001908152602001600020819080600181540180825580915050906001820390600052602060002090600a0201600090919290919091506000820151816000015560208201518160010190805190602001906149c092919061520d565b5060408201518160020190805190602001906149dd92919061520d565b5060608201518160030190805190602001906149fa92919061520d565b506080820151816004015560a0820151816005015560c0820151816006015560e082015181600701556101008201518160080155610120820151816009019080519060200190614a4b92919061520d565b505050506007819080600181540180825580915050906001820390600052602060002090600a020160009091929091909150600082015181600001556020820151816001019080519060200190614aa392919061520d565b506040820151816002019080519060200190614ac092919061520d565b506060820151816003019080519060200190614add92919061520d565b506080820151816004015560a0820151816005015560c0820151816006015560e082015181600701556101008201518160080155610120820151816009019080519060200190614b2e92919061520d565b5050505080600460008d8152602001908152602001600020600082015181600001556020820151816001019080519060200190614b6c92919061520d565b506040820151816002019080519060200190614b8992919061520d565b506060820151816003019080519060200190614ba692919061520d565b506080820151816004015560a0820151816005015560c0820151816006015560e082015181600701556101008201518160080155610120820151816009019080519060200190614bf792919061520d565b50905050600780549050600d81905550600060016000846080015173ffffffffffffffffffffffffffffffffffffffff1673ffffffffffffffffffffffffffffffffffffffff1681526020019081526020016000208054905011614c5c576000614ca6565b6001806000846080015173ffffffffffffffffffffffffffffffffffffffff1673ffffffffffffffffffffffffffffffffffffffff16815260200190815260200160002080549050035b600a81905550600060026000846080015173ffffffffffffffffffffffffffffffffffffffff1673ffffffffffffffffffffffffffffffffffffffff1681526020019081526020016000208054905011614d01576000614d4c565b600160026000846080015173ffffffffffffffffffffffffffffffffffffffff1673ffffffffffffffffffffffffffffffffffffffff16815260200190815260200160002080549050035b600b81905550600960009054906101000a900473ffffffffffffffffffffffffffffffffffffffff1673ffffffffffffffffffffffffffffffffffffffff166323b872dd8360800151338e6040518463ffffffff167c0100000000000000000000000000000000000000000000000000000000028152600401808473ffffffffffffffffffffffffffffffffffffffff1673ffffffffffffffffffffffffffffffffffffffff1681526020018373ffffffffffffffffffffffffffffffffffffffff1673ffffffffffffffffffffffffffffffffffffffff1681526020018281526020019350505050600060405180830381600087803b158015614e4f57600080fd5b505af1158015614e63573d6000803e3d6000fd5b50505050816080015173ffffffffffffffffffffffffffffffffffffffff166108fc8360a001519081150290604051600060405180830381858888f19350505050158015614eb5573d6000803e3d6000fd5b505050505050505050505050565b600160205281600052604060002081815481101515614ede57fe5b90600052602060002090600a020160009150915050806000015490806001018054600181600116156101000203166002900480601f016020809104026020016040519081016040528092919081815260200182805460018160011615610100020316600290048015614f915780601f10614f6657610100808354040283529160200191614f91565b820191906000526020600020905b815481529060010190602001808311614f7457829003601f168201915b505050505090806002018054600181600116156101000203166002900480601f01602080910402602001604051908101604052809291908181526020018280546001816001161561010002031660029004801561502f5780601f106150045761010080835404028352916020019161502f565b820191906000526020600020905b81548152906001019060200180831161501257829003601f168201915b505050505090806003018054600181600116156101000203166002900480601f0160208091040260200160405190810160405280929190818152602001828054600181600116156101000203166002900480156150cd5780601f106150a2576101008083540402835291602001916150cd565b820191906000526020600020905b8154815290600101906020018083116150b057829003601f168201915b505050505090806004015490806005015490806006015490806007015490806008015490806009018054600181600116156101000203166002900480601f0160208091040260200160405190810160405280929190818152602001828054600181600116156101000203166002900480156151895780601f1061515e57610100808354040283529160200191615189565b820191906000526020600020905b81548152906001019060200180831161516c57829003601f168201915b505050505090508a565b600960009054906101000a900473ffffffffffffffffffffffffffffffffffffffff1681565b60e06040519081016040528060008152602001606081526020016060815260200160008152602001600073ffffffffffffffffffffffffffffffffffffffff16815260200160008152602001606081525090565b828054600181600116156101000203166002900490600052602060002090601f016020900481019282601f1061524e57805160ff191683800117855561527c565b8280016001018555821561527c579182015b8281111561527b578251825591602001919060010190615260565b5b509050615289919061531c565b5090565b61014060405190810160405280600081526020016060815260200160608152602001606081526020016000801916815260200160008019168152602001600081526020016000801916815260200160008152602001606081525090565b81548183558181111561531757600a0281600a0283600052602060002091820191016153169190615341565b5b505050565b61533e91905b8082111561533a576000816000905550600101615322565b5090565b90565b6153cd91905b808211156153c95760008082016000905560018201600061536891906153d0565b60028201600061537891906153d0565b60038201600061538891906153d0565b600482016000905560058201600090556006820160009055600782016000905560088201600090556009820160006153c091906153d0565b50600a01615347565b5090565b90565b50805460018160011615610100020316600290046000825580601f106153f65750615415565b601f016020900490600052602060002090810190615414919061531c565b5b5056fe4f6e6c79207468652073656c6c65722063616e206d61726b20746865206f7264657220617320636f6d706c657465645468652070726f64756374206d75737420657869737420746f20626520707572636861736564546865206c696e65206f6e6520646972656374696f6e206d75737420626520736574546865207061796d656e74206d757374206265206c6172676572206f7220657175616c207468616e207468652070726f6475637473207072696365a165627a7a7230582082a852f9f853a3efbde9a0574199f92246269fcd380a5636f428082cc429d4460029",
  "source": "pragma solidity ^0.5.0;\n\nimport './ERC721.sol';\n\n/// @notice The Ecommerce Token that implements the ERC721 token with mint function\n/// @author Merunas Grincalaitis <merunasgrincalaitis@gmail.com>\ncontract EcommerceToken is ERC721 {\n    address public ecommerce;\n    bool public isEcommerceSet = false;\n    /// @notice To generate a new token for the specified address\n    /// @param _to The receiver of this new token\n    /// @param _tokenId The new token id, must be unique\n    function mint(address _to, uint256 _tokenId) public {\n        require(msg.sender == ecommerce, 'Only the ecommerce contract can mint new tokens');\n        _mint(_to, _tokenId);\n    }\n\n    /// @notice To set the ecommerce smart contract address\n    function setEcommerce(address _ecommerce) public {\n        require(!isEcommerceSet, 'The ecommerce address can only be set once');\n        require(_ecommerce != address(0), 'The ecommerce address cannot be empty');\n        isEcommerceSet = true;\n        ecommerce = _ecommerce;\n    }\n}\n\n/// @notice The main ecommerce contract to buy and sell ERC-721 tokens representing physical or digital products because we are dealing with non-fungible tokens, there will be only 1 stock per product\n/// @author Merunas Grincalaitis <merunasgrincalaitis@gmail.com>\ncontract Ecommerce {\n    // We need the following:\n    /*\n        - A function to publish, sell products with unique token ids\n        - A function to buy products\n        - A function to mark purchased products as completed by the seller\n        - A function to get all the orders\n        - A function to get the recent products\n    */\n    struct Product {\n        uint256 id;\n        string title;\n        string description;\n        uint256 date;\n        address payable owner;\n        uint256 price;\n        string image;\n    }\n    struct Order {\n        uint256 id;\n        string nameSurname;\n        string lineOneDirection;\n        string lineTwoDirection;\n        bytes32 city;\n        bytes32 stateRegion;\n        uint256 postalCode;\n        bytes32 country;\n        uint256 phone;\n        string state; // Either 'pending', 'completed'\n    }\n    // Seller address => products\n    mapping(address => Product[]) public sellerProducts; // The published products by the seller\n    // Seller address => products\n    mapping(address => Order[]) public pendingSellerOrders; // The products waiting to be fulfilled by the seller, used by sellers to check which orders have to be filled\n    // Buyer address => products\n    mapping(address => Order[]) public pendingBuyerOrders; // The products that the buyer purchased waiting to be sent\n    // Product id => product\n    mapping(uint256 => Product) public productById;\n    // Product id => order\n    mapping(uint256 => Order) public orderById;\n    // Product id => true or false\n    mapping(uint256 => bool) public productExists;\n    Product[] public products;\n    Order[] public orders;\n    uint256 public lastId;\n    address public token;\n    uint256 public lastPendingSellerOrder;\n    uint256 public lastPendingBuyerOrder;\n    uint256 public productsLength;\n    uint256 public ordersLength;\n\n    /// @notice To setup the address of the ERC-721 token to use for this contract\n    /// @param _token The token address\n    constructor(address _token) public {\n        token = _token;\n    }\n\n    /// @notice To publish a product as a seller\n    /// @param _title The title of the product\n    /// @param _description The description of the product\n    /// @param _price The price of the product in ETH\n    /// @param _image The image URL of the product\n    function publishProduct(string memory _title, string memory _description, uint256 _price, string memory _image) public {\n        require(bytes(_title).length > 0, 'The title cannot be empty');\n        require(bytes(_description).length > 0, 'The description cannot be empty');\n        require(_price > 0, 'The price cannot be empty');\n        require(bytes(_image).length > 0, 'The image cannot be empty');\n\n        Product memory p = Product(lastId, _title, _description, now, msg.sender, _price * 1e18 , _image);\n        products.push(p);\n        sellerProducts[msg.sender].push(p);\n        productById[lastId] = p;\n        productExists[lastId] = true;\n        EcommerceToken(token).mint(address(this), lastId); // Create a new token for this product which will be owned by this contract until sold\n        productsLength = products.length;\n        lastId++;\n    }\n\n    /// @notice To buy a new product, note that the seller must authorize this contract to manage the token\n    /// @param _id The id of the product to buy\n    /// @param _nameSurname The name and surname of the buyer\n    /// @param _lineOneDirection The first line for the user address\n    /// @param _lineTwoDirection The second, optional user address line\n    /// @param _city Buyer's city\n    /// @param _stateRegion The state or region where the buyer lives\n    /// @param _postalCode The postal code of his location\n    /// @param _country Buyer's country\n    /// @param _phone The optional phone number for the shipping company\n    function buyProduct(uint256 _id, string memory _nameSurname, string memory _lineOneDirection, string memory _lineTwoDirection, bytes32 _city, bytes32 _stateRegion, uint256 _postalCode, bytes32 _country, uint256 _phone) public payable {\n        // The line 2 address and phone are optional, the rest are mandatory\n        require(productExists[_id], 'The product must exist to be purchased');\n        require(bytes(_nameSurname).length > 0, 'The name and surname must be set');\n        require(bytes(_lineOneDirection).length > 0, 'The line one direction must be set');\n        require(_city.length > 0, 'The city must be set');\n        require(_stateRegion.length > 0, 'The state or region must be set');\n        require(_postalCode > 0, 'The postal code must be set');\n        require(_country > 0, 'The country must be set');\n\n        Product memory p = productById[_id];\n        Order memory newOrder = Order(_id, _nameSurname, _lineOneDirection, _lineTwoDirection, _city, _stateRegion, _postalCode, _country, _phone, 'pending');\n        require(msg.value >= p.price, \"The payment must be larger or equal than the products price\");\n\n        // Return the excess ETH sent by the buyer\n        if(msg.value > p.price) msg.sender.transfer(msg.value - p.price);\n        pendingSellerOrders[p.owner].push(newOrder);\n        pendingBuyerOrders[msg.sender].push(newOrder);\n        orders.push(newOrder);\n        orderById[_id] = newOrder;\n        ordersLength = orders.length;\n        lastPendingSellerOrder = pendingSellerOrders[p.owner].length > 0 ? pendingSellerOrders[p.owner].length - 1 : 0;\n        lastPendingBuyerOrder = pendingBuyerOrders[p.owner].length > 0 ? pendingBuyerOrders[p.owner].length - 1 : 0;\n        EcommerceToken(token).transferFrom(p.owner, msg.sender, _id); // Transfer the product token to the new owner\n        p.owner.transfer(p.price);\n    }\n\n    /// @notice To mark an order as completed\n    /// @param _id The id of the order which is the same for the product id\n    function markOrderCompleted(uint256 _id) public {\n        Order memory order = orderById[_id];\n        Product memory product = productById[_id];\n        require(product.owner == msg.sender, 'Only the seller can mark the order as completed');\n        order.state = 'completed';\n\n        // Delete the seller order from the array of pending orders\n        for(uint256 i = 0; i < pendingSellerOrders[product.owner].length; i++) {\n            if(pendingSellerOrders[product.owner][i].id == _id) {\n                Order memory lastElement = orderById[lastPendingSellerOrder];\n                pendingSellerOrders[product.owner][i] = lastElement;\n                pendingSellerOrders[product.owner].length--;\n                lastPendingSellerOrder--;\n            }\n        }\n        // Delete the seller order from the array of pending orders\n        for(uint256 i = 0; i < pendingBuyerOrders[msg.sender].length; i++) {\n            if(pendingBuyerOrders[msg.sender][i].id == order.id) {\n                Order memory lastElement = orderById[lastPendingBuyerOrder];\n                pendingBuyerOrders[msg.sender][i] = lastElement;\n                pendingBuyerOrders[msg.sender].length--;\n                lastPendingBuyerOrder--;\n            }\n        }\n        orderById[_id] = order;\n    }\n\n    /// @notice To get a single product broken down by properties\n    /// @param _id The id of the product to get\n    /// @return The product properties including all of them\n    function getProduct(uint256 _id) public view returns(uint256 id, string memory title, string memory description, uint256 date, address payable owner, uint256 price, string memory image) {\n        Product memory p = productById[_id];\n        id = p.id;\n        title = p.title;\n        description = p.description;\n        date = p.date;\n        owner = p.owner;\n        price = p.price;\n        image = p.image;\n    }\n}\n",
  "sourcePath": "/Users/merunas/Desktop/ecommerce-dapp/contracts/Ecommerce.sol",
  "compiler": {
    "name": "solc",
    "version": "0.5.4+commit.9549d8ff.Emscripten.clang"
  },
  "schemaVersion": "3.0.0-beta.2",
  "updatedAt": "2019-04-01T19:49:36.805Z",
  "devdoc": {
    "author": "Merunas Grincalaitis <merunasgrincalaitis@gmail.com>",
    "methods": {
      "buyProduct(uint256,string,string,string,bytes32,bytes32,uint256,bytes32,uint256)": {
        "params": {
          "_city": "Buyer's city",
          "_country": "Buyer's country",
          "_id": "The id of the product to buy",
          "_lineOneDirection": "The first line for the user address",
          "_lineTwoDirection": "The second, optional user address line",
          "_nameSurname": "The name and surname of the buyer",
          "_phone": "The optional phone number for the shipping company",
          "_postalCode": "The postal code of his location",
          "_stateRegion": "The state or region where the buyer lives"
        }
      },
      "constructor": {
        "params": {
          "_token": "The token address"
        }
      },
      "getProduct(uint256)": {
        "params": {
          "_id": "The id of the product to get"
        },
        "return": "The product properties including all of them"
      },
      "markOrderCompleted(uint256)": {
        "params": {
          "_id": "The id of the order which is the same for the product id"
        }
      },
      "publishProduct(string,string,uint256,string)": {
        "params": {
          "_description": "The description of the product",
          "_image": "The image URL of the product",
          "_price": "The price of the product in ETH",
          "_title": "The title of the product"
        }
      }
    }
  },
  "userdoc": {
    "methods": {
      "buyProduct(uint256,string,string,string,bytes32,bytes32,uint256,bytes32,uint256)": {
        "notice": "To buy a new product, note that the seller must authorize this contract to manage the token"
      },
      "constructor": "To setup the address of the ERC-721 token to use for this contract",
      "getProduct(uint256)": {
        "notice": "To get a single product broken down by properties"
      },
      "markOrderCompleted(uint256)": {
        "notice": "To mark an order as completed"
      },
      "publishProduct(string,string,uint256,string)": {
        "notice": "To publish a product as a seller"
      }
    },
    "notice": "The main ecommerce contract to buy and sell ERC-721 tokens representing physical or digital products because we are dealing with non-fungible tokens, there will be only 1 stock per product"
  }
}